:020000040000FA
:1000000048EF35F0C96E120069EF31F0E2EC16F0FE
:100010003FEC15F0FDD712005AEF33F0D9CFE5FFD2
:10002000E1CFD9FF00C0E5FF01C0E5FF02C0E5FF59
:1000300003C0E5FF04C0E5FF05C0E5FF06C0E5FF1E
:1000400007C0E5FF08C0E5FF09C0E5FF0AC0E5FFFE
:100050000BC0E5FF0CC0E5FF0DC0E5FF0EC0E5FFDE
:100060000FC0E5FF10C0E5FF11C0E5FF12C0E5FFBE
:1000700013C0E5FF14C0E5FF15C0E5FF16C0E5FF9E
:1000800017C0E5FF18C0E5FF19C0E5FF1AC0E5FF7E
:100090001BC0E5FF1CC0E5FF1DC0E5FF1EC0E5FF5E
:1000A0001FC0E5FF20C0E5FF21C0E5FF22C0E5FF3E
:1000B00023C0E5FF24C0E5FF25C0E5FF020EDBCF2E
:1000C00000F0030EDBCF01F0040EDBCF02F0025094
:1000D000086E0150076E0050066EE56A100EE56E60
:1000E0000850E56E0750E56E0650E56E800EE56E31
:1000F0000A0EE56EC00EE56EC1EC26F0080EE12694
:10010000C8CA03F0C9CA04F0CACA05F0CBCA06F0CF
:1001100003C007F004C008F005C009F006C00AF0EB
:10012000D8800AAED8900AE30A1E091E081E076C82
:1001300005E1082A03E1092AD8B40A2AC0CA0BF04B
:10014000C1CA0CF0E86A0A01C1BFFF0E0D6E0E6E47
:10015000D890C431106EC3310F6ED89010320F3268
:10016000C551E840E840C00B1012C541E8403F0BC4
:10017000E8BAC009116E126A11BE12680F500B5C0A
:100180000F6E10500C58106E11500D58116E125009
:100190000E58126E800F810F08E1FF0E115C05E111
:1001A000FF0E105C02E1FE0E0F5CD8A04ED0125084
:1001B000800F800F08E1000E115C05E1000E105C5D
:1001C00002E1030E0F5CD8B040D00A340A30166E3C
:1001D0000930156E0830146E0730136ECECA17F052
:1001E000CFCA18F0E86A0A01CFBFFF0E196E800F60
:1001F000F36E1650800FF35C08E11550195C05E1B1
:100200001450185C02E11350175C1FE30C50156E7C
:1002100015260D34166ED890153616360B44E84464
:10022000FC0B146E0B50E844E844030B15120A0152
:10023000C26B1450C36F1550C46F1650C56FC86B96
:10024000C96BCA6BCB6BB0EF04F00850076E095056
:10025000086ED89008320732D890083207320A5018
:10026000E840E840C00B08120A40E8403F0BE8BAFB
:10027000C0090A6A083408300A6E0730096EE86A55
:100280000ABEFF0E0B6E0C6E07C00DF008C00EF01C
:10029000E86A08BEFF0E136EE56E1350E56E0E5051
:1002A000E56E0D50E56E0C50E56E0B50E56E0A5094
:1002B000E56E0950E56EFCEC1BF0096EF3CF0AF019
:1002C000F4CF0BF0E9CF0CF0080EE126CECA0DF00A
:1002D000CFCA0EF0E86A0A01CFBFFF0E136E146E8C
:1002E000E56E1350E56E0E50E56E0D50E56E0C5048
:1002F000E56E0B50E56E0A50E56E0950E56ECBECED
:100300001FF0096EF3CF0AF0080EE126C6CA0BF003
:10031000C7CA0CF0E86A0A01C7BFFF0E156E0C5081
:10032000196E192615341A6ED89019361A360B44E0
:10033000E844FC0B186E0B50E844E844030B191218
:10034000176AD88006AED890D8B064D109C00BF037
:100350000AC00CF0E86A0ABEFF0E156E800FF36E3D
:100360001250800FF35C08E11150155C05E110504C
:100370000C5C02E10F500B5CD8B024D10650800F0A
:10038000F36E1A50800FF35C08E11950055C05E12B
:100390001850045C02E11750035CD8B0ECD0CCCA12
:1003A0000BF0CDCA0CF0E86A0A01CDBFFF0E156E46
:1003B000166E03500B2604500C22055015220650D1
:1003C00016220B500A01C86F0C50C96F1550CA6F26
:1003D0001650CB6FCECA0BF0CFCA0CF0CCCA15F0BA
:1003E000CDCA16F00C50800FF36E1650800FF35CE0
:1003F00002E115500B5CD8B0A2D0C8CA1BF0C9CA24
:100400001CF0CACA1DF0CBCA1EF0D8901D30206E59
:100410001C301F6ED89020321F321E50E840E8403A
:10042000C00B20121E40E8403F0BE8BAC009226A08
:100430001F50076E2050086E08340830206E0730B9
:100440001F6EE86A20BEFF0E216E226E07C023F0E9
:1004500008C024F0E86A08BEFF0E256EE56E255040
:10046000E56E2450E56E2350E56E2250E56E215076
:10047000E56E2050E56E1F50E56EFCEC1BF01F6E24
:10048000F3CF20F0F4CF21F0E9CF22F0080EE126DF
:100490000BC023F00CC024F0E86A0CBEFF0E256EE2
:1004A000E56E2550E56E2450E56E2350E56E225032
:1004B000E56E2150E56E2050E56E1F50E56ECBECE9
:1004C0001FF01F6EF3CF20F0080EE1261F50096EBB
:1004D00020500A6E09C01FF00AC020F0E86A0ABE68
:1004E000FF0E216E226E1250800FF36E2250800F8D
:1004F000F35C08E12150115C05E12050105C02E141
:100500001F500F5C1CE20B50155C0B6E0C50165804
:100510000C6EE86A0CBEFF0E156E166E0B501B5E5D
:100520000C501C5A15501D5A16501E5A1B500A01C9
:10053000C86F1C50C96F1D50CA6F1E50CB6F1A5028
:10054000800FF36E0A01CB51800FF35C08E1CA51B2
:10055000195C05E1C951185C02E1C851175CD8B0BB
:10056000D8D117500A01C86F1850C96F1950CA6FF7
:100570001A50CB6FCED11A50800FF36E0650800FF9
:10058000F35C08E10550195C05E10450185C02E1D8
:100590000350175CD8B0BDD10D50035C0B6E0E50EC
:1005A00004580C6E13500558156E14500658166EEC
:1005B0000B500A01C86F0C50C96F1550CA6F165006
:1005C000CB6FA7D1CCCA0BF0CDCA0CF0E86A0A01F8
:1005D000CDBFFF0E156E166E0D500B260E500C2261
:1005E00013501522145016220B50035C0B6E0C5046
:1005F00004580C6E15500558156E16500658166E98
:100600000B500A01C86F0C50C96F1550CA6F1650B5
:10061000CB6F7FD10A1E096CD8B40A2A09C00BF02F
:100620000AC00CF0E86A0ABEFF0E156E166E125074
:10063000800FF36E1650800FF35C08E11550115CCB
:1006400005E10C50105C02E10B500F5CD8B03ED1BC
:100650001A1C166E191C156E181C0C6E171C0B6ECE
:100660000B2A04E10C2A02E1154A162A1650800FC3
:10067000F36E0650800FF35C08E10550155C05E150
:1006800004500C5C02E103500B5CD8B0F8D0CCCA2B
:1006900017F0CDCA18F0E86A0A01CDBFFF0E196E37
:1006A0001A6E1750035C176E18500458186E1950C4
:1006B0000558196E1A5006581A6E17500A01C86F5D
:1006C0001850C96F1950CA6F1A50CB6FCECA17F0A5
:1006D000CFCA18F0CCCA19F0CDCA1AF01850800F42
:1006E000F36E1A50800FF35C02E11950175CD8B01A
:1006F000AAD0C8CA1BF0C9CA1CF0CACA1DF0CBCA0E
:100700001EF0D8901D30206E1C301F6ED890203205
:100710001F321E50E840E840C00B20121E40E84047
:100720003F0BE8BAC009216E226A21BE2268221E50
:10073000211E201E1F6C05E1202A03E1212AD8B4C6
:10074000222A1F50076E2050086E08340830206E91
:1007500007301F6EE86A20BEFF0E216E226EE86A27
:1007600008BEFF0E236EE56E2350E56E0850E56E61
:100770000750E56E2250E56E2150E56E2050E56E83
:100780001F50E56EFCEC1BF0076EF3CF08F0F4CFC2
:100790001FF0E9CF20F0080EE12617C021F018C0A5
:1007A00022F0E86A18BEFF0E236EE56E2350E56E58
:1007B0002250E56E2150E56E2050E56E1F50E56E2B
:1007C0000850E56E0750E56ECBEC1FF0076EF3CFD7
:1007D00008F0080EE126081E076C02E1082A00E175
:1007E0000750096E08500A6EE86A0ABEFF0E076ECF
:1007F000800FF36E1250800FF35C08E11150075C1C
:1008000005E110500A5C02E10F50095C1CE2175030
:10081000195C176E18501A58186EE86A18BEFF0E49
:10082000076E086E17501B2618501C2207501D22F9
:1008300008501E221B500A01C86F1C50C96F1D5062
:10084000CA6F1E50CB6F0A01CB51800FF36E16504A
:10085000800FF35C08E11550CA5D05E10C50C95DDD
:1008600002E10B50C85DD8B054D00B500A01C86FDC
:100870000C50C96F1550CA6F1650CB6F4AD0065036
:10088000800FF36E1650800FF35C08E11550055C85
:1008900005E10C50045C02E10B50035CD8B039D088
:1008A0000D500324076E0E500420086E13500520CF
:1008B000096E145006200A6E07500A01C86F0850CE
:1008C000C96F0950CA6F0A50CB6F23D0CCCA07F04A
:1008D000CDCA08F0E86A0A01CDBFFF0E096E0A6EA4
:1008E00007500D2608500E22095013220A501422D8
:1008F0000D5003260E5004221350052214500622D8
:1009000003500A01C86F0450C96F0550CA6F0650E2
:10091000CB6FD8900A01CA31046EC931036ED890EA
:1009200004320332CB51E840E840C00B0412CB4103
:10093000E8403F0BE8BAC009056E066A05BE0668C6
:10094000C2510326C3510422C4510522C5510622B7
:100950000350C26F0450C36F0550C46F0650C56F7B
:10096000E56A100EE56E800EE56E0A0EE56EC00EAD
:10097000E56E0250E56E0150E56E0050E56EC1EC8B
:1009800026F0080EE126E4CF25F0E4CF24F0E4CFF2
:1009900023F0E4CF22F0E4CF21F0E4CF20F0E4CF45
:1009A0001FF0E4CF1EF0E4CF1DF0E4CF1CF0E4CF45
:1009B0001BF0E4CF1AF0E4CF19F0E4CF18F0E4CF45
:1009C00017F0E4CF16F0E4CF15F0E4CF14F0E4CF45
:1009D00013F0E4CF12F0E4CF11F0E4CF10F0E4CF45
:1009E0000FF0E4CF0EF0E4CF0DF0E4CF0CF0E4CF45
:1009F0000BF0E4CF0AF0E4CF09F0E4CF08F0E4CF45
:100A000007F0E4CF06F0E4CF05F0E4CF04F0E4CF44
:100A100003F0E4CF02F0E4CF01F0E4CF00F0E4CF44
:100A2000D9FF1200D9CFE5FFE1CFD9FF00C0E5FF24
:100A300001C0E5FF02C0E5FF03C0E5FF04C0E5FF1C
:100A400005C0E5FF06C0E5FF07C0E5FF08C0E5FFFC
:100A500009C0E5FF0AC0E5FF0BC0E5FF0CC0E5FFDC
:100A60000DC0E5FF0EC0E5FF0FC0E5FF10C0E5FFBC
:100A700011C0E5FF12C0E5FF13C0E5FF14C0E5FF9C
:100A800015C0E5FF16C0E5FF17C0E5FF18C0E5FF7C
:100A900019C0E5FF1AC0E5FF1BC0E5FF1CC0E5FF5C
:100AA0001DC0E5FF1EC0E5FF020EDBCF00F0030E08
:100AB000DBCF01F0040EDBCF02F0050EDBCF03F03D
:100AC000060EDBCF04F0070EDBCF05F0080EDBCF00
:100AD00006F0090EDBCF07F00A0EDBCF08F0096A3B
:100AE0000A6A02C00DF00D50800A0DE102500101AA
:100AF000246F0150236F0050226F010E016E220EF1
:100B0000006E800E026E03C0E9FF04C0F3FF0550C3
:100B100092EC35F00B6E0B50D8B4C8EF08F00B50C8
:100B2000250A02E0AFEF08F00C6A0D6A0E6A0F6A40
:100B3000106A0A0E116E126A136A146A200E156E7C
:100B40001668176A2B0E186E032A02E3044A052A58
:100B500003C0E9FF04C0F3FF055092EC35F0196EB5
:100B6000250A13E11950E56E0250E56E0150E56E5D
:100B70000050E56EB5EC25F0040EE126094A0A2A7C
:100B8000032A02E3044A052ABED71950300A06E1B7
:100B9000300E156E032A02E3044A052A03C0E9FF5A
:100BA00004C0F3FF055092EC35F02D0A06E1010E6A
:100BB000146E032A02E3044A052A03C0E9FF04C0B5
:100BC000F3FF055092EC35F0200A08E1010E176E94
:100BD000200E186E032A02E3044A052A03C0E9FF27
:100BE00004C0F3FF055092EC35F02B0A06E1010E2C
:100BF000176E032A02E3044A052A03C0E9FF04C072
:100C0000F3FF055092EC35F0196E310E195C2BE3B1
:100C10003A0E195C28E203C019F004C01AF005C0AE
:100C20001BF019C0E9FF1AC0F3FF1B5092EC35F01E
:100C30001C6E300E1C5C11E33A0E1C5C0EE213506D
:100C40000A0DF3CF1DF01D501C26D00E1C24136E70
:100C5000192A02E31A4A1B2AE4D719C003F01AC062
:100C600004F01BC005F003C0E9FF04C0F3FF05500A
:100C700092EC35F02E0A2DE1032A02E3044A052AFC
:100C8000166A03C019F004C01AF005C01BF019C0A1
:100C9000E9FF1AC0F3FF1B5092EC35F01C6E300ECA
:100CA0001C5C11E33A0E1C5C0EE216500A0DF3CFE9
:100CB0001DF01D501C26D00E1C24166E192A02E3AE
:100CC0001A4A1B2AE4D719C003F01AC004F01BC04B
:100CD00005F003C0E9FF04C0F3FF055092EC35F0C6
:100CE000196E6C0A07E1010E0C6E032A02E3044A36
:100CF000052A09D01950680A06E1010E0E6E032A72
:100D000002E3044A052A03C0E9FF04C0F3FF0550CB
:100D100092EC35F0750A06E1010E106E032A02E32B
:100D2000044A052A03C0E9FF04C0F3FF055092EC12
:100D300035F0196E730A05E1010E0D6E200E156E69
:100D40003FD01950780A03E1100E116E39D01950B6
:100D5000580A05E1100E116E010E126E31D01950B5
:100D6000630A02E1116A2CD019506F0A03E1080EE0
:100D7000116E26D01950660A03E1010E0F6E20D0C5
:100D80001950640A1DE01950690A1AE0105005E074
:100D9000FF0E03260422052213D01950E56E0250DF
:100DA000E56E0150E56E0050E56EB5EC25F0040EE1
:100DB000E126094A0A2A032A02E3044A052AA3D69D
:100DC0000D5021E00650030F0D6E000E0720196E26
:100DD000000E08201A6E0DC006F019C007F01AC0E8
:100DE00008F0FD0E0D26FF0E19221A220DC0E9FF94
:100DF00019C0F3FF1A505DEC34F00D6EF3CF19F00B
:100E0000F4CF1AF0FDD00F500DE0000E1A6E120E46
:100E1000196E180E0D6E040E0626000E072208220B
:100E20001668EED016680C5023E00650040F0C6EC6
:100E3000000E07200F6E000E08201B6E0CC006F07F
:100E40000FC007F01BC008F0FC0E0C26FF0E0F228F
:100E50001B220CC0E9FF0FC0F3FF1B50C6EC33F0A0
:100E60000C6EF3CF0FF0F4CF1BF0E9CF1CF067D07E
:100E70000E502FE00650020F0E6E000E07201D6E62
:100E8000000E08201E6E0EC006F01DC007F01EC02A
:100E900008F0FE0E0E26FF0E1D221E220EC0E9FFD8
:100EA0001DC0F3FF1E501CEC35F00E6E0EC00CF092
:100EB0000F6A1B6A1C6A11500A0A03E11050D8B469
:100EC0003ED00C500E6E0EC00CF00F6A1B6A1C6AEE
:100ED00036D00650020F0E6E000E07201D6E000E5B
:100EE00008201E6E0EC006F01DC007F01EC008F0E0
:100EF000FE0E0E26FF0E1D221E220EC0E9FF1DC093
:100F0000F3FF1E501CEC35F00E6EF3CF1DF00EC03B
:100F10000CF01DC00FF0E86A1DBEFF0E1B6E1C6EAC
:100F200011500A0A02E110500AE00C500E6E0F50E8
:100F30001D6E0EC00CF01DC00FF01B6A1C6A0A0E5D
:100F4000196EEB0E0D6E800E1A6E1150D8B440D093
:100F5000105013E01150E56E0A0EE56EEB0EE56ED3
:100F60001C50E56E1B50E56E0F50E56E0C50E56EA3
:100F7000EFEC1EF0070EE12612D01150E56E0A0EBE
:100F8000E56EEB0EE56E1C50E56E1B50E56E0F50E6
:100F9000E56E0C50E56EB6EC2AF0070EE126175010
:100FA0002FE00DC0E9FF19C0F3FF1A5092EC35F0A5
:100FB0002D0A26E0FF0E0D2619221A2218C0E5FF81
:100FC0000DC0E9FF19C0F3FF1A5026EC36F018D017
:100FD0000CC0E5FF0DC0E9FF19C0F3FF1A5026EC65
:100FE00036F00D50010F0C6E000E19200E6E000E23
:100FF0001A20E56A0CC0E9FF0EC0F3FF26EC36F0BC
:101000000DC00CF019C00EF01AC00FF013C010F094
:10101000105010E00CC0E9FF0EC0F3FF0F5092EC2F
:1010200035F0176E175006E00C2A02E30E4A0F2A1D
:101030001006EED710C013F014501EE109C00CF0DA
:101040000AC00EF010C00FF00F5010E01550E56E02
:101050000250E56E0150E56E0050E56EB5EC25F0EE
:10106000040EE1260C4A0E2A0F06EED70CC009F03A
:101070000EC00AF00FC013F016C00CF00DC00DF03A
:1010800019C00EF01AC00FF009C010F00AC015F018
:101090000DC0E9FF0EC0F3FF0F5092EC35F0166E55
:1010A0001650D8B43ED00CC016F0176A161E171E84
:1010B0001650171005E00CC016F00C06165031E063
:1010C0000DC0E9FF0EC0F3FF0F5092EC35F0116E2A
:1010D000125010E01150E56ED9EC34F0166EE65265
:1010E000165004E0DF0E1114166E02D011C016F077
:1010F00016C011F01150E56E0250E56E0150E56E1C
:101100000050E56EB5EC25F0040EE1260D2A02E351
:101110000E4A0F2A104A152A1350D8B4B9D713060D
:10112000B7D710C009F015C00AF014502BE010C05A
:101130000CF015C00DF013C00EF00E501FE0200E85
:10114000E56E0250E56E0150E56E0050E56EB5ECBF
:1011500025F0040EE1260C4A0D2A0E06EED70B50A0
:10116000E56E0250E56E0150E56E0050E56EB5EC9F
:1011700025F0040EE126094A0A2A04D00CC009F021
:101180000DC00AF0032A02E3044A052A83EF05F0A2
:101190000AC0F3FF0950E4CF1EF0E4CF1DF0E4CF06
:1011A0001CF0E4CF1BF0E4CF1AF0E4CF19F0E4CF49
:1011B00018F0E4CF17F0E4CF16F0E4CF15F0E4CF49
:1011C00014F0E4CF13F0E4CF12F0E4CF11F0E4CF49
:1011D00010F0E4CF0FF0E4CF0EF0E4CF0DF0E4CF49
:1011E0000CF0E4CF0BF0E4CF0AF0E4CF09F0E4CF49
:1011F00008F0E4CF07F0E4CF06F0E4CF05F0E4CF49
:1012000004F0E4CF03F0E4CF02F0E4CF01F0E4CF48
:1012100000F0E4CFD9FF12003C4E4F20464C4F4126
:10122000543E0000D9CFE5FFE1CFD9FF00C0E5FF74
:1012300001C0E5FF02C0E5FF03C0E5FF04C0E5FF14
:1012400005C0E5FF06C0E5FF07C0E5FF08C0E5FFF4
:1012500009C0E5FF0AC0E5FF0BC0E5FF0CC0E5FFD4
:101260000DC0E5FF020EDBCF00F0030EDBCF01F077
:10127000040EDBCF02F00050090F066E000E0120B5
:10128000076E000E0220086E0B6E07500A6E0650A5
:10129000096EE56A0D0EE56E0B50E56E0A50E56EBF
:1012A0000950E56E800EE56E0A0EE56ED00EE56E15
:1012B000C1EC26F0080EE12600C009F001C00AF0DA
:1012C00002C00BF0E56AE56E0B50E56E0A50E56E64
:1012D0000950E56E800EE56E040EE56E810EE56E3A
:1012E000C1EC26F0080EE12681C403F00350010A88
:1012F00004E00350030A01E019D10A01E551036E2D
:10130000E651046E0A01D851056ED951096E055097
:10131000035C0101336F09500458346F0A01E55131
:101320000A01D86F0A01E6510A01D96F0A01E75193
:101330000A01DA6F0A01E8510A01DB6F010133513A
:101340003411D8A47FD06BEC32F0036EF3CF04F0ED
:10135000F4CF05F0E9CF09F00A01DD510A6EDE5144
:101360000B6EDF510C6EE0510D6E0A50035E0B5098
:10137000045A0C50055A0D50095A03500401F86FD5
:101380000450F96F0550FA6F7F0E0914FB6F0A01C4
:10139000DCB125D00401F935FB31046EFA31036E5E
:1013A000043404320332000E04BEFF0E096E056ED3
:1013B00086C40AF00B6A0C6A0D6A0D50800FF36E3A
:1013C0000950800FF35C08E105500C5C05E1045006
:1013D0000B5C02E103500A5C02E20A01DC810A01B3
:1013E000DCB14AD0D4CA03F0D5CA04F0D6CA05F09D
:1013F000D7CA09F00401FB51800FF36E0950800F2A
:10140000F35C08E10550FA5D05E10450F95D02E185
:101410000350F85D08E203C0F8F404C0F9F405C015
:10142000FAF409C0FBF40A01E9A303D0010E036E2C
:1014300001D0036803C033F10101346B03AE01D066
:1014400034691AD00A01DC91E1CAF8F4E2CAF9F46D
:10145000E3CAFAF4E4CAFBF40401F8510A01D46FB8
:101460000401F9510A01D56F0401FA510A01D66F3E
:101470000401FB510A01D76F0401FB51800F800F5B
:1014800008E1000EFA5D05E1000EF95D02E1010ED2
:10149000F85D06E20401FC6BFD6BFE6BFF6B46D052
:1014A0000401F851036EF951046EFA51056EFB51B7
:1014B000E56E0550E56E0450E56E0350E56E010ED5
:1014C000E56E000EE56AE56AE56A6BEC22F0036EF4
:1014D000F3CF04F0F4CF05F0E9CF09F0080EE126D0
:1014E00033C10AF034C10BF0E86A010134BFFF0ECA
:1014F0000C6E0D6E0950E56E0550E56E0450E56EFC
:101500000350E56E0D50E56E0C50E56E0B50E56E28
:101510000A50E56EFCEC1BF00401FC6FF3CFFDF408
:10152000F4CFFEF4E9CFFFF4080EE126020E040129
:10153000815DD8A045D10A01E9A142D10050230F15
:10154000036E000E0120046E000E0220E56E0450B2
:10155000E56E0350E56E0EEC00F0030EE126005040
:10156000230F036E000E0120046E000E0220056E94
:10157000020E0326000E0422052203C0E9FF04C068
:10158000F3FF0550C6EC33F0F3CF04F0F4CF05F0D1
:10159000E9CF09F00450036E0550046ED890043270
:1015A0000332D890043203320950E840E840C00BBF
:1015B00004120940E8403F0BE8BAC009056E096A09
:1015C00005BE09680A01E551035C0A01F76F0A01CB
:1015D000E65104580A01F86F0A01E75105580A015B
:1015E000F96F0A01E85109580A01FA6FD880FAAF79
:1015F000D89022E30401831D046E821D036E034A0A
:10160000042AE86A04BEFF0E056E096E0A01FA514B
:10161000800FF36E0950800FF35C08E10550F95D0F
:1016200005E10450F85D02E10350F75D05E30A01AE
:10163000F76BF86BF96BFA6B0A01FA51800F800FA8
:1016400008E1000EF95D05E1000EF85D02E1010E12
:10165000F75D1EE382C403F083C404F0E86A04016A
:1016600083BFFF0E056E800FF36E0A01FA51800FE3
:10167000F35C08E1F951055C05E1F851045C02E115
:10168000F751035C05E30A01F76BF86BF96BFA6B32
:101690000401875109E0E86CD8900A01F737F83760
:1016A000F937FA37010FF9E30A01FA51800F800F79
:1016B00008E1000EF95D05E1800EF85D02E1000E23
:1016C000F75D07E30A01F7697F0EF86FF96BFA6BB4
:1016D00014D00A01FA51800F810F08E1FF0EF95D65
:1016E00005E1800EF85D02E1000EF75D06E20A01F9
:1016F000F76B800EF86FF969FA690050330F036ECB
:10170000000E0120046E000E0220056E0A01F75142
:10171000096EF851E56E0950E56E0550E56E04500E
:10172000E56E0350E56EE4EC0EF0050EE1260401D3
:101730008151030A23E10050330F036E000E012094
:10174000046E000E0220056E0B0E0326000E04220E
:10175000052203C0E9FF04C0F3FF0550C6EC33F0D7
:10176000F3CF04F0F4CF05F00450036E0550046E7F
:1017700003500A01D06F0450D16F22D00050330FB4
:10178000036E000E0120046E000E0220056E0B0E8B
:101790000326000E0422052203C0E9FF04C0F3FF64
:1017A0000550C6EC33F0F3CF04F0F4CF05F004504D
:1017B000036E0550046E03500A01D26F0450D36FBC
:1017C00081C403F00350010A04E00350030A01E05E
:1017D0007DD0D0CA03F0D1CA04F0E86A0A01D1BFB3
:1017E000FF0E056E096E0401FC51035C0A01F76FE0
:1017F0000401FD5104580A01F86F0401FE51055817
:101800000A01F96F0401FF5109580A01FA6F800FAC
:10181000800F08E1000EF95D05E1800EF85D02E140
:10182000000EF75D07E30A01F7697F0EF86FF96BA9
:10183000FA6B14D00A01FA51800F810F08E1FF0EF4
:10184000F95D05E1800EF85D02E1000EF75D06E24C
:101850000A01F76B800EF86FF969FA690050440FBE
:10186000036E000E0120046E000E0220056E0A01B8
:10187000F751096EF851E56E0950E56E0550E56EB9
:101880000450E56E0350E56EE4EC0EF0050EE12623
:10189000440E0026000E012202220B0E0026000E2E
:1018A0000122022200C0E9FF01C0F3FF0250C6EC92
:1018B00033F0F3CF01F0F4CF02F00150006E02508C
:1018C000016E00500A01D26F0150D36F0850086EAC
:1018D000E56A0D0EE56E800EE56E0A0EE56ED00E21
:1018E000E56E0850E56E0750E56E0650E56EC1ECFA
:1018F00026F0080EE126E4CF0DF0E4CF0CF0E4CFA3
:101900000BF0E4CF0AF0E4CF09F0E4CF08F0E4CF25
:1019100007F0E4CF06F0E4CF05F0E4CF04F0E4CF25
:1019200003F0E4CF02F0E4CF01F0E4CF00F0E4CF25
:10193000D9FF120025642025640A000000C0E5FFDD
:1019400001C0E5FF02C0E5FF03C0E5FF04C0E5FFFD
:1019500005C0E5FF06C0E5FF07C0E5FF08C0E5FFDD
:1019600009C0E5FF0AC0E5FF0BC0E5FF0CC0E5FFBD
:10197000006A016A026A040E025CD8B0E8D101C0B4
:1019800003F0012A100E035CD8B0E1D104014C2B06
:10199000100E4C5D01E34C6B04014C39E8441F0B05
:1019A000036E046A2F0E0326010E042203C0E9FF12
:1019B00004C0EAFFEFCF03F0070E4C15046E010ED2
:1019C000056E000E066E045006E0E86CD8900536F1
:1019D0000636010FFCE3076A03500516075006168A
:1019E00005500610D880E866D890056A053605507F
:1019F000D8A4C1D704014C51020DF450046EF3CFAA
:101A000003F0E00E0324056E000E0420066E05C0F0
:101A1000E9FF06C0EAFFEECF05F0EFCF06F00401C4
:101A200049A19DD0200E0324076E0A0E0420086EE3
:101A300007C0E9FF08C0EAFFEECF07F0EFCF08F0DC
:101A40000650800FF36E0850800FF35C02E10750E0
:101A5000055C03E2056A066A60D0400E03260A0EA2
:101A6000042203C0E9FF04C0EAFFEECF03F0EFCF8A
:101A700004F00450800FF36E0650800FF35C02E117
:101A80000550035C04E205683F0E066E46D0075021
:101A9000055C096E085006580A6EE86A0ABEFF0E19
:101AA0000B6EE56E0B50E56E0A50E56E0950E56E63
:101AB000E56AE56A400EE56E000EE56AFCEC1BF097
:101AC000096EF3CF0AF0F4CF0BF0E9CF0CF0080E5B
:101AD000E1260750035C076E08500458086EE86A58
:101AE00008BEFF0E036EE56E0350E56E0850E56E0E
:101AF0000750E56E0C50E56E0B50E56E0A50E56E32
:101B00000950E56E6BEC22F0036EF3CF04F0080E83
:101B1000E1260350056E0450066E04014851800F03
:101B2000F36E0650800FF35C02E10550475D03E35E
:101B3000056A066A14D004014751FF08036E3F0E80
:101B40004855046E0650800FF36E0450800FF35C0E
:101B500002E10350055C03E305683F0E066E0401D5
:101B60004C51020DF450046EF3CF03F0000E032627
:101B70000A0E042203C0E9FF04C0EAFFEECF03F01F
:101B8000EFCF04F00350055C036E04500658046E5A
:101B9000D88004AED89004E3041E036CD8B4042AA1
:101BA000022A04014851800FF36E0450800FF35C49
:101BB00002E10350475DD8B0DED604014C51020D5E
:101BC000F450086EF3CF07F0000E07260A0E082225
:101BD00007C0E9FF08C0EAFF05C0EEFF06C0EFFF3F
:101BE000040149A55AD004014C51020DF450086E6D
:101BF000F3CF07F0600E0724096E0A0E08200A6E64
:101C000009C0E9FF0AC0EAFFEECF0BF0EFCF0CF0FE
:101C10000B500C10D8B441D05B0E0726040E0822DE
:101C200007C0E9FF08C0EAFFEECF07F0EFCF08F0EA
:101C30000750055C036E08500658046E03101CE044
:101C40000450800F800F02E1010E035C076A073623
:101C50000C50800F800F02E1010E0B5C0B6A0B36FB
:101C600007500B1809E109C0E9FF0AC0EAFF03C0E9
:101C7000EEFF04C0EFFF7FD604014C51020DF4507B
:101C8000046EF3CF03F0600E03260A0E042203C095
:101C9000E9FF04C0EAFFEE6AEF6A040149A343D0FA
:101CA00000500EE100C003F0002A046A4D0E032626
:101CB000040E042203C0E9FF04C0EAFF420EEF6EE7
:101CC00000C003F0002A046A4D0E0326040E04220D
:101CD000640E04014C25076E03C0E9FF04C0EAFF4F
:101CE00007C0EFFF00C003F0002A046A4D0E032670
:101CF000040E04220650076E03C0E9FF04C0EAFF89
:101D000007C0EFFF00C003F0002A046A4D0E03264F
:101D1000040E04220550076E03C0E9FF04C0EAFF69
:101D200007C0EFFF28D64CC403F00650E56E0550FF
:101D3000E56EE56A0350E56E000EE56E4D0EE56E4C
:101D4000760EE56EFCEC2FF0070EE12614D602C0ED
:101D500001F000501DE0040149A31AD000C002F0B8
:101D6000002A036A4D0E0226040E032202C0E9FF78
:101D700003C0EAFF0A0EEF6E0050E56E800EE56EBE
:101D8000040EE56E4D0EE56E43EC27F0040EE126E1
:101D90000150E4CF0CF0E4CF0BF0E4CF0AF0E4CF35
:101DA00009F0E4CF08F0E4CF07F0E4CF06F0E4CF89
:101DB00005F0E4CF04F0E4CF03F0E4CF02F0E4CF89
:101DC00001F0E4CF00F01200D9CFE5FFE1CFD9FF59
:101DD00000C0E5FF01C0E5FF02C0E5FF03C0E5FF6D
:101DE00004C0E5FF05C0E5FF06C0E5FF07C0E5FF4D
:101DF00008C0E5FF09C0E5FF0AC0E5FF0BC0E5FF2D
:101E0000020EDBCF00F0030EDBCF01F0040EDBCFC0
:101E100002F0050EDBCF03F0060EDBCF04F002501C
:101E20000A6E0150096E0050086EE56A110EE56EEB
:101E30000A50E56E0950E56E0850E56E800EE56EBD
:101E4000040EE56E230EE56EC1EC26F0080EE126C9
:101E500032C405F033C406F0E86A040133BFFF0E54
:101E6000076E0101036F0650026F0550016F006B92
:101E700003C005F004C006F0E86A04BEFF0E076E5A
:101E8000086E23C409F0E56AE56AE56A0950E56E63
:101E90000850E56E0750E56E0650E56E0550E56E9C
:101EA000FCEC1BF00A01FB6FF3CFFCFAF4CFFDFA58
:101EB000E9CFFEFA080EE12604012451D8B4AFD0D0
:101EC0000450800F800F02E1010E035C25E3040142
:101ED0002951800F7C0F08E1000E285D05E1000EFE
:101EE000275D02E1000E265D17E204013151800FEB
:101EF000F36E01010351800FF35C0DE10251040107
:101F0000305D09E10101015104012F5D04E101018E
:101F1000005104012E5D33E3D88004AED890D8A0E0
:101F200043D004012951800F840F08E1000E285D81
:101F300005E1000E275D02E1010E265D35E301019A
:101F4000031D0A6E021D096E011D046E001D036E45
:101F5000032A04E1042A02E1094A0A2A0A50800FEE
:101F6000F36E04013151800FF35C08E13051095CDC
:101F700005E12F51045C02E12E51035C15E205508E
:101F800004012625036E06502721046E07502821E0
:101F9000096E085029210A6E0350266F0450276FDE
:101FA0000950286F0A50296F040126390F0B036E60
:101FB0002739046EF00B041A03262851E838F00B79
:101FC000041228390F0B096E29390A6EF00B0A1A10
:101FD0000926F00E0AB60A2624C40BF0E56AE56A63
:101FE000E56A0B50E56E0A50E56E0950E56E045047
:101FF000E56E0350E56EFCEC1BF0036EF3CF04F0CE
:10200000F4CF09F0E9CF0AF0080EE12603500A01E7
:10201000FB270450FC230950FD230A50FE23040132
:102020002551D8B46CD02A51055C0101046F04011C
:102030002B5106580101056F04012C51075801016D
:10204000066F04012D5108580101076F800F800FA2
:1020500008E1010E065D05E1000E055D02E1000EDE
:10206000045D07E3FF0E0101046F056F066B076B4C
:1020700014D001010751800F810F08E1FF0E065DAA
:1020800005E1000E055D02E1000E045D06E20101BE
:10209000046B056BFF0E066F076F010107310631F8
:1020A0000A6E096A09320551E8407F0B09120531B1
:1020B0000431046E036A033225C40BF0E56AE56A55
:1020C000E56A0B50E56E0A50E56E0950E56E045066
:1020D000E56E0350E56EFCEC1BF0036EF3CF04F0ED
:1020E000F4CF09F0E9CF0AF0080EE12603500A0107
:1020F000FB270450FC230950FD230A50FE23055002
:1021000004012A6F06502B6F07502C6F08502D6F5B
:1021100001010351800FF36E0A01FE51800FF35C41
:102120000DE1FD510101025D09E10A01FC510101CE
:10213000015D04E10A01FB510101005D11E20101B1
:10214000005104012E6F0101015104012F6F0101A3
:1021500002510401306F010103510401316F3AD083
:102160000101031D066E021D056E011D046E001D9A
:10217000036E032A04E1042A02E1054A062A0A0141
:10218000FE51800FF36E0650800FF35C08E105509E
:10219000FD5D05E10450FC5D02E10350FB5D0AE2D8
:1021A000035004012E6F04502F6F0550306F0650FE
:1021B000316F10D00A01FB5104012E6F0A01FC514E
:1021C00004012F6F0A01FD510401306F0A01FE5115
:1021D0000401316FE56A110EE56E800EE56E040EA6
:1021E000E56E230EE56E0250E56E0150E56E00507F
:1021F000E56EC1EC26F0080EE126E4CF0BF0E4CF4B
:102200000AF0E4CF09F0E4CF08F0E4CF07F0E4CF20
:1022100006F0E4CF05F0E4CF04F0E4CF03F0E4CF20
:1022200002F0E4CF01F0E4CF00F0E4CFD9FF1200D8
:1022300000C0E5FF01C0E5FF02C0E5FF03C0E5FF08
:1022400004C0E5FF05C0E5FF06C0E5FF07C0E5FFE8
:1022500008C0E5FF09C0E5FF0AC0E5FFC2A204D03F
:1022600004014A512DEF13F004014B51D8B41DD194
:1022700004014A51020DF450016EF3CF00F0E00E5C
:102280000026000E012200C0E9FF01C0EAFFEECFE8
:1022900000F0EFCF01F0A00E4A25026E036A0A0E8D
:1022A000032202C0E9FF03C0EAFFEFCF02F00250B1
:1022B000FF0A01E152D002380F0B036E920E032485
:1022C000046E056A0F0E0522066A920E03260F0E93
:1022D000062203C0E9FF06C0EAFFEFCF03F0070EB6
:1022E0000214066E010E076E065005E0E86CD890E9
:1022F0000736010FFDE3071C066E031604C0E9FF55
:1023000005C0EAFF03C0EFFF02380F0B036E890E12
:102310000324046E056A0F0E0522066A890E032641
:102320000F0E062203C0E9FF06C0EAFFEFCF03F05D
:10233000070E0214066E010E076E065005E0E86CEB
:10234000D8900736010FFDE3071C066E031604C084
:10235000E9FF05C0EAFF03C0EFFF04014A51020D87
:10236000F450046EF3CF03F0E00E0326000E0422B7
:1023700000380F0B056E0138066EF00B061A0526A5
:1023800006320532F80E06B406260550005C056ECE
:1023900006500158066EC3CF07F0086A075005269D
:1023A00008500622C4CF07F0086A07500A6E096A6F
:1023B000095005260A50062203C0E9FF04C0EAFFBF
:1023C00005C0EEFF06C0EFFF04014651010A01E01F
:1023D0006AD004014A51020DF450046EF3CF03F0A9
:1023E000E00E0324056E000E0420066E05C0E9FF12
:1023F00006C0EAFFEECF00F0EFCF01F0200E03267B
:102400000A0E042203C0E9FF04C0EAFFEECF05F084
:10241000EFCF06F09C0E0526D8A006060150800FCF
:10242000F36E0650800FF35C02E10550005C0EE293
:102430000050640F056E000E0120066E03C0E9FF18
:1024400004C0EAFF05C0EEFF06C0EFFF04014A51D9
:10245000020DF450046EF3CF03F0400E03260A0E73
:10246000042203C0E9FF04C0EAFFEECF05F0EFCF7E
:1024700006F0640E0526D8B0062A0650800FF36ECB
:102480000150800FF35C02E10050055C0CE29C0EF1
:102490000026D8A0010603C0E9FF04C0EAFF00C07F
:1024A000EEFF01C0EFFF04014B6B04014A2B100E3D
:1024B0004A5D01E34A6B04014A39E8441F0B006E90
:1024C000016A2F0E0026010E012200C0E9FF01C0A3
:1024D000EAFFEFCF00F0070E4A15016E010E036E02
:1024E000000E046E015006E0E86CD8900336043606
:1024F000010FFCE3056A0050031605500416035053
:102500000410D880E866D890036A03360350D8A434
:10251000A2D0B00E04014A25006E016A0A0E012203
:1025200000C0E9FF01C0EAFFEFCF00F00044E8443B
:10253000FC0B016E0128C26EA00E4A25006E016AD6
:102540000A0E012200C0E9FF01C0EAFFEFCF02F04E
:102550000250FF0A01E17BD002380F0B006E920E91
:102560000024016E036A0F0E0322046A920E0026F5
:102570000F0E042200C0E9FF04C0EAFFEFCF00F015
:10258000070E0214046E010E056E045005E0E86C9F
:10259000D8900536010FFDE30550001201C0E9FF98
:1025A00003C0EAFF00C0EFFF380E006E0F0E016E91
:1025B00002380F0B036E046A0350002604500122F8
:1025C000380E056E0F0E066E0550032606500422C7
:1025D00003C0E9FF04C0EAFFEFCF03F0070E0216C5
:1025E000010E046E025005E0E86CD8900436010F2D
:1025F000FDE30450031200C0E9FF01C0EAFF03C07D
:10260000EFFF0F0145830000000045930F01449345
:102610000BC0E5FFF2CF0BF0F29E448100000000FA
:1026200000000000000000000000000000000000AA
:10263000000000000000000000000000000000009A
:102640000000000044910BBEF28EE4CF0BF0C2827A
:10265000010E04014B6F04014A51E4CF0AF0E4CFAC
:1026600009F0E4CF08F0E4CF07F0E4CF06F0E4CFC0
:1026700005F0E4CF04F0E4CF03F0E4CF02F0E4CFC0
:1026800001F0E4CF00F01200D9CFE5FFE1CFD9FF90
:1026900000C0E5FF01C0E5FF02C0E5FF03C0E5FFA4
:1026A00004C0E5FF05C0E5FF06C0E5FF07C0E5FF84
:1026B00008C0E5FF09C0E5FF0AC0E5FF020EDBCF59
:1026C00000F0030EDBCF01F0040EDBCF02F0036A53
:1026D000046A95EC32F0056EFE0A01E077D0D5EC85
:1026E0002CF095EC32F0066E030E065CD8A05AD0A2
:1026F000060E065CD8B056D0FD0E0624076EFA6AA8
:10270000FB6A0734FA36E834FA36FC0B1C0FE56E28
:10271000270EFA22000EFB22E450F96E94EF13F01C
:10272000A6EF13F0BFEF13F00050090F076E000E75
:102730000120086E000E022007C0E9FF08C0F3FF69
:102740001CEC35F0036EF3CF04F02CD00050090FD1
:10275000076E000E0120086E000E0220096E020EA8
:102760000726000E0822092207C0E9FF08C0F3FF70
:1027700009501CEC35F0036EF3CF04F013D0005079
:10278000070F076E000E0120086E000E022007C022
:10279000E9FF08C0F3FF92EC35F0010B076E07C0AC
:1027A00003F0046A06C007F00450E56E0350E56EBE
:1027B000E56A0750E56E000EE56E190EE56E340E03
:1027C000E56EFCEC2FF0070EE12640D1070E055C0C
:1027D000D8B03CD1FA6AFB6A0534FA36E834FA36E6
:1027E000FC0BF20FE56E270EFA22000EFB22E450DE
:1027F000F96E07EF14F022EF14F034EF14F046EF07
:1028000014F078EF14F0AEEF14F0CDEF14F00050A8
:10281000230F036E000E0120046E000E0220E56EF1
:102820000450E56E0350E56E31EC18F0030EE1261E
:10283000020EE56E00C0E9FF01C0F3FF025026EC76
:1028400036F004D10050330F036E000E0120046EE9
:10285000000E0220E56E0450E56E0350E56EBEECFE
:102860001AF0030EE126F2D00050440F036E000E62
:102870000120046E000E0220E56E0450E56E035048
:10288000E56EBEEC1AF0030EE126E0D00050090F11
:10289000036E000E0120046E000E0220056E95EC02
:1028A00032F00A6E096AE56A0AC0F4FF03C0E9FF64
:1028B00004C0F3FF0550EDEC35F095EC32F0086AFA
:1028C000092608500A2209C0E5FF0AC0F4FF03C028
:1028D000E9FF04C0F3FF0550EDEC35F0010EE56EA5
:1028E00000C0E9FF01C0F3FF025026EC36F0AED085
:1028F0000050090F036E000E0120046E000E02202E
:10290000056E020E0326000E0422052295EC32F01D
:102910000A6E096AE56A0AC0F4FF03C0E9FF04C051
:10292000F3FF0550EDEC35F095EC32F0086A09261E
:1029300008500A2209C0E5FF0AC0F4FF03C0E9FFFE
:1029400004C0F3FF0550EDEC35F0E56A00C0E9FF87
:1029500001C0F3FF025026EC36F078D00050070F8C
:10296000036E000E0120046E000E0220056E95EC31
:1029700032F0010BF46E03C0E9FF04C0F3FF055011
:1029800092EC35F0FE0BF410E56E03C0E9FF04C0D5
:10299000F3FF055026EC36F059D095EC32F0066E78
:1029A0000050160F036E000E0120046E000E022070
:1029B000056E03500C0F076E000E0420086E000E0B
:1029C0000520096E0650D880E866D8900A6A0A3653
:1029D0000A50D880E866D8900A6A0A360A50010B75
:1029E000F46E07C0E9FF08C0F3FF095092EC35F020
:1029F000FE0BF410E56E07C0E9FF08C0F3FF0950B5
:102A000026EC36F00650010A21E1080E0326000EDE
:102A100004220522E56AF46AF66AF76A03C0E9FF50
:102A200004C0F3FF0550A3EC35F0230E0026000E82
:102A300001220222E56AE56A0250E56E0150E56E68
:102A40000050E56E15EC24F0050EE126E4CF0AF007
:102A5000E4CF09F0E4CF08F0E4CF07F0E4CF06F0CC
:102A6000E4CF05F0E4CF04F0E4CF03F0E4CF02F0CC
:102A7000E4CF01F0E4CF00F0E4CFD9FF120000C0B2
:102A8000E5FF01C0E5FF02C0E5FF03C0E5FF88ECFC
:102A900023F018EC11F06BEC32F0006EF3CF01F084
:102AA000F4CF02F0E9CF03F004013451005E355158
:102AB000015A3651025A3751035A039E3F0E035CA6
:102AC00008E1FF0E025C05E1FF0E015C02E1FF0E72
:102AD000005CD8B06ED16BEC32F0F3CF01F0F4CFE4
:102AE00002F0E9CF03F0880F0401346F130E0120C8
:102AF000356F000E0220366F000E0320376F9EECFC
:102B00000CF0000EE56A0DEC33F00101276FF3CFF6
:102B100028F1E65211EC2EF004017F512DE0010E58
:102B2000E56EE56A01012851E56E2751E56E35EC49
:102B300028F0006EF3CF01F0040EE1260150800F63
:102B4000800F02E1050E005C03E2006A016A05D015
:102B50005E0E0026D8B0012A012A0150E56E005011
:102B6000E56E800EE56E0F0EE56E230EE56EA1ECB0
:102B700031F0050EE1260CD0E56AE56A800EE56EBF
:102B80000F0EE56E230EE56EA1EC31F0050EE12689
:102B9000800EE56E0F0EE56E230EE56E0EEC00F076
:102BA000030EE126D8900F012731016E2631006E09
:102BB000D890013200322851E840E840C00B0112A1
:102BC0002841E8403F0B005004019E6F01509F6F69
:102BD000936B04C0E5FFF2CF04F0F29EA9510A0105
:102BE000DD6F0401AA510A01DE6F0401AB510A0135
:102BF000DF6F0401AC510A01E06F0401AD510A011D
:102C0000E16F0401AE510A01E26F0401AF510A0104
:102C1000E36F0401B0510A01E46F0401B1510A01EC
:102C2000E56F0401B2510A01E66F0401B3510A01D4
:102C3000E76F0401B4510A01E86F0401B5510A01BC
:102C4000E96F0401AD6BAE6BAF6BB06B04BEF28E7F
:102C5000E4CF04F0800EE56E040EE56E930EE56E93
:102C600012EC09F0030EE1269EC435F19FC436F143
:102C700001013651800F7C0F02E1000E355D04E347
:102C800001013569030E366F01013651800F840F43
:102C900002E1010E355D05E2010E0101356FFC0E0A
:102CA000366F01013651800F800F02E1010E355D54
:102CB00010E301013651800FF36E04019751800F2C
:102CC000F35C03E196510101355D03E20101356BCF
:102CD000366BD880010136AFD89015E30401971DFB
:102CE000016E961D006E004A012A0150800FF36E9E
:102CF00001013651800FF35C02E13551005C03E2C3
:102D00000101356B366B04019AA309D0B5A507D034
:102D1000D880010136AFD89002E3356B366BD8808E
:102D2000010136AFD89007E33551FF0F006E030E57
:102D30003621016E04D035C100F036C101F000C06B
:102D400037F101C038F101013751020BE840010BA6
:102D5000E838E844F46EBD50DF0BF410BD6E375117
:102D6000010B010BE838F46EBD50EF0BF410BD6E93
:102D700038353831016E3731006E0134013200329E
:102D80000050BE6ED880010136AFD89002E3898C26
:102D900001D0899C04019F51E56E9E51E56E000EA5
:102DA000E56E300EE56E540EE56EFCEC2FF0050E70
:102DB000E126E4CF03F0E4CF02F0E4CF01F0E4CF6A
:102DC00000F0120000C0E5FF01C0E5FF02C0E5FF12
:102DD00003C0E5FF04C0E5FF5EEC36F03EEC26F0F4
:102DE0009488820E006E0F0E016E0F0E036E380E69
:102DF0000026035001220F0E036E800E005E03506A
:102E0000015A820E026E0F0E036E0F0E046E380E04
:102E10000226045003220F0E046E800E025E045040
:102E2000035A02C0E9FF03C0EAFFEFCF02F00288B5
:102E300000C0E9FF01C0EAFF02C0EFFF100EE56E1F
:102E4000000EE56A53EC2AF0E652E6528A98899C15
:102E50008B84040189859398929C949404019295A3
:102E60009283800E006E040E016E0F0E036E380EFC
:102E70000026035001220F0E036E800E005E0350E9
:102E8000015A800E026E040E036E0F0E046E380E91
:102E90000226045003220F0E046E800E025E0450C0
:102EA000035A02C0E9FF03C0EAFFEFCF02F002922B
:102EB00000C0E9FF01C0EAFF02C0EFFF9283800E6D
:102EC000006E040E016E0F0E036E380E00260350C6
:102ED00001220F0E036E800E005E0350015A800E19
:102EE000026E040E036E0F0E046E380E022604509E
:102EF00003220F0E046E800E025E0450035A02C0BD
:102F0000E9FF03C0EAFFEFCF02F0029200C0E9FF41
:102F100001C0EAFF02C0EFFF9283800E006E040E34
:102F2000016E0F0E036E380E0026035001220F0EA5
:102F3000036E800E005E0350015A800E026E040E76
:102F4000036E0F0E046E380E0226045003220F0E7D
:102F5000046E800E025E0450035A02C0E9FF03C0F3
:102F6000EAFFEFCF02F0029200C0E9FF01C0EAFFE2
:102F700002C0EFFF0C0EBD6EBD9ABD98BE6AB96A65
:102F8000B9860401936B020E946F956B0A0E966FCF
:102F9000976B100E986F070E996F9A919A83800E17
:102FA000E56E040EE56EB60EE56E82EC2CF0030EB7
:102FB000E126800EE56E040EE56ED70EE56ED7ECC9
:102FC00021F0030EE126800EE56E040EE56EC60EBE
:102FD000E56ED7EC21F0030EE1260401B16BB26B74
:102FE000B36BB46BB591B5959C6B9D6B9E6B9F6BF2
:102FF000A46BA56BA66BA76B800EE56E0F0EE56E3E
:10300000230EE56E82EC2CF0030EE126E56AE56AFC
:10301000800EE56E0F0EE56E230EE56E15EC24F0C6
:10302000050EE126880E0F01296F130E2A6F980EE8
:10303000316F3A0E326F980E2F6F3A0E306FE4CF29
:1030400004F0E4CF03F0E4CF02F0E4CF01F0E4CFEA
:1030500000F0120043204D2025640A004300256340
:103060000000D9CFE5FFE1CFD9FF00C0E5FF01C0E7
:10307000E5FF02C0E5FF03C0E5FF04C0E5FF05C0B2
:10308000E5FF06C0E5FF07C0E5FF08C0E5FF09C092
:10309000E5FF0AC0E5FF0BC0E5FF020EDBCF00F045
:1030A000030EDBCF01F0040EDBCF02F0036A046AEB
:1030B00095EC32F0056EFE0A01E063D0D5EC2CF001
:1030C00095EC32F0066E06500AE00650010A19E04F
:1030D0000650020A28E006500A0A37E040D00050A5
:1030E000060F076E000E0120086E000E022007C0BA
:1030F000E9FF08C0F3FF1CEC35F0036EF3CF04F0DA
:103100002ED000500C0F076E000E0120086E000E2E
:10311000022007C0E9FF08C0F3FF1CEC35F0036E86
:10312000F3CF04F01CD000500E0F076E000E0120EC
:10313000086E000E022007C0E9FF08C0F3FF1CEC78
:1031400035F0036EF3CF04F00AD000C0E9FF01C0F0
:10315000F3FF02501CEC35F0036EF3CF04F0045083
:10316000E56E0350E56EE56A0650E56E000EE56E0D
:10317000590EE56EA20EE56EFCEC2FF0070EE1266F
:10318000A1D005500CE00550010A32E00550020ABA
:1031900001E157D005500A0A01E17CD093D00050DC
:1031A000060F056E000E0120066E000E0220076E4F
:1031B00095EC32F00B6E0A6AE56A0BC0F4FF05C0AD
:1031C000E9FF06C0F3FF0750EDEC35F095EC32F067
:1031D000096A0A2609500B220AC0E5FF0BC0F4FF5A
:1031E00005C0E9FF06C0F3FF0750EDEC35F06AD0EB
:1031F00000500C0F056E000E0120066E000E02201E
:10320000076E95EC32F00B6E0A6AE56A0BC0F4FFAC
:1032100005C0E9FF06C0F3FF0750EDEC35F095EC73
:1032200032F0096A0A2609500B220AC0E5FF0BC0DA
:10323000F4FF05C0E9FF06C0F3FF0750EDEC35F0E1
:1032400041D000500E0F056E000E0120066E000EDC
:103250000220076E95EC32F00B6E0A6AE56A0BC02D
:10326000F4FF05C0E9FF06C0F3FF0750EDEC35F0B1
:1032700095EC32F0096A0A2609500B220AC0E5FFD4
:103280000BC0F4FF05C0E9FF06C0F3FF0750EDECEB
:1032900035F018D095EC32F0046E036A95EC32F0FC
:1032A000066A0326065004220450E56E0350E56EBC
:1032B0000250E56E0150E56E0050E56EA1EC31F074
:1032C000050EE126E4CF0BF0E4CF0AF0E4CF09F0DD
:1032D000E4CF08F0E4CF07F0E4CF06F0E4CF05F048
:1032E000E4CF04F0E4CF03F0E4CF02F0E4CF01F048
:1032F000E4CF00F0E4CFD9FF1200800EE56E0A0E95
:10330000E56E400EE56E27EC2DF0030EE126800EF3
:10331000E56E0A0EE56E200EE56E27EC2DF0030E2D
:10332000E126800EE56E0A0EE56E420EE56E27EC94
:103330002DF0030EE126800EE56E0A0EE56E220EDC
:10334000E56E27EC2DF0030EE126800EE56E0A0EE9
:10335000E56E440EE56E27EC2DF0030EE126800E9F
:10336000E56E0A0EE56E240EE56E27EC2DF0030ED9
:10337000E126800EE56E0A0EE56E460EE56E27EC40
:103380002DF0030EE126800EE56E0A0EE56E260E88
:10339000E56E27EC2DF0030EE126800EE56E0A0E99
:1033A000E56E480EE56E27EC2DF0030EE126800E4B
:1033B000E56E0A0EE56E280EE56E27EC2DF0030E85
:1033C000E126800EE56E0A0EE56E4A0EE56E27ECEC
:1033D0002DF0030EE126800EE56E0A0EE56E2A0E34
:1033E000E56E27EC2DF0030EE126800EE56E0A0E49
:1033F000E56E4C0EE56E27EC2DF0030EE126800EF7
:10340000E56E0A0EE56E2C0EE56E27EC2DF0030E30
:10341000E126800EE56E0A0EE56E4E0EE56E27EC97
:103420002DF0030EE126800EE56E0A0EE56E2E0EDF
:10343000E56E27EC2DF0030EE126800EE56E0A0EF8
:10344000E56E500EE56E27EC2DF0030EE126800EA2
:10345000E56E0A0EE56E300EE56E27EC2DF0030EDC
:10346000E126800EE56E0A0EE56E520EE56E27EC43
:103470002DF0030EE126800EE56E0A0EE56E320E8B
:10348000E56E27EC2DF0030EE126800EE56E0A0EA8
:10349000E56E540EE56E27EC2DF0030EE126800E4E
:1034A000E56E0A0EE56E340EE56E27EC2DF0030E88
:1034B000E126800EE56E0A0EE56E560EE56E27ECEF
:1034C0002DF0030EE126800EE56E0A0EE56E360E37
:1034D000E56E27EC2DF0030EE126800EE56E0A0E58
:1034E000E56E580EE56E27EC2DF0030EE126800EFA
:1034F000E56E0A0EE56E380EE56E27EC2DF0030E34
:10350000E126800EE56E0A0EE56E5A0EE56E27EC9A
:103510002DF0030EE126800EE56E0A0EE56E3A0EE2
:10352000E56E27EC2DF0030EE126800EE56E0A0E07
:10353000E56E5C0EE56E27EC2DF0030EE126800EA5
:10354000E56E0A0EE56E3C0EE56E27EC2DF0030EDF
:10355000E126800EE56E0A0EE56E5E0EE56E27EC46
:103560002DF0030EE126800EE56E0A0EE56E3E0E8E
:10357000E56E27EC2DF0030EE1261200D9CFE5FF12
:10358000E1CFD9FF00C0E5FF01C0E5FF02C0E5FFC4
:1035900003C0E5FF04C0E5FF05C0E5FF06C0E5FF89
:1035A00007C0E5FF08C0E5FF020EDBCF00F0030E09
:1035B000DBCF01F0040EDBCF02F0036A046A95EC66
:1035C00032F0056EFE0A01E075D0D5EC2CF095ECDA
:1035D00032F0066E040E065CD8B05AD0FA6AFB6A66
:1035E0000634FA36E834FA36FC0BFA0FE56E350E7F
:1035F000FA22000EFB22E450F96E05EF1BF011EFEA
:103600001BF024EF1BF037EF1BF000C0E9FF01C0F7
:10361000F3FF025092EC35F0076E07C003F0046A26
:1036200037D00050010F076E000E0120086E000E0B
:10363000022007C0E9FF08C0F3FF92EC35F0076EE7
:1036400007C003F0046A24D00050020F076E000E7A
:103650000120086E000E022007C0E9FF08C0F3FF3A
:1036600092EC35F0076E07C003F0046A11D00050E9
:103670000F0F076E000E0120086E000E022007C01B
:10368000E9FF08C0F3FF1CEC35F0036EF3CF04F044
:103690000450E56E0350E56EE56A0650E56E000ED7
:1036A000E56E440EE56ECE0EE56EFCEC2FF0070ED7
:1036B000E1268DD0040E055CD8B089D0FA6AFB6A89
:1036C0000534FA36E834FA36FC0BDA0FE56E360EBE
:1036D000FA22000EFB22E450F96E75EF1BF082EF28
:1036E0001BF0ADEF1BF0C3EF1BF095EC32F0036E57
:1036F00003C0E5FF00C0E9FF01C0F3FF025026EC64
:1037000036F065D00050010F036E000E0120046EEC
:10371000000E0220056E95EC32F0066E06C0E5FF45
:1037200003C0E9FF04C0F3FF055026EC36F0065055
:10373000D8A44DD00050030F036E000E0120046E7C
:10374000000E0220E56AF46AF66AF76A03C0E9FF30
:1037500004C0F3FFA3EC35F03AD00050020F036E23
:10376000000E0120046E000E0220056E95EC32F072
:10377000066E06C0E5FF03C0E9FF04C0F3FF055075
:1037800026EC36F024D00F0E0026000E0122022275
:1037900095EC32F0066E056AE56A06C0F4FF00C0DB
:1037A000E9FF01C0F3FF0250EDEC35F095EC32F08B
:1037B000046A05260450062205C0E5FF06C0F4FF92
:1037C00000C0E9FF01C0F3FF0250EDEC35F0E4CF9B
:1037D00008F0E4CF07F0E4CF06F0E4CF05F0E4CF43
:1037E00004F0E4CF03F0E4CF02F0E4CF01F0E4CF43
:1037F00000F0E4CFD9FF1200D9CFE5FFE1CFD9FF28
:1038000000C0E5FF01C0E5FF02C0E5FF03C0E5FF22
:1038100004C0E5FF05C0E5FF06C0E5FF07C0E5FF02
:10382000020EDBCF00F0030EDBCF01F0040EDBCF86
:1038300002F0050EDBCF03F0060EDBCF04F0070E1F
:10384000DBCF05F0080EDBCF06F0090EDBCF07F06B
:1038500000500101086F0150096F02500A6F0350B8
:103860000B6F045001010C6F05500D6F06500E6F69
:1038700007500F6F0101085101010E03F4CF01F051
:10388000F3CF00F000500101126F0150136F0101DE
:10389000085101010C03F4CF01F0F3CF00F0005008
:1038A0000101106F0150116F01010B5101010C0357
:1038B000F3CF00F00101135100260050136F0101F6
:1038C0000A5101010D03F3CF01F001500026005011
:1038D0000101136F01010A5101010C03F4CF01F042
:1038E000F3CF00F0010112510026135101220050C4
:1038F000126F0150136F0101095101010D03F4CF43
:1039000003F0F3CF02F002500026035001220050D2
:103910000101126F0150136F0101095101010E03E2
:10392000F3CF00F000500101176F010109510101AF
:103930000C03F4CF01F0F3CF00F000500101156F3C
:103940000150166F0101085101010F03F3CF00F080
:10395000005001011B6F0101085101010D03F4CF5B
:1039600001F0F3CF00F000500101196F01501A6F00
:103970000101146B0101186B0101145101011025A3
:10398000006E0101155101011121016E0101165155
:1039900001011221026E0101175101011321036E71
:1039A0000050106F0150116F0250126F0350136FCF
:1039B0000101185101011025006E01011951010189
:1039C0001121016E01011A5101011221026E010142
:1039D0001B5101011321036E03C0E9FF02C0F4FF74
:1039E00001C0F3FF0050E4CF07F0E4CF06F0E4CFCE
:1039F00005F0E4CF04F0E4CF03F0E4CF02F0E4CF2D
:103A000001F0E4CF00F0E4CFD9FF120000C0E5FFE1
:103A100001C0E5FF04014251D8B4F5D0A3A81DD0E0
:103A2000A4A81BD0010143510101401905E1D1ECCB
:103A300035F00101406BE7D0000E01014325006E17
:103A4000016A040E012200C0E9FF01C0EAFFEFCFC6
:103A50003CF1432B3CC173FFD6D0A4AAD4D071A2B1
:103A600005D001014181D1EC35F0CDD071A405D054
:103A700001014183D1EC35F0C6D071A03ED074CFA6
:103A80003CF1800E0401431101013C1904E10101E4
:103A900041897196B8D001013C5104E03C510401C8
:103AA000431927E101014199719601013C5103E05D
:103AB0000101419702D0010141873CC145F13EC15E
:103AC00046F101013E050101476F600E01014625E7
:103AD000006E016A000E012200C0E9FF01C0EAFF8A
:103AE0003CC1EFFF462B4651800A02E10101466BC3
:103AF0008AD001014199718686D074CF3CF10101D1
:103B000041A919D0800E0401431101013C1911E1B2
:103B1000899AA39A71980101405104E1736AD1EC2A
:103B200035F007D000C473FF010E0101436FA38875
:103B30006AD0718668D001013C510101452701011D
:103B40004651010147191BE1010145510CE146C1F4
:103B50003EF1010141B712D0899AA39A7198736A14
:103B6000D1EC35F00BD00101418541B707D0899ADE
:103B7000A39A7198010E736ED1EC35F044D0010117
:103B8000465101013F1908E101013F5101013E1970
:103B900003E0D1EC35F037D03EC100F0016A004AB5
:103BA000012AE56A800EE56E0150E56E0050E56E73
:103BB000ACEC28F0006E040EE126005001013D6FD0
:103BC000010146190CE11F0E01013C150101476F6F
:103BD000472B472B01013E5101014727479F46C113
:103BE00000F00101462B016A600E0026000E012242
:103BF00000C0E9FF01C0EAFF3CC1EFFF4651800A67
:103C000002E10101466BE4CF01F0E4CF00F01200C5
:103C100000C0E5FF01C0E5FF02C0E5FF03C0E5FF0E
:103C200004C0E5FF05C0E5FF06C0E5FF07C0E5FFEE
:103C300008C0E5FF09C0E5FF0AC0E5FF006A016AA8
:103C4000040E015CD8B0B3D0E80E04014525026E25
:103C5000036A040E032202C0E9FF03C0EAFFEFCFAC
:103C600002F00250FF0A01E19BD004014539E8440B
:103C70001F0B026E2D0E0224036E046A010E042235
:103C800003C0E9FF04C0EAFFEFCF03F0070E4515BC
:103C9000046E010E056E000E066E045006E0E86C20
:103CA000D89005360636010FFCE3076A0550031667
:103CB0000650071603500710D880E866D890036AAC
:103CC00003360350D880E866D890036A0336076A43
:103CD0002B0E0226010E072202C0E9FF07C0EAFFF1
:103CE000EFCF08F008C009F00A6A095005160A501B
:103CF000061605500610D880E866D890056A053685
:103D00000550D880E866D890056A05360350051836
:103D100001E146D0035012E0010E056E045005E0AB
:103D2000E86CD8900536010FFDE30550081202C07B
:103D3000E9FF07C0EAFF08C0EFFF17D002C0E9FFA4
:103D400007C0EAFFEFCF05F0010E066E045005E054
:103D5000E86CD8900636010FFDE3061C051602C07C
:103D6000E9FF07C0EAFF05C0EFFF035003E1036A64
:103D7000032A01D0036A45C404F0E56A0350E56EE6
:103D8000E56A0450E56E000EE56E5E0EE56E600EAF
:103D9000E56EFCEC2FF0070EE126012A01C000F0D1
:103DA0000401452B100E455DD8A04AD7456B005045
:103DB000E4CF0AF0E4CF09F0E4CF08F0E4CF07F055
:103DC000E4CF06F0E4CF05F0E4CF04F0E4CF03F055
:103DD000E4CF02F0E4CF01F0E4CF00F01200D9CF3D
:103DE000E5FFE1CFD9FF00C0E5FF01C0E5FF02C05C
:103DF000E5FF03C0E5FF04C0E5FF05C0E5FF06C021
:103E0000E5FF07C0E5FF08C0E5FF09C0E5FF0AC000
:103E1000E5FF0BC0E5FF0CC0E5FF0DC0E5FF0EC0E0
:103E2000E5FF0FC0E5FF020EDBCF00F0030EDBCF96
:103E300001F0040EDBCF02F0050EDBCF03F0060E1F
:103E4000DBCF04F0070EDBCF05F0080EDBCF06F06A
:103E5000200E076E086A06C009F00A6A0B6A0C6A2F
:103E6000E56AE56AE56A0950E56E0350E56E0250C1
:103E7000E56E0150E56E0050E56E3AEC21F00D6EF6
:103E8000080EE126300E0D263A0E0D5C05E30D50AE
:103E90000E6E270E0E240D6EFF0E07260822800ED2
:103EA00007240E6E0A0E08200F6E0EC0E9FF0FC029
:103EB000EAFF0DC0EFFF0C50E56E0B50E56E0A50A7
:103EC000E56E0950E56E0350E56E0250E56E015057
:103ED000E56E0050E56E6BEC22F0006EF3CF01F062
:103EE000F4CF02F0E9CF03F0080EE12600500110F4
:103EF00002100310D8A4AFD707C000F008C001F02B
:103F000004C002F005C003F000C004F001C005F0D9
:103F1000004A012A800E04260A0E052204C0E9FF89
:103F200005C0EAFFEFCF04F002C0E9FF03C0EAFFDB
:103F300004C0EFFF024A032A000E015C02E1200EDA
:103F4000005CE2E302C0E9FF03C0EAFF000EEF6A93
:103F5000E4CF0FF0E4CF0EF0E4CF0DF0E4CF0CF09F
:103F6000E4CF0BF0E4CF0AF0E4CF09F0E4CF08F09F
:103F7000E4CF07F0E4CF06F0E4CF05F0E4CF04F09F
:103F8000E4CF03F0E4CF02F0E4CF01F0E4CF00F09F
:103F9000E4CFD9FF1200D9CFE5FFE1CFD9FF00C0B0
:103FA000E5FF01C0E5FF02C0E5FF03C0E5FF04C077
:103FB000E5FF05C0E5FF06C0E5FF07C0E5FF08C057
:103FC000E5FF09C0E5FF0AC0E5FF0BC0E5FF0CC037
:103FD000E5FF0DC0E5FF020EDBCF00F0030EDBCFE7
:103FE00001F0040EDBCF02F0050EDBCF03F0060E6E
:103FF000DBCF04F0070EDBCF05F0080EDBCF06F0B9
:10400000090EDBCF07F0D88003AED890086A0836D7
:1040100008500FE0031C0C6E021C0B6E011C0A6E94
:10402000001C096E092A0DE10A2A0BE10B4A0C2A31
:1040300008D000C009F001C00AF002C00BF003C0B4
:104040000CF0D88007AED890006A003600500FE020
:10405000071C0D6E061C036E051C026E041C016E0F
:10406000012A0DE1022A0BE1034A0D2A08D004C0FF
:1040700001F005C002F006C003F007C00DF00D50BE
:10408000E56E0350E56E0250E56E0150E56E0C5092
:10409000E56E0B50E56E0A50E56E0950E56E6BEC6F
:1040A00022F0016EF3CF02F0F4CF03F0E9CF04F079
:1040B000080EE1260050081A085016E0041C076E8E
:1040C000031C066E021C056E011C006E002A04E132
:1040D000052A02E1064A072A07C0E9FF06C0F4FFE5
:1040E00005C0F3FF005007D004C0E9FF03C0F4FF90
:1040F00002C0F3FF0150E4CF0DF0E4CF0CF0E4CFA9
:104100000BF0E4CF0AF0E4CF09F0E4CF08F0E4CFFD
:1041100007F0E4CF06F0E4CF05F0E4CF04F0E4CFFD
:1041200003F0E4CF02F0E4CF01F0E4CF00F0E4CFFD
:10413000D9FF120000C0E5FF01C0E5FF02C0E5FFA6
:1041400003C0E5FF04C0E5FF05C0E5FF006AE80E17
:104150000024016E026A040E022201C0E9FF02C0BF
:10416000EAFFEFCF01F00150FF0A01E171D0013801
:104170000F0B026E036A800E02260F0E032202C08E
:10418000E9FF03C0EAFFEFCF02F0070E0116010EB0
:10419000036E000E046E015006E0E86CD890033602
:1041A0000436010FFCE3056A02500316055004169D
:1041B00003500410D880E866D890036A0336035091
:1041C00024E10038E8441F0B016E026A2D0E01261F
:1041D000010E022201C0E9FF02C0EAFFEFCF03F0A7
:1041E000070E0014046E010E056E045005E0E86C25
:1041F000D8900536010FFDE30550031201C0E9FF19
:1042000002C0EAFF03C0EFFF23D00038E8441F0BD1
:10421000016E026A2D0E0126010E022201C0E9FF85
:1042200002C0EAFFEFCF03F0070E0014046E010E88
:10423000056E045005E0E86CD8900536010FFDE3EB
:10424000051C031601C0E9FF02C0EAFF03C0EFFF2F
:10425000002A100E005CD8A07AD7E4CF05F0E4CF96
:1042600004F0E4CF03F0E4CF02F0E4CF01F0E4CFB8
:1042700000F01200D9CFE5FFE1CFD9FF00C0E5FF84
:1042800001C0E5FF02C0E5FF03C0E5FF04C0E5FF94
:1042900005C0E5FF06C0E5FF07C0E5FF08C0E5FF74
:1042A00009C0E5FF0AC0E5FF020EDBCF00F0030EF8
:1042B000DBCF01F0040EDBCF02F0050EDBCF03F005
:1042C000060EDBCF04F0070EDBCF05F0080EDBCFC8
:1042D00006F0090EDBCF07F0086A0450051006103F
:1042E000071005E1E968F468F368E86847D0096AEF
:1042F0000750800BE8440A6E0A501BE10450042664
:104300000536063607360750035C08E10650025CA6
:1043100005E10550015C02E10450005C06E2D89022
:10432000073206320532043204D0092A09C008F0E7
:10433000DFD70750035C08E10650025C05E1055039
:10434000015C02E10450005C08E30450005E05508B
:10435000015A0650025A0750035AD89007320632C3
:104360000532043208C009F008060950E2E103C032
:10437000E9FF02C0F4FF01C0F3FF0050E4CF0AF0F0
:10438000E4CF09F0E4CF08F0E4CF07F0E4CF06F083
:10439000E4CF05F0E4CF04F0E4CF03F0E4CF02F083
:1043A000E4CF01F0E4CF00F0E4CFD9FF1200D9CF81
:1043B000E5FFE1CFD9FF00C0E5FF01C0E5FF02C086
:1043C000E5FF03C0E5FF04C0E5FF05C0E5FF06C04B
:1043D000E5FF07C0E5FF020EDBCF00F0030EDBCFE9
:1043E00001F0040EDBCF02F000500B0F036E000E45
:1043F0000120046E000E0220E56AF46AF66AF76A8C
:1044000003C0E9FF04C0F3FFA3EC35F00050070F31
:10441000036E000E0120046E000E0220056E005097
:10442000030F066E000E0120076E000E0220E56AE3
:10443000F46AF66AF76A06C0E9FF07C0F3FFA3EC67
:1044400035F0E56AF46AF66AF76A03C0E9FF04C06A
:10445000F3FF0550A3EC35F00050010F036E000E82
:104460000120046E000E0220056E0050020F066E41
:10447000000E0120076E000E0220E56A06C0E9FF6B
:1044800007C0F3FF26EC36F0E56A03C0E9FF04C07D
:10449000F3FF055026EC36F0E56A00C0E9FF01C0E5
:1044A000F3FF025026EC36F0E4CF07F0E4CF06F03D
:1044B000E4CF05F0E4CF04F0E4CF03F0E4CF02F062
:1044C000E4CF01F0E4CF00F0E4CFD9FF120025647F
:1044D0002025640A0000D9CFE5FFE1CFD9FF00C055
:1044E000E5FF01C0E5FF02C0E5FF03C0E5FF04C032
:1044F000E5FF05C0E5FF06C0E5FF07C0E5FF08C012
:10450000E5FF09C0E5FF0AC0E5FF0BC0E5FF0CC0F1
:10451000E5FF0DC0E5FF020EDBCF00F0030EDBCFA1
:1045200001F0040EDBCF02F0050EDBCF03F0060E28
:10453000DBCF04F0070EDBCF05F0080EDBCF06F073
:10454000090EDBCF07F0086A096A0A6A0B6A200EB7
:104550000C6E0350800BE8440D6E005000260136AF
:10456000023603360850082609360A360B360D5037
:10457000D8A4088007500B5C08E106500A5C05E1EE
:104580000550095C02E10450085C09E30450085E30
:104590000550095A06500A5A07500B5A00800C045D
:1045A0000D6E0DC00CF00D50D4E103C0E9FF02C048
:1045B000F4FF01C0F3FF0050E4CF0DF0E4CF0CF0A6
:1045C000E4CF0BF0E4CF0AF0E4CF09F0E4CF08F039
:1045D000E4CF07F0E4CF06F0E4CF05F0E4CF04F039
:1045E000E4CF03F0E4CF02F0E4CF01F0E4CF00F039
:1045F000E4CFD9FF120000C0E5FF01C0E5FF03C012
:10460000E5FF04C0E5FF05C0E5FF06C0E5FF07C004
:10461000E5FF08C0E5FF09C0E5FF0AC0E5FF0BC0E4
:10462000E5FF29C100F02AC101F00101293F01D0B5
:104630002A2B0050E56EC3EC35F0E652076E046A93
:10464000056A066A29C100F02AC101F00101293F6B
:1046500001D02A2B0050E56EC3EC35F0E6520B6A10
:104660000A6E086A0850041205120A5006120B500E
:10467000071229C100F02AC101F00101293F01D030
:104680002A2B0050E56EC3EC35F0E652036E006A4B
:1046900003C001F0E86A03BEFF0E086E096E005009
:1046A000041201500512085006120950071229C1C0
:1046B00000F02AC101F00101293F01D02A2B00504E
:1046C000E56EC3EC35F0E652016A041201500512A2
:1046D0000612071207C0E9FF06C0F4FF05C0F3FF8A
:1046E0000450E4CF0BF0E4CF0AF0E4CF09F0E4CFBC
:1046F00008F0E4CF07F0E4CF06F0E4CF05F0E4CF14
:1047000004F0E4CF03F0E4CF01F0E4CF00F01200B6
:1047100000C0E5FF01C0E5FF02C0E5FF03C0E5FF03
:1047200004C0E5FF01013F5101013E1901E15FD0E5
:104730003FC100F0002A009E600E0024016E026A54
:10474000000E022201C0E9FF02C0EAFFEFCF49F1EB
:104750001F0E010149173FC148F149510101482786
:10476000482B482B489F95EC32F0016E015003E135
:10477000016A012A01D0016A95EC32F00101496F0A
:10478000800E4915026E1F0E4915036E03C004F01A
:1047900003C049F1045003E13EC13FF13BD0015059
:1047A0001BE0025022E095EC32F0006E0101490757
:1047B0000050420A1AE000504E0A03E17AEC2FF052
:1047C00014D00050460A03E110EC36F00ED0005031
:1047D000490A0BE1FF0009D03FC14AF1025003E052
:1047E0005CEC2EF002D0A3EC33F048C13FF10401A1
:1047F0003F510401401906E00101405103E12CEC56
:1048000025F008D089BA06D00101405103E172B207
:10481000D1EC35F0E4CF04F0E4CF03F0E4CF02F0C4
:10482000E4CF01F0E4CF00F01200D9CFE5FFE1CFF3
:10483000D9FF00C0E5FF01C0E5FF02C0E5FF03C0EE
:10484000E5FF04C0E5FF05C0E5FF06C0E5FF07C0C2
:10485000E5FF08C0E5FF0BC0E5FF0CC0E5FF0DC09C
:10486000E5FF020EDBCF00F0030EDBCF01F0040EFC
:10487000DBCF02F0050EDBCF03F0060EDBCF04F03A
:1048800003C0E5FF04C0F4FF00C0E9FF01C0F3FF6F
:104890000250EDEC35F00050020F056E000E0120C5
:1048A000066E000E0220076EE86A04BEFF0E086E58
:1048B00004500C6E0C2608340D6ED8900C360D3654
:1048C0000344E844FC0B0B6E0350E844E844030B3C
:1048D0000C12E56A0BC0F4FF0CC0F6FF0DC0F7FF29
:1048E00005C0E9FF06C0F3FF0750A3EC35F0080E42
:1048F0000026000E01220222E56AF46AF66AF76ACF
:1049000000C0E9FF01C0F3FF0250A3EC35F0E4CF93
:104910000DF0E4CF0CF0E4CF0BF0E4CF08F0E4CFDF
:1049200007F0E4CF06F0E4CF05F0E4CF04F0E4CFE5
:1049300003F0E4CF02F0E4CF01F0E4CF00F0E4CFE5
:10494000D9FF1200D9CFE5FFE1CFD9FF00C0E5FFC5
:1049500001C0E5FF02C0E5FF03C0E5FF04C0E5FFBD
:1049600005C0E5FF06C0E5FF07C0E5FF08C0E5FF9D
:1049700009C0E5FF0AC0E5FF020EDBCF00F0030E21
:10498000DBCF01F0040EDBCF02F0050EDBCF03F02E
:10499000060EDBCF04F0070EDBCF05F00038E8444D
:1049A0001F0B066E076A2F0E0626010E072206C091
:1049B000E9FF07C0EAFFEFCF08F0070E0014096E09
:1049C000010E0A6E095005E0E86CD8900A36010F16
:1049D000FDE30A50081206C0E9FF07C0EAFF08C05D
:1049E000EFFFB00E0024066E076A0A0E072206C00B
:1049F000E9FF07C0EAFF01C0EFFF016AA00E002631
:104A00000A0E0122800E025E070E02160238F00B1B
:104A1000036E070E05160550032600C0E9FF01C00E
:104A2000EAFF03C0EFFFE4CF0AF0E4CF09F0E4CFE0
:104A300008F0E4CF07F0E4CF06F0E4CF05F0E4CFD0
:104A400004F0E4CF03F0E4CF02F0E4CF01F0E4CFD0
:104A500000F0E4CFD9FF120000C0E5FF01C0E5FF80
:104A600002C0E5FF03C0E5FF72A276D0E6EC33F0AA
:104A7000006E005005E10401406B04013F6B6CD0F7
:104A800040C401F000500126E6EC33F0026E00064F
:104A90000250230A1FE1010E005CD8A05BD0E6ECB7
:104AA00033F0026E690A03E13BEC32F053D002505E
:104AB000720A03E1D1EC35F04DD00250730A01E0E7
:104AC00049D0898A7186A38AA398745074507198CA
:104AD000718840D00250430A05E00250420A01E0CA
:104AE00039D001D0008E00C042F100500401006FA7
:104AF000010E0101436F04014051011814E0E6EC7E
:104B000033F0026E01014227000E01014325006EC1
:104B1000036A040E032200C0E9FF03C0EAFF02C0DB
:104B2000EFFF432BE8D7000E01014325006E026A18
:104B3000040E02220101421D036E032A00C0E9FF98
:104B400002C0EAFF03C0EFFF0101432B43C140F164
:104B500001013A6B01C040F4E4CF03F0E4CF02F06E
:104B6000E4CF01F0E4CF00F01200D9CFE5FFE1CFB0
:104B7000D9FF00C0E5FF01C0E5FF02C0E5FF03C0AB
:104B8000E5FF04C0E5FF05C0E5FF06C0E5FF07C07F
:104B9000E5FF020EDBCF00F0030EDBCF01F0040EC9
:104BA000DBCF02F0050EDBCF03F002C006F00650AB
:104BB000046E800A33E100C0E9FF01C0F3FF025038
:104BC0005DEC34F0056EF3CF06F0F4CF07F003C0D0
:104BD000E5FF05C0E9FF06C0F3FF075026EC36F0FD
:104BE00000C0E9FF01C0F3FF02505DEC34F0056E38
:104BF000F3CF06F0F4CF07F0052A02E3064A072AAE
:104C000005C0E5FF06C0F4FF07C0F6FF00C0E9FFDE
:104C100001C0F3FF0250B4EC35F01DD004AA1BD044
:104C2000047A045004E1035063EC36F014D00450CD
:104C3000010A04E1035002EC00F00DD004500F0A09
:104C400004E103500AEC32F006D004500E0A03E1EE
:104C5000035073EC36F0E4CF07F0E4CF06F0E4CF76
:104C600005F0E4CF04F0E4CF03F0E4CF02F0E4CFAA
:104C700001F0E4CF00F0E4CFD9FF120000C0E5FF5F
:104C800001C0E5FF02C0E5FF03C0E5FF04C0E5FF8A
:104C9000006A2F0E0024016E026A010E022201C07A
:104CA000E9FF02C0EAFFEF6A002A020E005CF1E3AE
:104CB000006A0050020DF450026EF3CF01F0E00ED6
:104CC0000124036E000E0220046E03C0E9FF04C03D
:104CD000EAFFEE6AEF6A5B0E0124036E040E022007
:104CE000046E03C0E9FF04C0EAFFEE6AEF6A000E3B
:104CF0000124036E0A0E0220046E03C0E9FF04C003
:104D0000EAFFEE6AEF6A200E0124036E0A0E02200B
:104D1000046E03C0E9FF04C0EAFFEE6AEF6A400ECA
:104D200001260A0E022201C0E9FF02C0EAFFEE6876
:104D30007F0EEF6EA00E0024016E026A0A0E0222A0
:104D400001C0E9FF02C0EAFFEF68002A100E005C14
:104D5000D8A0AFD7AF0EC06EC16A010EC26EC282BC
:104D6000E4CF04F0E4CF03F0E4CF02F0E4CF01F0AD
:104D7000E4CF00F012004320412025642025640A7E
:104D80000000D9CFE5FFE1CFD9FF00C0E5FF01C0AA
:104D9000E5FF02C0E5FF03C0E5FF04C0E5FF05C075
:104DA000E5FF06C0E5FF07C0E5FF08C0E5FF09C055
:104DB000E5FF0AC0E5FF0BC0E5FF0CC0E5FF020EF2
:104DC000DBCF00F0030EDBCF01F0040EDBCF02F0EF
:104DD000050EDBCF03F0060EDBCF04F0070EDBCFB2
:104DE00005F0080EDBCF06F0090EDBCF07F002500E
:104DF0000A6E0150096E0050086E06C00BF007C025
:104E00000CF0FF0E062607220B500C101AE003C010
:104E1000E9FF04C0F3FF055092EC35F00B6E032A56
:104E200002E3044A052A0BC0E5FF08C0E9FF09C0F8
:104E3000F3FF0A5026EC36F0082ADFE3094A0A2A73
:104E4000DCD702C0F4FF01C0F3FF0050E4CF0CF048
:104E5000E4CF0BF0E4CF0AF0E4CF09F0E4CF08F0A0
:104E6000E4CF07F0E4CF06F0E4CF05F0E4CF04F0A0
:104E7000E4CF03F0E4CF02F0E4CF01F0E4CF00F0A0
:104E8000E4CFD9FF1200D9CFE5FFE1CFD9FF00C0B1
:104E9000E5FF01C0E5FF02C0E5FF03C0E5FF04C078
:104EA000E5FF05C0E5FF06C0E5FF07C0E5FF020E10
:104EB000DBCF00F0030EDBCF01F0040EDBCF02F0FE
:104EC000050EDBCF03F040C441F404013F5104015F
:104ED000415F410703C004F0056A030E0426D8B001
:104EE000052A41C406F0076A0750800FF36E05508B
:104EF000800FF35C02E10450065C02E2E8682BD00C
:104F0000020E035C02E2E86A26D003060350E56E57
:104F1000B8EC30F0E652046A0350045C14E204502A
:104F20000024056EE86A0120066EE86A022005C0CA
:104F3000E9FF06C0F3FF92EC35F0042AE56EB8EC09
:104F400030F0E652E9D740C441F404013F51040176
:104F5000415F4107E86AE4CF07F0E4CF06F0E4CF11
:104F600005F0E4CF04F0E4CF03F0E4CF02F0E4CFA7
:104F700001F0E4CF00F0E4CFD9FF1200D9CFE5FF74
:104F8000E1CFD9FF00C0E5FF01C0E5FF02C0E5FFAA
:104F900003C0E5FF04C0E5FF05C0E5FF020EDBCF5F
:104FA00000F0030EDBCF01F0040EDBCF02F0005067
:104FB000020DF450036EF3CF00F05B0E0024046E7C
:104FC000040E0320056E04C0E9FF05C0EAFF01C01E
:104FD000EEFF02C0EFFF000E0024046E0A0E032055
:104FE000056E04C0E9FF05C0EAFFEECF04F0EFCF85
:104FF00005F00150045C016E02500558026E600E0F
:1050000000260A0E032200C0E9FF03C0EAFF01C028
:10501000EEFF02C0EFFFD88002AED89004E3021E7C
:10502000016CD8B4022A0250800F800F02E1030EF7
:10503000015C02E2016A026A0150021007E100C04D
:10504000E9FF03C0EAFF000EEE6AEF6AE4CF05F065
:10505000E4CF04F0E4CF03F0E4CF02F0E4CF01F0BA
:10506000E4CF00F0E4CFD9FF1200D9CFE5FFE1CFC4
:10507000D9FF00C0E5FF01C0E5FF02C0E5FF03C0A6
:10508000E5FF04C0E5FF05C0E5FF06C0E5FF07C07A
:10509000E5FF020EDBCF00F0030EDBCF01F0040EC4
:1050A000DBCF02F0050EDBCF03F0D88001AED89045
:1050B000046A0436045007E0011C066E001C056EED
:1050C000054A062A04D000C005F001C006F0D880C9
:1050D00003AED890006A0036005007E0031C076E4C
:1050E000021C016E014A072A04D002C001F003C06D
:1050F00007F00750E56E0150E56E0650E56E05506D
:10510000E56ED5EC2BF0016EF3CF02F0040EE12634
:105110000050041A04500AE0021C036E011C006EC9
:10512000004A032A03C0F3FF005003D002C0F3FF7C
:105130000150E4CF07F0E4CF06F0E4CF05F0E4CF70
:1051400004F0E4CF03F0E4CF02F0E4CF01F0E4CFC9
:1051500000F0E4CFD9FF1200D9CFE5FFE1CFD9FFAE
:1051600000C0E5FF01C0E5FF02C0E5FF03C0E5FFA9
:1051700004C0E5FF05C0E5FF06C0E5FF020EDBCF7A
:1051800000F0030EDBCF01F0040EDBCF02F0050EC2
:10519000DBCF03F0D88001AED890046A0436045007
:1051A00007E0011C066E001C056E054A062A04D0A5
:1051B00000C005F001C006F0D88003AED89007E328
:1051C000031C016E021C006E004A012A04D002C0BA
:1051D00000F003C001F00150E56E0050E56E06508E
:1051E000E56E0550E56E78EC2BF0006EF3CF01F024
:1051F000040EE12604500AE0011C036E001C026E3E
:10520000024A032A03C0F3FF025003D001C0F3FF98
:105210000050E4CF06F0E4CF05F0E4CF04F0E4CF93
:1052200003F0E4CF02F0E4CF01F0E4CF00F0E4CFEC
:10523000D9FF1200D9CFE5FFE1CFD9FF00C0E5FFCC
:1052400001C0E5FF02C0E5FF03C0E5FF04C0E5FFC4
:1052500005C0E5FF020EDBCF00F0030EDBCF01F04F
:10526000040EDBCF02F0050EDBCF03F029C104F002
:105270002AC105F00101293F01D02A2B0350E56E18
:105280000450E56E7FEC33F0E652E65229C104F09B
:105290002AC105F00101293F01D02A2B0250056ED9
:1052A000E56E0450E56E7FEC33F0E652E65229C11C
:1052B00004F02AC105F00101293F01D02A2B015039
:1052C000056EE56E0450E56E7FEC33F0E652E65273
:1052D00029C104F02AC105F00101293F01D02A2B80
:1052E0000050E56E0450E56E7FEC33F0E652E65276
:1052F000E4CF05F0E4CF04F0E4CF03F0E4CF02F014
:10530000E4CF01F0E4CF00F0E4CFD9FF1200D9CF11
:10531000E5FFE1CFD9FF00C0E5FF01C0E5FF02C016
:10532000E5FF03C0E5FF04C0E5FF05C0E5FF06C0DB
:10533000E5FF020EDBCF00F0030EDBCF01F0040E21
:10534000DBCF02F00101395119E1FBEC22F0036ED1
:10535000F3CF04F0F4CF05F0E9CF06F003C0E5FF8A
:1053600004C0F4FF05C0F6FF06C0F7FF00C0E9FF68
:1053700001C0F3FF0250A3EC35F01ED001013951FA
:10538000010A1AE100C0E9FF01C0F3FF0250C6ECB8
:1053900033F0006EF3CF01F0F4CF02F0E9CF03F069
:1053A0000350E56E0250E56E0150E56E0050E56E6B
:1053B0001AEC29F0040EE126E4CF06F0E4CF05F064
:1053C000E4CF04F0E4CF03F0E4CF02F0E4CF01F047
:1053D000E4CF00F0E4CFD9FF1200D9CFE5FFE1CF51
:1053E000D9FF00C0E5FF01C0E5FF02C0E5FF03C033
:1053F000E5FF04C0E5FF020EDBCF00F0030EDBCFBC
:1054000001F0040EDBCF02F00050070F036E000E18
:105410000120046E000E0220E56E0450E56E03507C
:10542000E56E3CEC30F0030EE1260050230F036ED6
:10543000000E0120046E000E0220E56E0450E56EA1
:105440000350E56E2DEC2CF0030EE1260050330FD7
:10545000036E000E0120046E000E0220E56E045063
:10546000E56E0350E56E19EC2BF0030EE126440EB9
:105470000026000E012202220250E56E0150E56E68
:105480000050E56E19EC2BF0030EE126E4CF04F09A
:10549000E4CF03F0E4CF02F0E4CF01F0E4CF00F07A
:1054A000E4CFD9FF1200D9CFE5FFE1CFD9FF00C08B
:1054B000E5FF01C0E5FF02C0E5FF03C0E5FF04C052
:1054C000E5FF05C0E5FF06C0E5FF020EDBCF00F0FB
:1054D000030EDBCF01F00038E8441F0B026E036AB5
:1054E0002F0E0226010E032202C0E9FF03C0EAFFCD
:1054F000EFCF04F0070E0014056E010E066E055086
:1055000005E0E86CD8900636010FFDE30650041262
:1055100002C0E9FF03C0EAFF04C0EFFFB00E0024A1
:10552000026E036A0A0E032202C0E9FF03C0EAFF0B
:1055300001C0EFFF016AA00E00260A0E012200C082
:10554000E9FF01C0EAFFFF0EEF68E4CF06F0E4CF09
:1055500005F0E4CF04F0E4CF03F0E4CF02F0E4CFB1
:1055600001F0E4CF00F0E4CFD9FF1200D9CFE5FF7E
:10557000E1CFD9FF00C0E5FF01C0E5FF02C0E5FFB4
:1055800003C0E5FF04C0E5FF05C0E5FF06C0E5FF79
:10559000020EDBCF00F0030EDBCF01F0040EDBCFF9
:1055A00002F0050EDBCF03F0060EDBCF04F0070E92
:1055B000DBCF05F0080EDBCF06F0D88003AED89025
:1055C00015E306500A0A12E104C0E9FF05C0EAFF2C
:1055D0002D0EEF6E044A052A031E021E011E006CEA
:1055E00005E1012A03E1022AD8B4032A0650E56E38
:1055F0000550E56E0450E56E0350E56E0250E56E11
:105600000150E56E0050E56EEFEC1EF0070EE1264E
:10561000E4CF06F0E4CF05F0E4CF04F0E4CF03F0EC
:10562000E4CF02F0E4CF01F0E4CF00F0E4CFD9FF03
:105630001200D9CFE5FFE1CFD9FF00C0E5FF01C0DF
:10564000E5FF02C0E5FF03C0E5FF04C0E5FF020E71
:10565000DBCF00F0030EDBCF01F0040EDBCF02F056
:105660000250E56E0150E56E0050E56E3CEC30F006
:10567000030EE1260050010F036E000E0120046EA0
:10568000000E0220E56E0450E56E0350E56E3CEC22
:1056900030F0030EE1260050020F036E000E0120D1
:1056A000046E000E0220E56E0450E56E0350E56EB8
:1056B0003CEC30F0030EE1260F0E0026000E012216
:1056C00002220250E56E0150E56E0050E56E27ECB7
:1056D0002DF0030EE126E4CF04F0E4CF03F0E4CF95
:1056E00002F0E4CF01F0E4CF00F0E4CFD9FF1200E4
:1056F000D9CFE5FFE1CFD9FF00C0E5FF01C0E5FF4D
:1057000002C0E5FF03C0E5FF04C0E5FF05C0E5FFFB
:1057100006C0E5FF020EDBCF00F0030EDBCF01F089
:10572000040EDBCF02F0050EDBCF03F0046A056A3E
:105730000350800BE844066E065011E10250022629
:1057400003360350015C02E10250005C04E2D89091
:105750000332023204D0052A05C004F0E9D7035011
:10576000015C02E10250005C04E30250005E035061
:10577000015AD8900332023204C005F004060550E5
:10578000EEE101C0F3FF0050E4CF06F0E4CF05F0F6
:10579000E4CF04F0E4CF03F0E4CF02F0E4CF01F073
:1057A000E4CF00F0E4CFD9FF1200D9CFE5FFE1CF7D
:1057B000D9FF00C0E5FF01C0E5FF02C0E5FF03C05F
:1057C000E5FF04C0E5FF05C0E5FF06C0E5FF07C033
:1057D000E5FF020EDBCF00F0030EDBCF01F0040E7D
:1057E000DBCF02F0050EDBCF03F0046A056A100E72
:1057F000066E0150800BE844076E0050002601360B
:105800000450042605360750D8A404800350055CD4
:1058100002E10250045C05E30250045E0350055AA5
:1058200000800604076E07C006F00750E2E101C0E1
:10583000F3FF0050E4CF07F0E4CF06F0E4CF05F02B
:10584000E4CF04F0E4CF03F0E4CF02F0E4CF01F0C2
:10585000E4CF00F0E4CFD9FF1200D9CFE5FFE1CFCC
:10586000D9FF00C0E5FF01C0E5FF02C0E5FF03C0AE
:10587000E5FF04C0E5FF020EDBCF00F0030EDBCF37
:1058800001F0040EDBCF02F00050060F036E000E95
:105890000120046E000E0220E56E0450E56E0350F8
:1058A000E56E27EC2DF0030EE12600500C0F036E81
:1058B000000E0120046E000E0220E56E0450E56E1D
:1058C0000350E56E27EC2DF0030EE1260E0E0026A8
:1058D000000E012202220250E56E0150E56E0050DA
:1058E000E56E27EC2DF0030EE126E4CF04F0E4CFC3
:1058F00003F0E4CF02F0E4CF01F0E4CF00F0E4CF16
:10590000D9FF1200D9CFE5FFE1CFD9FF00C0E5FFF5
:1059100001C0E5FF02C0E5FF03C0E5FF04C0E5FFED
:10592000020EDBCF00F0030EDBCF01F0040EDBCF65
:1059300002F0E56AF46A00C0E9FF01C0F3FF02501B
:10594000EDEC35F00050020F036E000E0120046EE6
:10595000000E0220E56AF46AF66AF76A03C0E9FFFE
:1059600004C0F3FFA3EC35F0080E0026000E012260
:105970000222E56AF46AF66AF76A00C0E9FF01C02C
:10598000F3FF0250A3EC35F0E4CF04F0E4CF03F0D2
:10599000E4CF02F0E4CF01F0E4CF00F0E4CFD9FF90
:1059A000120025642025640A000000C0E5FF01C044
:1059B000E5FF02C0E5FF03C0E5FF3FC100F0016A5B
:1059C0004AC102F0036A0250005E0350015AE56AC0
:1059D000800EE56E0150E56E0050E56EACEC28F0EF
:1059E000006E040EE12600064AC101F0430E0AECE7
:1059F00032F0200E0AEC32F0005020E0600E01245C
:105A0000026E036A000E032202C0E9FF03C0EAFF30
:105A1000EFCF02F0E56A0250E56E000EE56E6B0E08
:105A2000E56EBA0EE56EFCEC2FF0050EE126012ABC
:105A30000150800A01E1016A0006DED7E4CF03F0DD
:105A4000E4CF02F0E4CF01F0E4CF00F01200D9CFB0
:105A5000E5FFE1CFD9FF00C0E5FF01C0E5FF02C0CF
:105A6000E5FF03C0E5FF04C0E5FF020EDBCF00F059
:105A7000030EDBCF01F0040EDBCF02F00101395140
:105A800011E1D6EC31F0036EF3CF04F003C0E5FF73
:105A900004C0F4FF00C0E9FF01C0F3FF0250EDECC9
:105AA00035F016D001013951010A12E100C0E9FFB9
:105AB00001C0F3FF02501CEC35F0006EF3CF01F093
:105AC0000150E56E0050E56E7BEC30F0E652E65298
:105AD000E4CF04F0E4CF03F0E4CF02F0E4CF01F030
