:020000040000FA
:100000003EEF2DF0C96E12002EEF29F05CEC15F0DA
:1000100012EC05F0FDD712007BEF2BF0D9CFE5FFF6
:10002000E1CFD9FF00C0E5FF01C0E5FF02C0E5FF59
:1000300003C0E5FF04C0E5FF05C0E5FF06C0E5FF1E
:1000400007C0E5FF08C0E5FF09C0E5FF0AC0E5FFFE
:100050000BC0E5FF0CC0E5FF0DC0E5FF0EC0E5FFDE
:100060000FC0E5FF10C0E5FF11C0E5FF12C0E5FFBE
:1000700013C0E5FF14C0E5FF15C0E5FF16C0E5FF9E
:1000800017C0E5FF18C0E5FF19C0E5FF1AC0E5FF7E
:100090001BC0E5FF1CC0E5FF1DC0E5FF1EC0E5FF5E
:1000A0001FC0E5FF20C0E5FF21C0E5FF22C0E5FF3E
:1000B00023C0E5FF24C0E5FF25C0E5FF020EDBCF2E
:1000C00000F0030EDBCF01F0040EDBCF02F0025094
:1000D000086E0150076E0050066EE56A100EE56E60
:1000E0000850E56E0750E56E0650E56E800EE56E31
:1000F0000A0EE56EA00EE56EFFEC1FF0080EE1267D
:10010000A8CA03F0A9CA04F0AACA05F0ABCA06F04F
:1001100003C007F004C008F005C009F006C00AF0EB
:10012000D8800AAED8900AE30A1E091E081E076C82
:1001300005E1082A03E1092AD8B40A2AA0CA0BF06B
:10014000A1CA0CF0E86A0A01A1BFFF0E0D6E0E6E87
:10015000D890A431106EA3310F6ED89010320F32A8
:10016000A551E840E840C00B1012A541E8403F0B04
:10017000E8BAC009116E126A11BE12680F500B5C0A
:100180000F6E10500C58106E11500D58116E125009
:100190000E58126E800F810F08E1FF0E115C05E111
:1001A000FF0E105C02E1FE0E0F5CD8A04ED0125084
:1001B000800F800F08E1000E115C05E1000E105C5D
:1001C00002E1030E0F5CD8B040D00A340A30166E3C
:1001D0000930156E0830146E0730136EAECA17F072
:1001E000AFCA18F0E86A0A01AFBFFF0E196E800FA0
:1001F000F36E1650800FF35C08E11550195C05E1B1
:100200001450185C02E11350175C1FE30C50156E7C
:1002100015260D34166ED890153616360B44E84464
:10022000FC0B146E0B50E844E844030B15120A0152
:10023000A26B1450A36F1550A46F1650A56FA86B36
:10024000A96BAA6BAB6BB0EF04F00850076E0950B6
:10025000086ED89008320732D890083207320A5018
:10026000E840E840C00B08120A40E8403F0BE8BAFB
:10027000C0090A6A083408300A6E0730096EE86A55
:100280000ABEFF0E0B6E0C6E07C00DF008C00EF01C
:10029000E86A08BEFF0E136EE56E1350E56E0E5051
:1002A000E56E0D50E56E0C50E56E0B50E56E0A5094
:1002B000E56E0950E56E8FEC16F0096EF3CF0AF08B
:1002C000F4CF0BF0E9CF0CF0080EE126AECA0DF02A
:1002D000AFCA0EF0E86A0A01AFBFFF0E136E146ECC
:1002E000E56E1350E56E0E50E56E0D50E56E0C5048
:1002F000E56E0B50E56E0A50E56E0950E56E77EC41
:1003000019F0096EF3CF0AF0080EE126A6CA0BF029
:10031000A7CA0CF0E86A0A01A7BFFF0E156E0C50C1
:10032000196E192615341A6ED89019361A360B44E0
:10033000E844FC0B186E0B50E844E844030B191218
:10034000176AD88006AED890D8B064D109C00BF037
:100350000AC00CF0E86A0ABEFF0E156E800FF36E3D
:100360001250800FF35C08E11150155C05E110504C
:100370000C5C02E10F500B5CD8B024D10650800F0A
:10038000F36E1A50800FF35C08E11950055C05E12B
:100390001850045C02E11750035CD8B0ECD0ACCA32
:1003A0000BF0ADCA0CF0E86A0A01ADBFFF0E156E86
:1003B000166E03500B2604500C22055015220650D1
:1003C00016220B500A01A86F0C50A96F1550AA6F86
:1003D0001650AB6FAECA0BF0AFCA0CF0ACCA15F03A
:1003E000ADCA16F00C50800FF36E1650800FF35C00
:1003F00002E115500B5CD8B0A2D0A8CA1BF0A9CA64
:100400001CF0AACA1DF0ABCA1EF0D8901D30206E99
:100410001C301F6ED89020321F321E50E840E8403A
:10042000C00B20121E40E8403F0BE8BAC009226A08
:100430001F50076E2050086E08340830206E0730B9
:100440001F6EE86A20BEFF0E216E226E07C023F0E9
:1004500008C024F0E86A08BEFF0E256EE56E255040
:10046000E56E2450E56E2350E56E2250E56E215076
:10047000E56E2050E56E1F50E56E8FEC16F01F6E96
:10048000F3CF20F0F4CF21F0E9CF22F0080EE126DF
:100490000BC023F00CC024F0E86A0CBEFF0E256EE2
:1004A000E56E2550E56E2450E56E2350E56E225032
:1004B000E56E2150E56E2050E56E1F50E56E77EC3D
:1004C00019F01F6EF3CF20F0080EE1261F50096EC1
:1004D00020500A6E09C01FF00AC020F0E86A0ABE68
:1004E000FF0E216E226E1250800FF36E2250800F8D
:1004F000F35C08E12150115C05E12050105C02E141
:100500001F500F5C1CE20B50155C0B6E0C50165804
:100510000C6EE86A0CBEFF0E156E166E0B501B5E5D
:100520000C501C5A15501D5A16501E5A1B500A01C9
:10053000A86F1C50A96F1D50AA6F1E50AB6F1A50A8
:10054000800FF36E0A01AB51800FF35C08E1AA51F2
:10055000195C05E1A951185C02E1A851175CD8B0FB
:10056000D8D117500A01A86F1850A96F1950AA6F57
:100570001A50AB6FCED11A50800FF36E0650800F19
:10058000F35C08E10550195C05E10450185C02E1D8
:100590000350175CD8B0BDD10D50035C0B6E0E50EC
:1005A00004580C6E13500558156E14500658166EEC
:1005B0000B500A01A86F0C50A96F1550AA6F165066
:1005C000AB6FA7D1ACCA0BF0ADCA0CF0E86A0A0158
:1005D000ADBFFF0E156E166E0D500B260E500C2281
:1005E00013501522145016220B50035C0B6E0C5046
:1005F00004580C6E15500558156E16500658166E98
:100600000B500A01A86F0C50A96F1550AA6F165015
:10061000AB6F7FD10A1E096CD8B40A2A09C00BF04F
:100620000AC00CF0E86A0ABEFF0E156E166E125074
:10063000800FF36E1650800FF35C08E11550115CCB
:1006400005E10C50105C02E10B500F5CD8B03ED1BC
:100650001A1C166E191C156E181C0C6E171C0B6ECE
:100660000B2A04E10C2A02E1154A162A1650800FC3
:10067000F36E0650800FF35C08E10550155C05E150
:1006800004500C5C02E103500B5CD8B0F8D0ACCA4B
:1006900017F0ADCA18F0E86A0A01ADBFFF0E196E77
:1006A0001A6E1750035C176E18500458186E1950C4
:1006B0000558196E1A5006581A6E17500A01A86F7D
:1006C0001850A96F1950AA6F1A50AB6FAECA17F025
:1006D000AFCA18F0ACCA19F0ADCA1AF01850800FA2
:1006E000F36E1A50800FF35C02E11950175CD8B01A
:1006F000AAD0A8CA1BF0A9CA1CF0AACA1DF0ABCA8E
:100700001EF0D8901D30206E1C301F6ED890203205
:100710001F321E50E840E840C00B20121E40E84047
:100720003F0BE8BAC009216E226A21BE2268221E50
:10073000211E201E1F6C05E1202A03E1212AD8B4C6
:10074000222A1F50076E2050086E08340830206E91
:1007500007301F6EE86A20BEFF0E216E226EE86A27
:1007600008BEFF0E236EE56E2350E56E0850E56E61
:100770000750E56E2250E56E2150E56E2050E56E83
:100780001F50E56E8FEC16F0076EF3CF08F0F4CF34
:100790001FF0E9CF20F0080EE12617C021F018C0A5
:1007A00022F0E86A18BEFF0E236EE56E2350E56E58
:1007B0002250E56E2150E56E2050E56E1F50E56E2B
:1007C0000850E56E0750E56E77EC19F0076EF3CF31
:1007D00008F0080EE126081E076C02E1082A00E175
:1007E0000750096E08500A6EE86A0ABEFF0E076ECF
:1007F000800FF36E1250800FF35C08E11150075C1C
:1008000005E110500A5C02E10F50095C1CE2175030
:10081000195C176E18501A58186EE86A18BEFF0E49
:10082000076E086E17501B2618501C2207501D22F9
:1008300008501E221B500A01A86F1C50A96F1D50A2
:10084000AA6F1E50AB6F0A01AB51800FF36E1650AA
:10085000800FF35C08E11550AA5D05E10C50A95D1D
:1008600002E10B50A85DD8B054D00B500A01A86F1C
:100870000C50A96F1550AA6F1650AB6F4AD0065096
:10088000800FF36E1650800FF35C08E11550055C85
:1008900005E10C50045C02E10B50035CD8B039D088
:1008A0000D500324076E0E500420086E13500520CF
:1008B000096E145006200A6E07500A01A86F0850EE
:1008C000A96F0950AA6F0A50AB6F23D0ACCA07F0CA
:1008D000ADCA08F0E86A0A01ADBFFF0E096E0A6EE4
:1008E00007500D2608500E22095013220A501422D8
:1008F0000D5003260E5004221350052214500622D8
:1009000003500A01A86F0450A96F0550AA6F065042
:10091000AB6FD8900A01AA31046EA931036ED8904A
:1009200004320332AB51E840E840C00B0412AB4143
:10093000E8403F0BE8BAC009056E066A05BE0668C6
:10094000A2510326A3510422A4510522A551062237
:100950000350A26F0450A36F0550A46F0650A56FFB
:10096000E56A100EE56E800EE56E0A0EE56EA00ECD
:10097000E56E0250E56E0150E56E0050E56EFFEC4D
:100980001FF0080EE126E4CF25F0E4CF24F0E4CFF9
:1009900023F0E4CF22F0E4CF21F0E4CF20F0E4CF45
:1009A0001FF0E4CF1EF0E4CF1DF0E4CF1CF0E4CF45
:1009B0001BF0E4CF1AF0E4CF19F0E4CF18F0E4CF45
:1009C00017F0E4CF16F0E4CF15F0E4CF14F0E4CF45
:1009D00013F0E4CF12F0E4CF11F0E4CF10F0E4CF45
:1009E0000FF0E4CF0EF0E4CF0DF0E4CF0CF0E4CF45
:1009F0000BF0E4CF0AF0E4CF09F0E4CF08F0E4CF45
:100A000007F0E4CF06F0E4CF05F0E4CF04F0E4CF44
:100A100003F0E4CF02F0E4CF01F0E4CF00F0E4CF44
:100A2000D9FF120000C0E5FF01C0E5FF02C0E5FFED
:100A300003C0E5FF04C0E5FF05C0E5FF06C0E5FF14
:100A400007C0E5FF08C0E5FF09C0E5FF0AC0E5FFF4
:100A5000C6EC1CF05DEC0FF063EC2AF0006EF3CFF7
:100A600001F0F4CF02F0E9CF03F004017951005E08
:100A70007A51015A7B51025A7C51035A039E3F0E10
:100A8000035C08E1FF0E025C05E1FF0E015C02E180
:100A9000FF0E005CD8B000EF09F063EC2AF0006EA6
:100AA000F3CF01F0F4CF02F0E9CF03F004010251DB
:100AB000046E0351056E0451066E0551E56E065035
:100AC000E56E0550E56E0450E56EE56AE56A030ED5
:100AD000E56EE80EE56E8FEC16F0046EF3CF05F0D0
:100AE000F4CF06F0E9CF07F0080EE126E56AE56AE3
:100AF000030EE56EE80EE56E0750E56E0650E56EF6
:100B00000550E56E0450E56EA9EC1BF0046EF3CFC2
:100B100005F0F4CF06F0E9CF07F0080EE126045007
:100B200000240401796F055001207A6F06500220DD
:100B30007B6F075003207C6F17EC0DF00401003F22
:100B400001D0012B04010151800F7F0F02E1F50E4E
:100B5000005DD8A0C9D00401006B016B0F0E016EBF
:100B6000230E006E800E026EB7EC2AF0036EF3CFF8
:100B700004F0F4CF05F0E9CF06F0E56AE56A040E6B
:100B8000E56EE56A0650E56E0550E56E0450E56ECB
:100B90000350E56E46EC1AF0036EF3CF04F0080E36
:100BA000E1260450E56E0350E56E62EC25F0036E1D
:100BB000F3CF04F0E652E65206C405F007C406F08F
:100BC000E86A040107BFFF0E076E086EE86A04BEFC
:100BD000FF0E096E0A6E0850E56E0750E56E06506E
:100BE000E56E0550E56E0A50E56E0950E56E04505D
:100BF000E56E0350E56E8FEC16F0036EF3CF04F054
:100C0000F4CF05F0E9CF06F0080EE126E56AE56AC3
:100C1000040EE56EE56A0650E56E0550E56E04507B
:100C2000E56E0350E56E77EC19F0036EF3CF04F038
:100C3000080EE126042A0450E56E0350E56E0250CA
:100C4000E56E0150E56E0050E56E66EC29F0050E8C
:100C5000E1260A01BE6B0A01BE51100DF450016E6F
:100C6000F3CF00F0390E0026040E0122800E026E32
:100C7000B7EC2AF0036EF3CF04F0F4CF05F0E9CF20
:100C800006F0E56AE56A040EE56EE56A0650E56E73
:100C90000550E56E0450E56E0350E56E46EC1AF023
:100CA000036EF3CF04F0080EE1260450E56E035006
:100CB000E56E62EC25F0036EF3CF04F0E652E652E7
:100CC0000450E56E0350E56E0250E56E0150E56E8E
:100CD0000050E56E66EC29F0050EE1260A01BE2BF8
:100CE000040EBE5DD8A0B7D7800EE56E0F0EE56E80
:100CF000230EE56E0EEC00F0030EE126D8900F01F6
:100D00002731016E2631006ED89001320032285111
:100D1000E840E840C00B01122841E8403F0BE8BA28
:100D2000C009036A0050020BE840010BE838E844B0
:100D3000F46E0F015451DF0BF410546F0F01265164
:100D4000040BD8A4010E010BE838F46E0F015451C6
:100D5000EF0BF410546FD8900F012731016E26313C
:100D6000006ED890013200322851E840E840C00BB4
:100D700001122841E8403F0BE8BAC009026E036A3D
:100D800002BE0368033403320232013200320334FC
:100D9000033202320132003200500F01556F0A0156
:100DA000BE6B0A01BE51100DF450016EF3CF00F07E
:100DB000390E0026040E0122800EE56E0150E56E0C
:100DC0000050E56E0EEC00F0030EE1260A01BE2B8A
:100DD000040EBE5DE6E3D89004013D31016E3C3166
:100DE000006ED890013200323E51E840E840C00B1E
:100DF00001123E41E8403F0BE8BAC009036A0050C7
:100E0000020BE840010BE838E844F46EBD50DF0BFC
:100E1000F410BD6E3C51040BD8A4010E010BE83850
:100E2000F46EBD50EF0BF410BD6ED8903D31016EE5
:100E30003C31006ED890013200323E51E840E8402B
:100E4000C00B01123E41E8403F0BE8BAC009026EF8
:100E5000036A02BE036803340332023201320032F5
:100E6000033403320232013200320050BE6ED89099
:100E70004D31016E4C31006ED890013200324E512E
:100E8000E840E840C00B01124E41E8403F0BE8BA91
:100E9000C009036A0050020BE840010BE838E8443F
:100EA000F46E6650DF0BF410666E4C51040BD8A440
:100EB000010E010BE838F46E6650EF0BF410666E0D
:100EC000D8904D31016E4C31006ED8900132003215
:100ED0004E51E840E840C00B01124E41E8403F0B44
:100EE000E8BAC009026E036A02BE03680334033223
:100EF0000232013200320334033202320132003254
:100F00000050676ED8905D31016E5C31006ED890F4
:100F1000013200325E51E840E840C00B01125E41F0
:100F2000E8403F0BE8BAC009036A0050020BE840F2
:100F3000010BE838E844F46E0F015D51DF0BF4104B
:100F40005D6F04015C51040BD8A4010E010BE8385D
:100F5000F46E0F015D51EF0BF4105D6FD89004013A
:100F60005D31016E5C31006ED890013200325E510D
:100F7000E840E840C00B01125E41E8403F0BE8BA90
:100F8000C009026E036A02BE0368033403320232F0
:100F90000132003203340332023201320032005097
:100FA0000F015E6FD89004016D31016E6C31006EDF
:100FB000D890013200326E51E840E840C00B011277
:100FC0006E41E8403F0BE8BAC009036A0050020BCB
:100FD000E840010BE838E844F46E0F015751DF0B8D
:100FE000F410576F04016C51040BD8A4010E010BCF
:100FF000E838F46E0F015751EF0BF410576FD8908B
:1010000004016D31016E6C31006ED89001320032F6
:101010006E51E840E840C00B01126E41E8403F0BC2
:10102000E8BAC009026E036A02BE036803340330E3
:10103000076E0230066E0130056E0030046E073414
:10104000073206320532043204500F01586FD8902F
:1010500004015D31036E5C31026ED89003320232BE
:101060005E51E840E840C00B03125E41E8403F0B90
:10107000E8BAC009056AD8904D31056E4C31046E4E
:10108000D890053204324E51E840E840C00B0512BA
:101090004E41E8403F0BE8BAC009076AD8903D319D
:1010A000076E3C31066ED890073206323E51E8405A
:1010B000E840C00B07123E41E8403F0BE8BAC009C8
:1010C000096AD8900F012731096E2631086ED89031
:1010D000093208322851E840E840C00B0912284183
:1010E000E8403F0B0150E56E0050E56E0350E56EA1
:1010F0000250E56E0550E56E0450E56E0750E56E52
:101100000650E56E0950E56E0850E56E000EE56E7E
:101110002D0EE56E040EE56EC1EC27F00D0EE126F6
:10112000010EE56E2EEC2BF0F3CF01F0E652000835
:10113000006E200E0156E86A01BEFF0E026EE56EDB
:101140000250E56E0150E56E0050E56EE56AE56A15
:10115000E56A180EE56E8FEC16F0006EF3CF01F025
:10116000F4CF02F0E9CF03F0080EE1260050100F93
:101170000401026F270E0120036F000E0220046F8E
:10118000000E0320056F020EE56E2EEC2BF0006EB4
:10119000F3CF01F0E652E86A01BEFF0E026EE56E83
:1011A0000250E56E0150E56E0050E56EE56AE56AB5
:1011B000030EE56E000EE56A8FEC16F0006EF3CFBD
:1011C00001F0F4CF02F0E9CF03F0080EE126E56A62
:1011D000E56A200EE56EE56A0350E56E0250E56EA5
:1011E0000150E56E0050E56E77EC19F0006EF3CF1C
:1011F00001F0080EE12600500401066F0150076F50
:10120000E4CF0AF0E4CF09F0E4CF08F0E4CF07F030
:10121000E4CF06F0E4CF05F0E4CF04F0E4CF03F030
:10122000E4CF02F0E4CF01F0E4CF00F01200D9CF18
:10123000E5FFE1CFD9FF00C0E5FF01C0E5FF02C037
:10124000E5FF03C0E5FF04C0E5FF05C0E5FF06C0FC
:10125000E5FF07C0E5FF08C0E5FF09C0E5FF0AC0DC
:10126000E5FF0BC0E5FF0CC0E5FF0DC0E5FF0EC0BC
:10127000E5FF0FC0E5FF10C0E5FF11C0E5FF12C09C
:10128000E5FF13C0E5FF14C0E5FF15C0E5FF16C07C
:10129000E5FF17C0E5FF18C0E5FF19C0E5FF1AC05C
:1012A000E5FF1BC0E5FF1CC0E5FF1DC0E5FF1EC03C
:1012B000E5FF020EDBCF00F0030EDBCF01F0040EE2
:1012C000DBCF02F0050EDBCF03F0060EDBCF04F020
:1012D000070EDBCF05F0080EDBCF06F0090EDBCFE3
:1012E00007F00A0EDBCF08F0096A0A6A02C00DF0A7
:1012F0000D50800A0DE102500A01BD6F0150BC6F14
:101300000050BB6F0A0E016EBB0E006E800E026EA7
:1013100003C0E9FF04C0F3FF05508AEC2DF00B6E0B
:101320000B50D8B4CDEF0CF00B50250A02E0B4EF0F
:101330000CF00C6A0D6A0E6A0F6A106A0A0E116EC2
:10134000126A136A146A200E156E1668176A2B0E3D
:10135000186E032A02E3044A052A03C0E9FF04C009
:10136000F3FF05508AEC2DF0196E250A13E1195090
:10137000E56E0250E56E0150E56E0050E56EF3EC4F
:101380001EF0040EE126094A0A2A032A02E3044A4F
:10139000052ABED71950300A06E1300E156E032A11
:1013A00002E3044A052A03C0E9FF04C0F3FF055025
:1013B0008AEC2DF02D0A06E1010E146E032A02E3D9
:1013C000044A052A03C0E9FF04C0F3FF05508AEC74
:1013D0002DF0200A08E1010E176E200E186E032A68
:1013E00002E3044A052A03C0E9FF04C0F3FF0550E5
:1013F0008AEC2DF02B0A06E1010E176E032A02E398
:10140000044A052A03C0E9FF04C0F3FF05508AEC33
:101410002DF0196E310E195C2BE33A0E195C28E29F
:1014200003C019F004C01AF005C01BF019C0E9FF91
:101430001AC0F3FF1B508AEC2DF01C6E300E1C5CA2
:1014400011E33A0E1C5C0EE213500A0DF3CF1DF0AF
:101450001D501C26D00E1C24136E192A02E31A4AB2
:101460001B2AE4D719C003F01AC004F01BC005F012
:1014700003C0E9FF04C0F3FF05508AEC2DF02E0AEB
:101480002DE1032A02E3044A052A166A03C019F073
:1014900004C01AF005C01BF019C0E9FF1AC0F3FF21
:1014A0001B508AEC2DF01C6E300E1C5C11E33A0EC2
:1014B0001C5C0EE216500A0DF3CF1DF01D501C26C9
:1014C000D00E1C24166E192A02E31A4A1B2AE4D7EE
:1014D00019C003F01AC004F01BC005F003C0E9FFF7
:1014E00004C0F3FF05508AEC2DF0196E6C0A07E179
:1014F000010E0C6E032A02E3044A052A09D0195092
:10150000680A06E1010E0E6E032A02E3044A052A68
:1015100003C0E9FF04C0F3FF05508AEC2DF0750A03
:1015200006E1010E106E032A02E3044A052A03C0F5
:10153000E9FF04C0F3FF05508AEC2DF0196E730A21
:1015400005E1010E0D6E200E156E3FD01950780A80
:1015500003E1100E116E39D01950580A05E1100E32
:10156000116E010E126E31D01950630A02E1116A38
:101570002CD019506F0A03E1080E116E26D01950B5
:10158000660A03E1010E0F6E20D01950640A1DE0B7
:101590001950690A1AE0105005E0FF0E03260422D4
:1015A000052213D01950E56E0250E56E0150E56E2C
:1015B0000050E56EF3EC1EF0040EE126094A0A2AFB
:1015C000032A02E3044A052AA3D60D5021E006505F
:1015D000030F0D6E000E0720196E000E08201A6E04
:1015E0000DC006F019C007F01AC008F0FD0E0D2658
:1015F000FF0E19221A220DC0E9FF19C0F3FF1A507D
:101600003EEC2CF00D6EF3CF19F0F4CF1AF0FDD0B4
:101610000F500DE0000E1A6E1A0E196E220E0D6E8E
:10162000040E0626000E072208221668EED0166861
:101630000C5023E00650040F0C6E000E07200F6EB6
:10164000000E08201B6E0CC006F00FC007F01BC078
:1016500008F0FC0E0C26FF0E0F221B220CC0E9FF27
:101660000FC0F3FF1B50C4EC2BF00C6EF3CF0FF048
:10167000F4CF1BF0E9CF1CF067D00E502FE00650DE
:10168000020F0E6E000E07201D6E000E08201E6E4B
:101690000EC006F01DC007F01EC008F0FE0E0E269C
:1016A000FF0E1D221E220EC0E9FF1DC0F3FF1E50BB
:1016B000FDEC2CF00E6E0EC00CF00F6A1B6A1C6A5B
:1016C00011500A0A03E11050D8B43ED00C500E6EEF
:1016D0000EC00CF00F6A1B6A1C6A36D00650020F4F
:1016E0000E6E000E07201D6E000E08201E6E0EC02E
:1016F00006F01DC007F01EC008F0FE0E0E26FF0EFD
:101700001D221E220EC0E9FF1DC0F3FF1E50FDEC7E
:101710002CF00E6EF3CF1DF00EC00CF01DC00FF0BC
:10172000E86A1DBEFF0E1B6E1C6E11500A0A02E114
:1017300010500AE00C500E6E0F501D6E0EC00CF0D3
:101740001DC00FF01B6A1C6A040E196E2A0E0D6E66
:10175000800E1A6E1150D8B440D0105013E01150C2
:10176000E56E040EE56E2A0EE56E1C50E56E1B500C
:10177000E56E0F50E56E0C50E56E9BEC18F0070E11
:10178000E12612D01150E56E040EE56E2A0EE56ECC
:101790001C50E56E1B50E56E0F50E56E0C50E56E6B
:1017A000F8EC23F0070EE12617502FE00DC0E9FFFB
:1017B00019C0F3FF1A508AEC2DF02D0A26E0FF0E17
:1017C0000D2619221A2218C0E5FF0DC0E9FF19C025
:1017D000F3FF1A5013EC2EF018D00CC0E5FF0DC02B
:1017E000E9FF19C0F3FF1A5013EC2EF00D50010F52
:1017F0000C6E000E19200E6E000E1A20E56A0CC049
:10180000E9FF0EC0F3FF13EC2EF00DC00CF019C071
:101810000EF01AC00FF013C010F0105010E00CC002
:10182000E9FF0EC0F3FF0F508AEC2DF0176E175032
:1018300006E00C2A02E30E4A0F2A1006EED710C06B
:1018400013F014501EE109C00CF00AC00EF010C0D5
:101850000FF00F5010E01550E56E0250E56E01508C
:10186000E56E0050E56EF3EC1EF0040EE1260C4A26
:101870000E2A0F06EED70CC009F00EC00AF00FC0FA
:1018800013F016C00CF00DC00DF019C00EF01AC008
:101890000FF009C010F00AC015F00DC0E9FF0EC02E
:1018A000F3FF0F508AEC2DF0166E1650D8B43ED0D0
:1018B0000CC016F0176A161E171E1650171005E0FA
:1018C0000CC016F00C06165031E00DC0E9FF0EC03A
:1018D000F3FF0F508AEC2DF0116E125010E01150F2
:1018E000E56EBAEC2CF0166EE652165004E0DF0EF0
:1018F0001114166E02D011C016F016C011F011505E
:10190000E56E0250E56E0150E56E0050E56EF3ECB9
:101910001EF0040EE1260D2A02E30E4A0F2A104A99
:10192000152A1350D8B4B9D71306B7D710C009F089
:1019300015C00AF014502BE010C00CF015C00DF0CB
:1019400013C00EF00E501FE0200EE56E0250E56E43
:101950000150E56E0050E56EF3EC1EF0040EE1263A
:101960000C4A0D2A0E06EED70B50E56E0250E56EBE
:101970000150E56E0050E56EF3EC1EF0040EE1261A
:10198000094A0A2A04D00CC009F00DC00AF0032A43
:1019900002E3044A052A88EF09F00AC0F3FF095060
:1019A000E4CF1EF0E4CF1DF0E4CF1CF0E4CF1BF039
:1019B000E4CF1AF0E4CF19F0E4CF18F0E4CF17F039
:1019C000E4CF16F0E4CF15F0E4CF14F0E4CF13F039
:1019D000E4CF12F0E4CF11F0E4CF10F0E4CF0FF039
:1019E000E4CF0EF0E4CF0DF0E4CF0CF0E4CF0BF039
:1019F000E4CF0AF0E4CF09F0E4CF08F0E4CF07F039
:101A0000E4CF06F0E4CF05F0E4CF04F0E4CF03F038
:101A1000E4CF02F0E4CF01F0E4CF00F0E4CFD9FF4F
:101A200012003C4E4F20464C4F41543E000000C037
:101A3000E5FF01C0E5FF02C0E5FF03C0E5FF04C00C
:101A4000E5FF05C0E5FF06C0E5FF07C0E5FF08C0EC
:101A5000E5FF09C0E5FF0AC0E5FF0BC0E5FF0CC0CC
:101A6000E5FF006A016A026A040E025CD8B0E8D1A0
:101A700001C003F0012A100E035CD8B0E1D10401CB
:101A8000162B100E165D01E3166B04011639E8449F
:101A90001F0B036E046AFE0E0326040E042203C00D
:101AA000E9FF04C0EAFFEFCF03F0070E1615046E3E
:101AB000010E056E000E066E045006E0E86CD8902C
:101AC00005360636010FFCE3076A0350051607507A
:101AD000061605500610D880E866D890056A0536C7
:101AE0000550D8A4C1D704011651020DF450046E5C
:101AF000F3CF03F0E00E0324056E000E0420066E03
:101B000005C0E9FF06C0EAFFEECF05F0EFCF06F013
:101B1000040113A19DD0000E0324076E0A0E0420B9
:101B2000086E07C0E9FF08C0EAFFEECF07F0EFCF6D
:101B300008F00650800FF36E0850800FF35C02E14E
:101B40000750055C03E2056A066A60D0200E032692
:101B50000A0E042203C0E9FF04C0EAFFEECF03F03F
:101B6000EFCF04F00450800FF36E0650800FF35C4B
:101B700002E10550035C04E205683F0E066E46D0A4
:101B80000750055C096E085006580A6EE86A0ABEDE
:101B9000FF0E0B6EE56E0B50E56E0A50E56E0950B8
:101BA000E56EE56AE56A400EE56E000EE56A8FECCB
:101BB00016F0096EF3CF0AF0F4CF0BF0E9CF0CF07A
:101BC000080EE1260750035C076E08500458086EA3
:101BD000E86A08BEFF0E036EE56E0350E56E08501E
:101BE000E56E0750E56E0C50E56E0B50E56E0A5041
:101BF000E56E0950E56EA9EC1BF0036EF3CF04F01F
:101C0000080EE1260350056E0450066E04011251C1
:101C1000800FF36E0650800FF35C02E10550115DFA
:101C200003E3056A066A14D004011151FF08036E2C
:101C30003F0E1255046E0650800FF36E0450800F55
:101C4000F35C02E10350055C03E305683F0E066E9A
:101C500004011651020DF450046EF3CF03F0D60EBA
:101C60000326040E042203C0E9FF04C0EAFFEECFFE
:101C700003F0EFCF04F00350055C036E04500658E8
:101C8000046ED88004AED89004E3041E036CD8B46C
:101C9000042A022A04011251800FF36E0450800FAF
:101CA000F35C02E10350115DD8B0DED60401165199
:101CB000020DF450086EF3CF07F0D60E0726040E7F
:101CC000082207C0E9FF08C0EAFF05C0EEFF06C012
:101CD000EFFF040113A55AD004011651020DF45070
:101CE000086EF3CF07F0400E0724096E0A0E082095
:101CF0000A6E09C0E9FF0AC0EAFFEECF0BF0EFCF92
:101D00000CF00B500C10D8B441D0B60E0726040EC0
:101D1000082207C0E9FF08C0EAFFEECF07F0EFCFC7
:101D200008F00750055C036E08500658046E031057
:101D30001CE00450800F800F02E1010E035C076A73
:101D400007360C50800F800F02E1010E0B5C0B6A0E
:101D50000B3607500B1809E109C0E9FF0AC0EAFF7A
:101D600003C0EEFF04C0EFFF7FD604011651020D41
:101D7000F450046EF3CF03F0400E03260A0E042243
:101D800003C0E9FF04C0EAFFEE6AEF6A040113A38F
:101D900043D000500EE100C003F0002A046A170E81
:101DA0000326040E042203C0E9FF04C0EAFF420E2A
:101DB000EF6E00C003F0002A046A170E0326040E1B
:101DC0000422640E04011625076E03C0E9FF04C057
:101DD000EAFF07C0EFFF00C003F0002A046A170EF5
:101DE0000326040E04220650076E03C0E9FF04C058
:101DF000EAFF07C0EFFF00C003F0002A046A170ED5
:101E00000326040E04220550076E03C0E9FF04C038
:101E1000EAFF07C0EFFF28D616C403F00650E56EB0
:101E20000550E56EE56A0350E56E000EE56E3F0E67
:101E3000E56EF20EE56EC1EC27F0070EE12614D632
:101E400002C001F000501DE0040113A31AD000C02D
:101E500002F0002A036A170E0226040E032202C0B3
:101E6000E9FF03C0EAFF0A0EEF6E0050E56E800E38
:101E7000E56E040EE56E170EE56E81EC20F0040EA3
:101E8000E1260150E4CF0CF0E4CF0BF0E4CF0AF0F0
:101E9000E4CF09F0E4CF08F0E4CF07F0E4CF06F098
:101EA000E4CF05F0E4CF04F0E4CF03F0E4CF02F098
:101EB000E4CF01F0E4CF00F0120000C0E5FF01C064
:101EC000E5FF02C0E5FF03C0E5FF04C0E5FF05C074
:101ED000E5FF06C0E5FF07C0E5FF08C0E5FF09C054
:101EE000E5FF0AC0E5FFC2A204D00401145170EF5F
:101EF00011F004011551D8B41BD104011451020D85
:101F0000F450016EF3CF00F0E00E0026000E012227
:101F100000C0E9FF01C0EAFFEECF00F0EFCF01F013
:101F2000800E1425026E036A0A0E032202C0E9FF26
:101F300003C0EAFFEFCF02F00250FF0A01E152D0E6
:101F400002380F0B036E920E0324046E056A0F0E07
:101F50000522066A920E03260F0E062203C0E9FF31
:101F600006C0EAFFEFCF03F0070E0214066E010E63
:101F7000076E065005E0E86CD8900736010FFDE3C8
:101F8000071C066E031604C0E9FF05C0EAFF03C084
:101F9000EFFF02380F0B036E890E0324046E056AEF
:101FA0000F0E0522066A890E03260F0E062203C0B5
:101FB000E9FF06C0EAFFEFCF03F0070E0214066E3A
:101FC000010E076E065005E0E86CD8900736010F49
:101FD000FDE3071C066E031604C0E9FF05C0EAFF17
:101FE00003C0EFFF04011451020DF450046EF3CF4F
:101FF00003F0E00E0326000E042201340130066EC9
:102000000030056E063406320532063406320532DB
:102010000550005C056E06500158066EC3CF07F0F0
:10202000086A0750052608500622C4CF07F0086A40
:1020300007500A6E096A095005260A50062203C095
:10204000E9FF04C0EAFF05C0EEFF06C0EFFF040190
:102050001051010A01E06AD004011451020DF4503C
:10206000046EF3CF03F0E00E0324056E000E04208F
:10207000066E05C0E9FF06C0EAFFEECF00F0EFCF25
:1020800001F0000E03260A0E042203C0E9FF04C07B
:10209000EAFFEECF05F0EFCF06F09C0E0526D8A0A4
:1020A00006060150800FF36E0650800FF35C02E1CC
:1020B0000550005C0EE20050640F056E000E01201A
:1020C000066E03C0E9FF04C0EAFF05C0EEFF06C0CC
:1020D000EFFF04011451020DF450046EF3CF03F02E
:1020E000200E03260A0E042203C0E9FF04C0EAFF03
:1020F000EECF05F0EFCF06F0640E0526D8B0062A25
:102100000650800FF36E0150800FF35C02E1005027
:10211000055C0CE29C0E0026D8A0010603C0E9FF76
:1021200004C0EAFF00C0EEFF01C0EFFF0401156B21
:102130000401142B100E145D01E3146B0401143917
:10214000E8441F0B006E016AFE0E0026040E0122F9
:1021500000C0E9FF01C0EAFFEFCF00F0070E141541
:10216000016E010E036E000E046E015006E0E86C75
:10217000D89003360436010FFCE3056A00500316BD
:102180000550041603500410D880E866D890036AFE
:1021900003360350D8A4A2D0900E04011425006E7B
:1021A000016A0A0E012200C0E9FF01C0EAFFEFCF79
:1021B00000F00044E844FC0B016E0128C26E800E62
:1021C0001425006E016A0A0E012200C0E9FF01C059
:1021D000EAFFEFCF02F00250FF0A01E17BD00238A4
:1021E0000F0B006E920E0024016E036A0F0E032285
:1021F000046A920E00260F0E042200C0E9FF04C0FC
:10220000EAFFEFCF00F0070E0214046E010E056E18
:10221000045005E0E86CD8900536010FFDE3055049
:10222000001201C0E9FF03C0EAFF00C0EFFF380E53
:10223000006E0F0E016E02380F0B036E046A03501E
:10224000002604500122380E056E0F0E066E055052
:1022500003260650042203C0E9FF04C0EAFFEFCFC3
:1022600003F0070E0216010E046E025005E0E86C42
:10227000D8900436010FFDE30450031200C0E9FFBB
:1022800001C0EAFF03C0EFFF0F014583000000001B
:1022900045930F0144930BC0E5FFF2CF0BF0F29E84
:1022A0004481000000000000000000000000000069
:1022B000000000000000000000000000000000001E
:1022C0000000000000000000000044910BBEF28EF0
:1022D000E4CF0BF0C282010E0401156F040114510A
:1022E000E4CF0AF0E4CF09F0E4CF08F0E4CF07F040
:1022F000E4CF06F0E4CF05F0E4CF04F0E4CF03F040
:10230000E4CF02F0E4CF01F0E4CF00F01200D9CF27
:10231000E5FFE1CFD9FF00C0E5FF01C0E5FF02C046
:10232000E5FF03C0E5FF04C0E5FF05C0E5FF06C00B
:10233000E5FF07C0E5FF08C0E5FF09C0E5FF0AC0EB
:10234000E5FF0BC0E5FF020EDBCF00F0030EDBCF95
:1023500001F0040EDBCF02F0036A046A8DEC2AF070
:10236000056EFE0A01E063D008EC26F08DEC2AF041
:10237000066E06500AE00650010A19E00650020AED
:1023800028E006500A0A37E040D00050060F076EDA
:10239000000E0120086E000E022007C0E9FF08C0F1
:1023A000F3FFFDEC2CF0036EF3CF04F02ED00050C1
:1023B0000C0F076E000E0120086E000E022007C0F1
:1023C000E9FF08C0F3FFFDEC2CF0036EF3CF04F03F
:1023D0001CD000500E0F076E000E0120086E000E7C
:1023E000022007C0E9FF08C0F3FFFDEC2CF0036EEC
:1023F000F3CF04F00AD000C0E9FF01C0F3FF0250A0
:10240000FDEC2CF0036EF3CF04F00450E56E0350A6
:10241000E56EE56A0650E56E000EE56E4C0EE56E63
:10242000080EE56EC1EC27F0070EE126A1D005509D
:102430000CE00550010A32E00550020A01E157D0D4
:1024400005500A0A01E17CD093D00050060F056EBA
:10245000000E0120066E000E0220076E8DEC2AF0A1
:102460000B6E0A6AE56A0BC0F4FF05C0E9FF06C0FF
:10247000F3FF0750E5EC2DF08DEC2AF0096A0A26EF
:1024800009500B220AC0E5FF0BC0F4FF05C0E9FFAD
:1024900006C0F3FF0750E5EC2DF06AD000500C0F9A
:1024A000056E000E0120066E000E0220076E8DECF8
:1024B0002AF00B6E0A6AE56A0BC0F4FF05C0E9FF5B
:1024C00006C0F3FF0750E5EC2DF08DEC2AF0096A09
:1024D0000A2609500B220AC0E5FF0BC0F4FF05C015
:1024E000E9FF06C0F3FF0750E5EC2DF041D00050A6
:1024F0000E0F056E000E0120066E000E0220076E04
:102500008DEC2AF00B6E0A6AE56A0BC0F4FF05C079
:10251000E9FF06C0F3FF0750E5EC2DF08DEC2AF043
:10252000096A0A2609500B220AC0E5FF0BC0F4FF16
:1025300005C0E9FF06C0F3FF0750E5EC2DF018D009
:102540008DEC2AF0046E036A8DEC2AF0066A0326ED
:10255000065004220450E56E0350E56E0250E56E0D
:102560000150E56E0050E56E66EC29F0050EE1269F
:10257000E4CF0BF0E4CF0AF0E4CF09F0E4CF08F0A9
:10258000E4CF07F0E4CF06F0E4CF05F0E4CF04F0A9
:10259000E4CF03F0E4CF02F0E4CF01F0E4CF00F0A9
:1025A000E4CFD9FF120000C0E5FF01C0E5FF02C083
:1025B000E5FF03C0E5FF04C0E5FF06C0E5FF8DECC5
:1025C0002AF0006E330A29E18DEC2AF0016A026ECE
:1025D0008DEC2AF0046A0126045002220150020BFD
:1025E000E840010BE838E844F46EBD50DF0BF4100E
:1025F000BD6E0150010B010BE838F46EBD50EF0BBE
:10260000F410BD6ED8900230046E0130036ED89085
:10261000043203320350BE6E01D10050340A2BE164
:102620008DEC2AF0036A046E8DEC2AF0066A03240E
:10263000016E06500420026E0150020BE840010BAF
:10264000E838E844F46E6650DF0BF410666E015013
:10265000010B010BE838F46E6650EF0BF410666E58
:10266000D8900230046E0130036ED89004320332E9
:102670000350676ED3D00050350A2DE18DEC2AF05F
:10268000036A046E8DEC2AF0066A0324016E06507C
:102690000420026E0150020BE840010BE838E844C8
:1026A000F46E0F015D51DF0BF4105D6F0150010BF3
:1026B000010BE838F46E5D51EF0BF4105D6FD890AC
:1026C0000230046E0130036ED8900432033203509E
:1026D0000F015E6FA3D00050360A2DE18DEC2AF079
:1026E000036A046E8DEC2AF0066A0324016E06501C
:1026F0000420026E0150020BE840010BE838E84468
:10270000F46E0F015751DF0BF410576F0150010B9E
:10271000010BE838F46E5751EF0BF410576FD89057
:102720000230046E0130036ED8900432033203503D
:102730000F01586F73D000503C0A2BE18DEC2AF04A
:10274000036A046E8DEC2AF0066A0324016E0650BB
:102750000420026E0150020BE840010BE838E84407
:10276000F46E0F015451DF0BF410546F0150010B44
:10277000010BE838F46E5451EF0BF410546FD890FD
:1027800002320132D8900232013201500F01556FEE
:1027900045D00050640A0BE1800EE56E0F0EE56E29
:1027A000230EE56E87EC11F0030EE12637D00050C2
:1027B000650A0BE1800EE56E040EE56E390EE56EDE
:1027C00087EC11F0030EE12629D00050660A0BE1D8
:1027D000800EE56E040EE56E490EE56E87EC11F095
:1027E000030EE1261BD00050670A0BE1800EE56E58
:1027F000040EE56E590EE56E87EC11F0030EE1262E
:102800000DD00050680A0AE1800EE56E040EE56EF8
:10281000690EE56E87EC11F0030EE126E4CF06F0B9
:10282000E4CF04F0E4CF03F0E4CF02F0E4CF01F012
:10283000E4CF00F01200800EE56E0A0EE56E200E69
:10284000E56E5AEC26F0030EE126800EE56E0A0EC8
:10285000E56E000EE56E5AEC26F0030EE126800EC2
:10286000E56E0A0EE56E220EE56E5AEC26F0030EBA
:10287000E126800EE56E0A0EE56E020EE56E5AEC5C
:1028800026F0030EE126800EE56E0A0EE56E240E9C
:10289000E56E5AEC26F0030EE126800EE56E0A0E78
:1028A000E56E040EE56E5AEC26F0030EE126800E6E
:1028B000E56E0A0EE56E260EE56E5AEC26F0030E66
:1028C000E126800EE56E0A0EE56E060EE56E5AEC08
:1028D00026F0030EE126800EE56E0A0EE56E280E48
:1028E000E56E5AEC26F0030EE126800EE56E0A0E28
:1028F000E56E080EE56E5AEC26F0030EE126800E1A
:10290000E56E0A0EE56E2A0EE56E5AEC26F0030E11
:10291000E126800EE56E0A0EE56E0A0EE56E5AECB3
:1029200026F0030EE126800EE56E0A0EE56E2C0EF3
:10293000E56E5AEC26F0030EE126800EE56E0A0ED7
:10294000E56E0C0EE56E5AEC26F0030EE126800EC5
:10295000E56E0A0EE56E2E0EE56E5AEC26F0030EBD
:10296000E126800EE56E0A0EE56E0E0EE56E5AEC5F
:1029700026F0030EE126800EE56E0A0EE56E300E9F
:10298000E56E5AEC26F0030EE126800EE56E0A0E87
:10299000E56E100EE56E5AEC26F0030EE126800E71
:1029A000E56E0A0EE56E320EE56E5AEC26F0030E69
:1029B000E126800EE56E0A0EE56E120EE56E5AEC0B
:1029C00026F0030EE126800EE56E0A0EE56E340E4B
:1029D000E56E5AEC26F0030EE126800EE56E0A0E37
:1029E000E56E140EE56E5AEC26F0030EE126800E1D
:1029F000E56E0A0EE56E360EE56E5AEC26F0030E15
:102A0000E126800EE56E0A0EE56E160EE56E5AECB6
:102A100026F0030EE126800EE56E0A0EE56E380EF6
:102A2000E56E5AEC26F0030EE126800EE56E0A0EE6
:102A3000E56E180EE56E5AEC26F0030EE126800EC8
:102A4000E56E0A0EE56E3A0EE56E5AEC26F0030EC0
:102A5000E126800EE56E0A0EE56E1A0EE56E5AEC62
:102A600026F0030EE126800EE56E0A0EE56E3C0EA2
:102A7000E56E5AEC26F0030EE126800EE56E0A0E96
:102A8000E56E1C0EE56E5AEC26F0030EE126800E74
:102A9000E56E0A0EE56E3E0EE56E5AEC26F0030E6C
:102AA000E126800EE56E0A0EE56E1E0EE56E5AEC0E
:102AB00026F0030EE126120000C0E5FF01C0E5FF8D
:102AC00002C0E5FF03C0E5FF05C0E5FF4BEC2EF0BB
:102AD00094928B9263EC2AF0F3CF01F0F4CF02F0E2
:102AE000E9CF03F0100F0401796F270E01207A6FF0
:102AF000000E02207B6F000E03207C6FBD9ABD98F4
:102B0000BE6A669A6698676A0F015D9B5D990F01C0
:102B10005E6B0F01579B57990F01586B9394B96ADD
:102B2000B9820C0EBD6E9396636A6380666E939A4B
:102B30000F015D6F93900F01576F0F01549B5499D4
:102B40000F01556B929A92909296929292980F01E1
:102B5000546F89868982899A89807CEC1FF09284DF
:102B6000800E006E0F0E016E0F0E036E380E0026E3
:102B700003500122800E026E0F0E036E800E005E67
:102B80000350015A0F0E056E380E0226055003221F
:102B90000F0E056E800E025E0550035A02C0E9FF5B
:102BA00003C0EAFFEFCF02F0028400C0E9FF01C0DA
:102BB000EAFF02C0EFFF020EE56E000EE56A95EC3B
:102BC00023F0E652E6529488820E006E0F0E016EDC
:102BD0000F0E036E380E0026035001220F0E036EF7
:102BE000800E005E0350015A820E026E0F0E036EBD
:102BF0000F0E056E380E0226055003220F0E056ECD
:102C0000800E025E0550035A02C0E9FF03C0EAFFCE
:102C1000EFCF02F0028800C0E9FF01C0EAFF02C066
:102C2000EFFF100EE56E010EE56E95EC23F0E65217
:102C3000E652948A820E006E0F0E016E0F0E036E26
:102C4000380E0026035001220F0E036E800E005E28
:102C50000350015A820E026E0F0E036E0F0E056EA8
:102C6000380E0226055003220F0E056E800E025EFE
:102C70000550035A02C0E9FF03C0EAFFEFCF02F09C
:102C8000028A00C0E9FF01C0EAFF02C0EFFF110E97
:102C9000E56E020EE56E95EC23F0E652E652800EEC
:102CA000E56E0F0EE56E230EE56EB5EC25F0030E16
:102CB000E1260A01BE6B0A01BE51100DF450016EEF
:102CC000F3CF00F0390E0026040E0122800EE56ECF
:102CD0000150E56E0050E56EB5EC25F0030EE126DF
:102CE0000A01BE2B040EBE5DE6E332EC2EF0E4CF0B
:102CF00005F0E4CF03F0E4CF02F0E4CF01F0E4CF3D
:102D000000F0120043522025642025642025642011
:102D100025642025640A0000430025630000D9CF04
:102D2000E5FFE1CFD9FF00C0E5FF01C0E5FF02C02C
:102D3000E5FF03C0E5FF04C0E5FF05C0E5FF06C0F1
:102D4000E5FF07C0E5FF020EDBCF00F0030EDBCF8F
:102D500001F0040EDBCF02F0050EDBCF03F0060E10
:102D6000DBCF04F0070EDBCF05F0080EDBCF06F05B
:102D7000090EDBCF07F0005004018A6F01508B6F02
:102D800002508C6F03508D6F045004018E6F0550FC
:102D90008F6F0650906F0750916F04018A510401A4
:102DA0009003F4CF01F0F3CF00F000500401F86F6E
:102DB0000150F96F04018A5104018E03F4CF01F030
:102DC000F3CF00F000500401F66F0150F76F0401DB
:102DD0008D5104018E03F3CF00F00401F951002658
:102DE0000050F96F04018C5104018F03F3CF01F0FF
:102DF0000150002600500401F96F04018C510401B8
:102E00008E03F4CF01F0F3CF00F00401F851002657
:102E1000F95101220050F86F0150F96F04018B51F4
:102E200004018F03F4CF03F0F3CF02F00250002629
:102E30000350012200500401F86F0150F96F0401A2
:102E40008B5104019003F3CF00F000500401FD6F9B
:102E500004018B5104018E03F4CF01F0F3CF00F095
:102E600000500401FB6F0150FC6F04018A51040102
:102E70009103F3CF00F000500A01B36F04018A51AF
:102E800004018F03F4CF01F0F3CF00F000500A01EA
:102E9000B16F0150B26F0401FA6B0A01B06B04010B
:102EA000FA510401F625006E0401FB510401F721DB
:102EB000016E0401FC510401F821026E0401FD5170
:102EC0000401F921036E0050F66F0150F76F0250B4
:102ED000F86F0350F96F0A01B0510401F625006E36
:102EE0000A01B1510401F721016E0A01B251040136
:102EF000F821026E0A01B3510401F921036E03C0E7
:102F0000E9FF02C0F4FF01C0F3FF0050E4CF07F077
:102F1000E4CF06F0E4CF05F0E4CF04F0E4CF03F013
:102F2000E4CF02F0E4CF01F0E4CF00F0E4CFD9FF2A
:102F3000120000C0E5FF01C0E5FF04010D51D8B447
:102F4000F5D09DA81DD09EA81BD00A01C9510A0129
:102F5000C61905E1C9EC2DF00A01C66BE7D0000ED9
:102F60000A01C925006E016A0F0E012200C0E9FFA7
:102F700001C0EAFFEFCFC2FAC92BC2CAADFFD6D05B
:102F80009EAAD4D0ABA205D00A01C781C9EC2DF00E
:102F9000CDD0ABA405D00A01C783C9EC2DF0C6D0B3
:102FA000ABA03ED0AECFC2FA800E04010E110A01D2
:102FB000C21904E10A01C789AB96B8D00A01C2510F
:102FC00004E0C25104010E1927E10A01C799AB962A
:102FD0000A01C25103E00A01C79702D00A01C7875C
:102FE000C2CACBFAC4CACCFA0A01C4050A01CD6F21
:102FF000600E0A01CC25006E016A000E012200C09D
:10300000E9FF01C0EAFFC2CAEFFFCC2BCC51800A16
:1030100002E10A01CC6B8AD00A01C799AB8686D03F
:10302000AECFC2FA0A01C7A919D0800E04010E1151
:103030000A01C21911E18B909D9AAB980A01C65101
:1030400004E1AD6AC9EC2DF007D000CFADFF010E51
:103050000A01C96F9D886AD0AB8668D00A01C25147
:103060000A01CB270A01CC510A01CD191BE10A0143
:10307000CB510CE1CCCAC4FA0A01C7B712D08B906D
:103080009D9AAB98AD6AC9EC2DF00BD00A01C785AB
:10309000C7B707D08B909D9AAB98010EAD6EC9EC67
:1030A0002DF044D00A01CC510A01C51908E10A01EA
:1030B000C5510A01C41903E0C9EC2DF037D0C4CAC8
:1030C00000F0016A004A012AE56A800EE56E0150AF
:1030D000E56E0050E56EE6EC21F0006E040EE12690
:1030E00000500A01C36F0A01CC190CE11F0E0A013E
:1030F000C2150A01CD6FCD2BCD2B0A01C4510A0197
:10310000CD27CD9FCCCA00F00A01CC2B016A600EFE
:103110000026000E012200C0E9FF01C0EAFFC2CA7A
:10312000EFFFCC51800A02E10A01CC6BE4CF01F041
:10313000E4CF00F01200D9CFE5FFE1CFD9FF00C006
:10314000E5FF01C0E5FF02C0E5FF03C0E5FF04C0E5
:10315000E5FF05C0E5FF06C0E5FF07C0E5FF08C0C5
:10316000E5FF09C0E5FF0AC0E5FF0BC0E5FF0CC0A5
:10317000E5FF0DC0E5FF0EC0E5FF0FC0E5FF020E45
:10318000DBCF00F0030EDBCF01F0040EDBCF02F04B
:10319000050EDBCF03F0060EDBCF04F0070EDBCF0E
:1031A00005F0080EDBCF06F0200E076E086A06C099
:1031B00009F00A6A0B6A0C6AE56AE56AE56A095071
:1031C000E56E0350E56E0250E56E0150E56E00506D
:1031D000E56E0CEC1BF00D6E080EE126300E0D2690
:1031E0003A0E0D5C05E30D500E6E270E0E240D6E8B
:1031F000FF0E07260822600E07240E6E0A0E082016
:103200000F6E0EC0E9FF0FC0EAFF0DC0EFFF0C50BC
:10321000E56E0B50E56E0A50E56E0950E56E035001
:10322000E56E0250E56E0150E56E0050E56EA9ECCA
:103230001BF0006EF3CF01F0F4CF02F0E9CF03F002
:10324000080EE1260050011002100310D8A4AFD7D9
:1032500007C000F008C001F004C002F005C003F090
:1032600000C004F001C005F0004A012A600E0426E7
:103270000A0E052204C0E9FF05C0EAFFEFCF04F003
:1032800002C0E9FF03C0EAFF04C0EFFF024A032ABD
:10329000000E015C02E1200E005CE2E302C0E9FFE7
:1032A00003C0EAFF000EEF6AE4CF0FF0E4CF0EF0A8
:1032B000E4CF0DF0E4CF0CF0E4CF0BF0E4CF0AF054
:1032C000E4CF09F0E4CF08F0E4CF07F0E4CF06F054
:1032D000E4CF05F0E4CF04F0E4CF03F0E4CF02F054
:1032E000E4CF01F0E4CF00F0E4CFD9FF1200D9CF52
:1032F000E5FFE1CFD9FF00C0E5FF01C0E5FF02C057
:10330000E5FF03C0E5FF04C0E5FF05C0E5FF06C01B
:10331000E5FF07C0E5FF08C0E5FF09C0E5FF0AC0FB
:10332000E5FF0BC0E5FF0CC0E5FF0DC0E5FF020E99
:10333000DBCF00F0030EDBCF01F0040EDBCF02F099
:10334000050EDBCF03F0060EDBCF04F0070EDBCF5C
:1033500005F0080EDBCF06F0090EDBCF07F0D880B2
:1033600003AED890086A083608500FE0031C0C6EB4
:10337000021C0B6E011C0A6E001C096E092A0DE16D
:103380000A2A0BE10B4A0C2A08D000C009F001C040
:103390000AF002C00BF003C00CF0D88007AED89042
:1033A000006A003600500FE0071C0D6E061C036E0D
:1033B000051C026E041C016E012A0DE1022A0BE1BC
:1033C000034A0D2A08D004C001F005C002F006C06F
:1033D00003F007C00DF00D50E56E0350E56E02508E
:1033E000E56E0150E56E0C50E56E0B50E56E0A502F
:1033F000E56E0950E56EA9EC1BF0016EF3CF02F00B
:10340000F4CF03F0E9CF04F0080EE1260050081ACB
:10341000085016E0041C076E031C066E021C056EA5
:10342000011C006E002A04E1052A02E1064A072A6F
:1034300007C0E9FF06C0F4FF05C0F3FF005007D046
:1034400004C0E9FF03C0F4FF02C0F3FF0150E4CF62
:103450000DF0E4CF0CF0E4CF0BF0E4CF0AF0E4CFB2
:1034600009F0E4CF08F0E4CF07F0E4CF06F0E4CFB2
:1034700005F0E4CF04F0E4CF03F0E4CF02F0E4CFB2
:1034800001F0E4CF00F0E4CFD9FF1200D9CFE5FF7F
:10349000E1CFD9FF00C0E5FF01C0E5FF02C0E5FFB5
:1034A00003C0E5FF04C0E5FF05C0E5FF06C0E5FF7A
:1034B00007C0E5FF08C0E5FF09C0E5FF0AC0E5FF5A
:1034C0000BC0E5FF0CC0E5FF020EDBCF00F0030EE2
:1034D000DBCF01F0040EDBCF02F0050EDBCF03F0F3
:1034E000060EDBCF04F0070EDBCF05F0080EDBCFB6
:1034F00006F0090EDBCF07F0D88003AED890086A3B
:10350000083608500FE0031C0C6E021C0B6E011CE9
:103510000A6E001C096E092A0DE10A2A0BE10B4A0A
:103520000C2A08D000C009F001C00AF002C00BF05C
:1035300003C00CF0D88007AED8900FE3071C036ED1
:10354000061C026E051C016E041C006E002A0DE1B3
:10355000012A0BE1024A032A08D004C000F005C08A
:1035600001F006C002F007C003F00350E56E025000
:10357000E56E0150E56E0050E56E0C50E56E0B50A7
:10358000E56E0A50E56E0950E56E0CEC1BF0006E1E
:10359000F3CF01F0F4CF02F0E9CF03F0080EE126FB
:1035A000085016E0031C076E021C066E011C056E17
:1035B000001C046E042A04E1052A02E1064A072AD7
:1035C00007C0E9FF06C0F4FF05C0F3FF045007D0B1
:1035D00003C0E9FF02C0F4FF01C0F3FF0050E4CFD5
:1035E0000CF0E4CF0BF0E4CF0AF0E4CF09F0E4CF25
:1035F00008F0E4CF07F0E4CF06F0E4CF05F0E4CF25
:1036000004F0E4CF03F0E4CF02F0E4CF01F0E4CF24
:1036100000F0E4CFD9FF1200D9CFE5FFE1CFD9FF09
:1036200000C0E5FF01C0E5FF02C0E5FF03C0E5FF04
:1036300004C0E5FF05C0E5FF06C0E5FF07C0E5FFE4
:1036400008C0E5FF09C0E5FF0AC0E5FF020EDBCFB9
:1036500000F0030EDBCF01F0040EDBCF02F0050E0D
:10366000DBCF03F0060EDBCF04F0070EDBCF05F057
:10367000080EDBCF06F0090EDBCF07F0086A045016
:1036800005100610071005E1E968F468F368E868BA
:1036900047D0096A0750800BE8440A6E0A501BE1C4
:1036A000045004260536063607360750035C08E149
:1036B0000650025C05E10550015C02E10450005C2B
:1036C00006E2D890073206320532043204D0092AC5
:1036D00009C008F0DFD70750035C08E10650025C20
:1036E00005E10550015C02E10450005C08E3045070
:1036F000005E0550015A0650025A0750035AD890EE
:10370000073206320532043208C009F008060950B3
:10371000E2E103C0E9FF02C0F4FF01C0F3FF005083
:10372000E4CF0AF0E4CF09F0E4CF08F0E4CF07F0EB
:10373000E4CF06F0E4CF05F0E4CF04F0E4CF03F0EB
:10374000E4CF02F0E4CF01F0E4CF00F0E4CFD9FF02
:103750001200D9CFE5FFE1CFD9FF00C0E5FF01C0DE
:10376000E5FF02C0E5FF03C0E5FF04C0E5FF05C0BB
:10377000E5FF06C0E5FF07C0E5FF08C0E5FF09C09B
:10378000E5FF0AC0E5FF0BC0E5FF0CC0E5FF0DC07B
:10379000E5FF020EDBCF00F0030EDBCF01F0040EDD
:1037A000DBCF02F0050EDBCF03F0060EDBCF04F01B
:1037B000070EDBCF05F0080EDBCF06F0090EDBCFDE
:1037C00007F0086A096A0A6A0B6A200E0C6E035039
:1037D000800BE8440D6E0050002601360236033699
:1037E0000850082609360A360B360D50D8A4088032
:1037F00007500B5C08E106500A5C05E10550095CC6
:1038000002E10450085C09E30450085E0550095ABF
:1038100006500A5A07500B5A00800C040D6E0DC05A
:103820000CF00D50D4E103C0E9FF02C0F4FF01C069
:10383000F3FF0050E4CF0DF0E4CF0CF0E4CF0BF039
:10384000E4CF0AF0E4CF09F0E4CF08F0E4CF07F0CA
:10385000E4CF06F0E4CF05F0E4CF04F0E4CF03F0CA
:10386000E4CF02F0E4CF01F0E4CF00F0E4CFD9FFE1
:10387000120000C0E5FF01C0E5FF03C0E5FF04C082
:10388000E5FF05C0E5FF06C0E5FF07C0E5FF08C08E
:10389000E5FF09C0E5FF0AC0E5FF0BC0E5FF36C440
:1038A00000F037C401F00401363F01D0372B00503F
:1038B000E56EBBEC2DF0E652076E046A056A066AF7
:1038C00036C400F037C401F00401363F01D0372B75
:1038D0000050E56EBBEC2DF0E6520B6A0A6E086AEA
:1038E0000850041205120A5006120B50071236C473
:1038F00000F037C401F00401363F01D0372B0050EF
:10390000E56EBBEC2DF0E652036E006A03C001F0D9
:10391000E86A03BEFF0E086E096E005004120150E3
:103920000512085006120950071236C400F037C4B9
:1039300001F00401363F01D0372B0050E56EBBEC9F
:103940002DF0E652016A0412015005120612071208
:1039500007C0E9FF06C0F4FF05C0F3FF0450E4CF41
:103960000BF0E4CF0AF0E4CF09F0E4CF08F0E4CFA5
:1039700007F0E4CF06F0E4CF05F0E4CF04F0E4CFA5
:1039800003F0E4CF01F0E4CF00F0120000C0E5FF47
:1039900001C0E5FF02C0E5FF03C0E5FF04C0E5FF8D
:1039A0000A01C5510A01C41901E15FD0C5CA00F07E
:1039B000002A009E600E0024016E026A000E0222A0
:1039C00001C0E9FF02C0EAFFEFCFCFFA1F0E0A01E4
:1039D000CF17C5CACEFACF510A01CE27CE2BCE2B98
:1039E000CE9F8DEC2AF0016E015003E1016A012A9D
:1039F00001D0016A8DEC2AF00A01CF6F800ECF153D
:103A0000026E1F0ECF15036E03C004F003C0CFFA81
:103A1000045003E1C4CAC5FA3BD001501BE0025078
:103A200022E08DEC2AF0006E0A01CF070050420A16
:103A30001AE000504E0A03E13FEC27F014D000508A
:103A4000460A03E1FDEC2DF00ED00050490A0BE1CF
:103A5000FF0009D0C5CAD0FA025003E0B8EC24F048
:103A600002D0D3EC12F0CECAC5FA04010A51040107
:103A70000B1906E00A01C65103E16AEC1EF008D0FA
:103A80008BB006D00A01C65103E1ACB2C9EC2DF0EF
:103A9000E4CF04F0E4CF03F0E4CF02F0E4CF01F090
:103AA000E4CF00F01200D9CFE5FFE1CFD9FF00C08D
:103AB000E5FF01C0E5FF02C0E5FF03C0E5FF04C06C
:103AC000E5FF05C0E5FF06C0E5FF07C0E5FF08C04C
:103AD000E5FF0BC0E5FF0CC0E5FF0DC0E5FF020EE2
:103AE000DBCF00F0030EDBCF01F0040EDBCF02F0E2
:103AF000050EDBCF03F0060EDBCF04F003C0E5FFBD
:103B000004C0F4FF00C0E9FF01C0F3FF0250E5EC80
:103B10002DF00050020F056E000E0120066E000E03
:103B20000220076EE86A04BEFF0E086E04500C6E99
:103B30000C2608340D6ED8900C360D360344E8443C
:103B4000FC0B0B6E0350E844E844030B0C12E56ACF
:103B50000BC0F4FF0CC0F6FF0DC0F7FF05C0E9FF76
:103B600006C0F3FF07509BEC2DF0080E0026000E58
:103B700001220222E56AF46AF66AF76A00C0E9FFE8
:103B800001C0F3FF02509BEC2DF0E4CF0DF0E4CF29
:103B90000CF0E4CF0BF0E4CF08F0E4CF07F0E4CF73
:103BA00006F0E4CF05F0E4CF04F0E4CF03F0E4CF77
:103BB00002F0E4CF01F0E4CF00F0E4CFD9FF12002F
:103BC000D9CFE5FFE1CFD9FF00C0E5FF01C0E5FF98
:103BD00002C0E5FF03C0E5FF04C0E5FF05C0E5FF47
:103BE00006C0E5FF07C0E5FF08C0E5FF09C0E5FF27
:103BF0000AC0E5FF020EDBCF00F0030EDBCF01F0C1
:103C0000040EDBCF02F0050EDBCF03F0060EDBCF98
:103C100004F0070EDBCF05F00038E8441F0B066EFA
:103C2000076AFE0E0626040E072206C0E9FF07C03B
:103C3000EAFFEFCF08F0070E0014096E010E0A6EBE
:103C4000095005E0E86CD8900A36010FFDE30A50F0
:103C5000081206C0E9FF07C0EAFF08C0EFFF900E98
:103C60000024066E076A0A0E072206C0E9FF07C095
:103C7000EAFF01C0EFFF016A800E00260A0E012252
:103C8000800E025E070E02160238F00B036E070E5E
:103C900005160550032600C0E9FF01C0EAFF03C076
:103CA000EFFFE4CF0AF0E4CF09F0E4CF08F0E4CF6F
:103CB00007F0E4CF06F0E4CF05F0E4CF04F0E4CF62
:103CC00003F0E4CF02F0E4CF01F0E4CF00F0E4CF62
:103CD000D9FF120000C0E5FF01C0E5FF02C0E5FF0B
:103CE00003C0E5FFACA276D0E4EC2BF0006E0050F0
:103CF00005E104010B6B04010A6B6CD00BC401F0ED
:103D000000500126E4EC2BF0026E00060250230A5C
:103D10001FE1010E005CD8A05BD0E4EC2BF0026E3A
:103D2000690A03E133EC2AF053D00250720A03E12E
:103D3000C9EC2DF04DD00250730A01E049D08B80C0
:103D4000AB869D8A9D98AE50AE50AB98AB8840D064
:103D50000250430A05E00250420A01E039D001D086
:103D6000008E00C0C8FA00500F01006F010E0A015A
:103D7000C96F04010B51011814E0E4EC2BF0026E42
:103D80000A01C827000E0A01C925006E036A0F0E3A
:103D9000032200C0E9FF03C0EAFF02C0EFFFC92B06
:103DA000E8D7000E0A01C925006E026A0F0E022232
:103DB0000A01C81D036E032A00C0E9FF02C0EAFF22
:103DC00003C0EFFF0A01C92BC9CAC6FA0A01C06BBA
:103DD00001C00BF4E4CF03F0E4CF02F0E4CF01F034
:103DE000E4CF00F01200D9CFE5FFE1CFD9FF00C04A
:103DF000E5FF01C0E5FF02C0E5FF03C0E5FF04C029
:103E0000E5FF05C0E5FF06C0E5FF07C0E5FF020EC0
:103E1000DBCF00F0030EDBCF01F0040EDBCF02F0AE
:103E2000050EDBCF03F002C006F00650046E800AD8
:103E300033E100C0E9FF01C0F3FF02503EEC2CF07B
:103E4000056EF3CF06F0F4CF07F003C0E5FF05C021
:103E5000E9FF06C0F3FF075013EC2EF000C0E9FFA6
:103E600001C0F3FF02503EEC2CF0056EF3CF06F0DC
:103E7000F4CF07F0052A02E3064A072A05C0E5FF4A
:103E800006C0F4FF07C0F6FF00C0E9FF01C0F3FF62
:103E90000250ACEC2DF01DD004AA1BD0047A0450C3
:103EA00004E1035050EC2EF014D00450010A04E158
:103EB000035002EC00F00DD004500F0A04E103504F
:103EC00002EC2AF006D004500E0A03E1035060EC25
:103ED0002EF0E4CF07F0E4CF06F0E4CF05F0E4CF16
:103EE00004F0E4CF03F0E4CF02F0E4CF01F0E4CF3C
:103EF00000F0E4CFD9FF120000C0E5FF01C0E5FFEC
:103F000002C0E5FF03C0E5FF04C0E5FF006AFE0E46
:103F10000024016E026A040E022201C0E9FF02C001
:103F2000EAFFEF6A002A020E005CF1E3006A00502B
:103F3000020DF450026EF3CF01F0E00E0124036E87
:103F4000000E0220046E03C0E9FF04C0EAFFEE6A1F
:103F5000EF6AB60E0124036E040E0220046E03C045
:103F6000E9FF04C0EAFFEE6AEF6AD60E0124036E91
:103F7000040E0220046E03C0E9FF04C0EAFFEE6AEB
:103F8000EF6A000E0124036E0A0E0220046E03C0C5
:103F9000E9FF04C0EAFFEE6AEF6A200E01260A0E6E
:103FA000022201C0E9FF02C0EAFFEE687F0EEF6E59
:103FB000800E0024016E026A0A0E022201C0E9FF8F
:103FC00002C0EAFFEF68002A100E005CD8A0AFD74D
:103FD000AF0EC06EC16A010EC26EC282E4CF04F0A1
:103FE000E4CF03F0E4CF02F0E4CF01F0E4CF00F03F
:103FF00012004320412025642025640A0000D9CF07
:10400000E5FFE1CFD9FF00C0E5FF01C0E5FF02C039
:10401000E5FF03C0E5FF04C0E5FF05C0E5FF06C0FE
:10402000E5FF07C0E5FF08C0E5FF09C0E5FF0AC0DE
:10403000E5FF0BC0E5FF0CC0E5FF020EDBCF00F093
:10404000030EDBCF01F0040EDBCF02F0050EDBCF59
:1040500003F0060EDBCF04F0070EDBCF05F0080EF1
:10406000DBCF06F0090EDBCF07F002500A6E0150DD
:10407000096E0050086E06C00BF007C00CF0FF0E72
:10408000062607220B500C101AE003C0E9FF04C0FB
:10409000F3FF05508AEC2DF00B6E032A02E3044A6D
:1040A000052A0BC0E5FF08C0E9FF09C0F3FF0A506D
:1040B00013EC2EF0082ADFE3094A0A2ADCD702C0F3
:1040C000F4FF01C0F3FF0050E4CF0CF0E4CF0BF09D
:1040D000E4CF0AF0E4CF09F0E4CF08F0E4CF07F032
:1040E000E4CF06F0E4CF05F0E4CF04F0E4CF03F032
:1040F000E4CF02F0E4CF01F0E4CF00F0E4CFD9FF49
:104100001200D9CFE5FFE1CFD9FF00C0E5FF01C024
:10411000E5FF02C0E5FF03C0E5FF04C0E5FF05C001
:10412000E5FF06C0E5FF07C0E5FF020EDBCF00F0AC
:10413000030EDBCF01F0040EDBCF02F0050EDBCF68
:1041400003F00BC40CF404010A5104010C5F0C07CA
:1041500003C004F0056A030E0426D8B0052A0CC477
:1041600006F0076A0750800FF36E0550800FF35C6E
:1041700002E10450065C02E2E8682BD0020E035C08
:1041800002E2E86A26D003060350E56E7DEC28F0D3
:10419000E652046A0350045C14E204500024056EE5
:1041A000E86A0120066EE86A022005C0E9FF06C041
:1041B000F3FF8AEC2DF0042AE56E7DEC28F0E65240
:1041C000E9D70BC40CF404010A5104010C5F0C077D
:1041D000E86AE4CF07F0E4CF06F0E4CF05F0E4CFDF
:1041E00004F0E4CF03F0E4CF02F0E4CF01F0E4CF39
:1041F00000F0E4CFD9FF1200D9CFE5FFE1CFD9FF1E
:1042000000C0E5FF01C0E5FF02C0E5FF03C0E5FF18
:1042100004C0E5FF05C0E5FF020EDBCF00F0030E92
:10422000DBCF01F0040EDBCF02F00050020DF450A2
:10423000036EF3CF00F0B60E0024046E040E0320CC
:10424000056E04C0E9FF05C0EAFF01C0EEFF02C031
:10425000EFFFD60E0024046E040E0320056E04C08A
:10426000E9FF05C0EAFFEECF04F0EFCF05F0015003
:10427000045C016E02500558026E400E00260A0EC4
:10428000032200C0E9FF03C0EAFF01C0EEFF02C045
:10429000EFFFD88002AED89004E3021E016CD8B4C0
:1042A000022A0250800F800F02E1030E015C02E23D
:1042B000016A026A0150021007E100C0E9FF03C071
:1042C000EAFF000EEE6AEF6AE4CF05F0E4CF04F0F7
:1042D000E4CF03F0E4CF02F0E4CF01F0E4CF00F04C
:1042E000E4CFD9FF1200D9CFE5FFE1CFD9FF00C05D
:1042F000E5FF01C0E5FF02C0E5FF03C0E5FF04C024
:10430000E5FF05C0E5FF06C0E5FF020EDBCF00F0CC
:10431000030EDBCF01F0040EDBCF02F000C0E9FF9B
:1043200001C0F3FF0250C4EC2BF0036EF3CF04F096
:10433000F4CF05F0E9CF06F00650E56E0550E56EC6
:104340000450E56E0350E56E410EE56EC60EE56E57
:104350004E0EE56E6D0EE56E8FEC16F0036EF3CF2C
:1043600004F0F4CF05F0E9CF06F0080EE126390E8F
:104370000326300E0422000E0522062203C0E5FFAC
:1043800004C0F4FF05C0F6FF06C0F7FF00C0E9FF58
:1043900001C0F3FF02509BEC2DF0069E06C0E9FF22
:1043A00005C0F4FF04C0F3FF0350E4CF06F0E4CFF0
:1043B00005F0E4CF04F0E4CF03F0E4CF02F0E4CF63
:1043C00001F0E4CF00F0E4CFD9FF1200D9CFE5FF30
:1043D000E1CFD9FF00C0E5FF01C0E5FF02C0E5FF66
:1043E00003C0E5FF04C0E5FF05C0E5FF06C0E5FF2B
:1043F000020EDBCF00F0030EDBCF01F0040EDBCFAB
:1044000002F0050EDBCF03F0D88001AED890046A2D
:104410000436045007E0011C066E001C056E054AB8
:10442000062A04D000C005F001C006F0D88003AE13
:10443000D89007E3031C016E021C006E004A012A9B
:1044400004D002C000F003C001F00150E56E00503E
:10445000E56E0650E56E0550E56E5BEC24F0006EEF
:10446000F3CF01F0040EE12604500AE0011C036EB4
:10447000001C026E024A032A03C0F3FF025003D05D
:1044800001C0F3FF0050E4CF06F0E4CF05F0E4CF25
:1044900004F0E4CF03F0E4CF02F0E4CF01F0E4CF86
:1044A00000F0E4CFD9FF1200D9CFE5FFE1CFD9FF6B
:1044B00000C0E5FF01C0E5FF02C0E5FF03C0E5FF66
:1044C00004C0E5FF05C0E5FF06C0E5FF020EDBCF37
:1044D00000F0030EDBCF01F0040EDBCF02F000C0D2
:1044E000E9FF01C0F3FF0250C4EC2BF00A01B46FE6
:1044F000F3CFB5FAF4CFB6FAE9CFB7FA800EE56E8E
:104500000A0EE56EB40EE56E73EC21F0036EF3CF88
:1045100004F0F4CF05F0E9CF06F0030EE12603C066
:10452000E5FF04C0F4FF05C0F6FF06C0F7FF00C0BA
:10453000E9FF01C0F3FF02509BEC2DF000C0E9FF42
:1045400001C0F3FF0250C4EC2BF0F3CF01F0F4CF25
:1045500002F0E9CF03F003C0E9FF02C0F4FF01C09D
:10456000F3FFE4CF06F0E4CF05F0E4CF04F0E4CFAE
:1045700003F0E4CF02F0E4CF01F0E4CF00F0E4CFA9
:10458000D9FF1200D9CFE5FFE1CFD9FF00C0E5FF89
:1045900001C0E5FF02C0E5FF03C0E5FF04C0E5FF81
:1045A00005C0E5FF020EDBCF00F0030EDBCF01F00C
:1045B000040EDBCF02F0050EDBCF03F036C404F0AF
:1045C00037C405F00401363F01D0372B0350E56EA8
:1045D0000450E56EA0EC2BF0E652E65236C404F02F
:1045E00037C405F00401363F01D0372B0250056E69
:1045F000E56E0450E56EA0EC2BF0E652E65236C4B0
:1046000004F037C405F00401363F01D0372B0150C8
:10461000056EE56E0450E56EA0EC2BF0E652E65216
:1046200036C404F037C405F00401363F01D0372BFF
:104630000050E56E0450E56EA0EC2BF0E652E65219
:10464000E4CF05F0E4CF04F0E4CF03F0E4CF02F0D0
:10465000E4CF01F0E4CF00F0E4CFD9FF1200D9CFCE
:10466000E5FFE1CFD9FF00C0E5FF01C0E5FF02C0D3
:10467000E5FF03C0E5FF04C0E5FF05C0E5FF06C098
:10468000E5FF020EDBCF00F0030EDBCF01F0040EDE
:10469000DBCF02F00A01BF5119E139EC1CF0036EC7
:1046A000F3CF04F0F4CF05F0E9CF06F003C0E5FF47
:1046B00004C0F4FF05C0F6FF06C0F7FF00C0E9FF25
:1046C00001C0F3FF02509BEC2DF01ED00A01BF5138
:1046D000010A1AE100C0E9FF01C0F3FF0250C4EC77
:1046E0002BF0006EF3CF01F0F4CF02F0E9CF03F02E
:1046F0000350E56E0250E56E0150E56E0050E56E28
:10470000C2EC22F0040EE126E4CF06F0E4CF05F07F
:10471000E4CF04F0E4CF03F0E4CF02F0E4CF01F003
:10472000E4CF00F0E4CFD9FF1200D9CFE5FFE1CF0D
:10473000D9FF00C0E5FF01C0E5FF02C0E5FF03C0EF
:10474000E5FF04C0E5FF05C0E5FF06C0E5FF020E7A
:10475000DBCF00F0030EDBCF01F00038E8441F0B85
:10476000026E036AFE0E0226040E032202C0E9FF57
:1047700003C0EAFFEFCF04F0070E0014056E010E30
:10478000066E055005E0E86CD8900636010FFDE393
:104790000650041202C0E9FF03C0EAFF04C0EFFFA5
:1047A000900E0024026E036A0A0E032202C0E9FF83
:1047B00003C0EAFF01C0EFFF016A800E00260A0E67
:1047C000012200C0E9FF01C0EAFFFF0EEF68E4CF5D
:1047D00006F0E4CF05F0E4CF04F0E4CF03F0E4CF3B
:1047E00002F0E4CF01F0E4CF00F0E4CFD9FF1200F3
:1047F000D9CFE5FFE1CFD9FF00C0E5FF01C0E5FF5C
:1048000002C0E5FF03C0E5FF04C0E5FF05C0E5FF0A
:1048100006C0E5FF020EDBCF00F0030EDBCF01F098
:10482000040EDBCF02F0050EDBCF03F0060EDBCF6C
:1048300004F0070EDBCF05F0080EDBCF06F0D880C2
:1048400003AED89015E306500A0A12E104C0E9FF4E
:1048500005C0EAFF2D0EEF6E044A052A031E021E54
:10486000011E006C05E1012A03E1022AD8B4032AE3
:104870000650E56E0550E56E0450E56E0350E56E9A
:104880000250E56E0150E56E0050E56E9BEC18F0AD
:10489000070EE126E4CF06F0E4CF05F0E4CF04F004
:1048A000E4CF03F0E4CF02F0E4CF01F0E4CF00F076
:1048B000E4CFD9FF1200D9CFE5FFE1CFD9FF00C087
:1048C000E5FF01C0E5FF02C0E5FF03C0E5FF04C04E
:1048D000E5FF05C0E5FF06C0E5FF020EDBCF00F0F7
:1048E000030EDBCF01F0040EDBCF02F0050EDBCFB1
:1048F00003F0046A056A0350800BE844066E065014
:1049000011E10250022603360350015C02E102501D
:10491000005C04E2D8900332023204D0052A05C0BC
:1049200004F0E9D70350015C02E10250005C04E3AB
:104930000250005E0350015AD8900332023204C084
:1049400005F004060550EEE101C0F3FF0050E4CF8E
:1049500006F0E4CF05F0E4CF04F0E4CF03F0E4CFB9
:1049600002F0E4CF01F0E4CF00F0E4CFD9FF120071
:1049700000C0E5FF01C0E5FF02C0E5FF8DEC2AF0B5
:10498000006E4C0A08E18DEC2AF0300A02E08B82BE
:104990003DD08B923BD00050450A27E1000EE56EDA
:1049A0002D0EE56E180EE56EC1EC27F0030EE12624
:1049B0005AEC2EF0006E00C001F001C002F00106BA
:1049C00002500FE08DEC2AF0E56AE56E000EE56E10
:1049D0002D0EE56E1A0EE56EC1EC27F0050EE126F0
:1049E000ECD70A0E02EC2AF011D00050530A0EE167
:1049F0008DEC2AF0410A0AE18DEC2AF0560A06E114
:104A00008DEC2AF0450A02E11EEC2EF0E4CF02F014
:104A1000E4CF01F0E4CF00F01200D9CFE5FFE1CF01
:104A2000D9FF00C0E5FF01C0E5FF02C0E5FF03C0FC
:104A3000E5FF04C0E5FF020EDBCF00F0030EDBCF85
:104A400001F0040EDBCF02F00050060F036E000EE3
:104A50000120046E000E0220E56E0450E56E035046
:104A6000E56E5AEC26F0030EE12600500C0F036EA3
:104A7000000E0120046E000E0220E56E0450E56E6B
:104A80000350E56E5AEC26F0030EE1260E0E0026CA
:104A9000000E012202220250E56E0150E56E005028
:104AA000E56E5AEC26F0030EE126E4CF04F0E4CFE5
:104AB00003F0E4CF02F0E4CF01F0E4CF00F0E4CF64
:104AC000D9FF1200D9CFE5FFE1CFD9FF00C0E5FF44
:104AD00001C0E5FF02C0E5FF03C0E5FF020EDBCF2A
:104AE00000F0030EDBCF01F0E86A01BEFF0E026E9C
:104AF000036EE56E0250E56E0150E56E0050E56E06
:104B00000350E56E0250E56E0150E56E0050E56E13
:104B10008FEC16F0006EF3CF01F0F4CF02F0E9CF86
:104B200003F0080EE126E56AE56A040EE56EE56A23
:104B30000350E56E0250E56E0150E56E0050E56EE3
:104B400077EC19F0006EF3CF01F0080EE12601C0FA
:104B5000F3FF0050E4CF03F0E4CF02F0E4CF01F024
:104B6000E4CF00F0E4CFD9FF1200D9CFE5FFE1CFC9
:104B7000D9FF00C0E5FF01C0E5FF02C0E5FF03C0AB
:104B8000E5FF04C0E5FF020EDBCF00F0030EDBCF34
:104B900001F0040EDBCF02F0E56AF46A00C0E9FF21
:104BA00001C0F3FF0250E5EC2DF00050020F036E40
:104BB000000E0120046E000E0220E56AF46AF66A17
:104BC000F76A03C0E9FF04C0F3FF9BEC2DF0080E69
:104BD0000026000E01220222E56AF46AF66AF76AEC
:104BE00000C0E9FF01C0F3FF02509BEC2DF0E4CFC1
:104BF00004F0E4CF03F0E4CF02F0E4CF01F0E4CF1F
:104C000000F0E4CFD9FF120025642025640A0000DB
:104C100000C0E5FF01C0E5FF02C0E5FF03C0E5FFFE
:104C2000C5CA00F0016AD0CA02F0036A0250005EF1
:104C30000350015AE56A800EE56E0150E56E0050A2
:104C4000E56EE6EC21F0006E040EE1260006D0CA07
:104C500001F0430E02EC2AF0200E02EC2AF0005084
:104C600020E0600E0124026E036A000E032202C0DF
:104C7000E9FF03C0EAFFEFCF02F0E56A0250E56EFC
:104C8000000EE56E5B0EE56EAA0EE56EC1EC27F038
:104C9000050EE126012A0150800A01E1016A0006A1
:104CA000DED7E4CF03F0E4CF02F0E4CF01F0E4CFAD
:104CB00000F01200D9CFE5FFE1CFD9FF00C0E5FF3A
:104CC00001C0E5FF02C0E5FF03C0E5FF04C0E5FF4A
:104CD000020EDBCF00F0030EDBCF01F0040EDBCFC2
:104CE00002F00A01BF5111E19BEC29F0036EF3CFF2
:104CF00004F003C0E5FF04C0F4FF00C0E9FF01C0F9
:104D0000F3FF0250E5EC2DF016D00A01BF51010A65
:104D100012E100C0E9FF01C0F3FF0250FDEC2CF0EE
:104D2000006EF3CF01F00150E56E0050E56E40ECEF
:104D300028F0E652E652E4CF04F0E4CF03F0E4CFEB
:104D400002F0E4CF01F0E4CF00F0E4CFD9FF12008D
:104D5000880EF66E5C0EF76E000EF86E0900F550C8
:104D6000056E0900F550066E04E1056702D0F5EF07
:104D700026F00900F550006E0900F550016E09009B
:104D8000F550026E09000900F550E96E0900F55072
:104D9000EA6E090009000900F550036E0900F5509C
:104DA000046E09000900F6CF07F0F7CF08F0F8CF3E
:104DB00009F000C0F6FF01C0F7FF02C0F8FF035082
:104DC00002E1045007E00900F550EE6E0306F8E238
:104DD0000406F9D707C0F6FF08C0F7FF09C0F8FFBF
:104DE000050601E20606B4EF26F01200D9CFE5FF72
:104DF000E1CFD9FF00C0E5FF01C0E5FF02C0E5FF3C
:104E000003C0E5FF04C0E5FF05C0E5FF020EDBCFF0
:104E100000F00050010A22E1016A0150020DF45035
:104E2000036EF3CF02F0000E0224046E0A0E03207C
:104E3000056E04C0E9FF05C0EAFFEE687F0EEF6E65
:104E4000200E02260A0E032202C0E9FF03C0EAFF79
:104E5000EE6AEF6A012A100E015CDFE300C010F475
:104E6000E4CF05F0E4CF04F0E4CF03F0E4CF02F0A8
:104E7000E4CF01F0E4CF00F0E4CFD9FF120000C08E
:104E8000E5FF01C0E5FF02C0E5FF8DEC2AF0006EF2
:104E90008DEC2AF0016E0050026ED00E0224006EDE
:104EA0000A0E005C05E30050026EF90E0224006E4B
:104EB0000150026ED00E0224016E0A0E015C05E361
:104EC0000150026EF90E0224016E080E005C12E21F
:104ED000100E015CD8B00ED00038F00B0124006E2B
:104EE000F4EC28F0016E015005E10050E56E73EC22
:104EF0002CF0E652E4CF02F0E4CF01F0E4CF00F072
:104F00001200D9CFE5FFE1CFD9FF00C0E5FF01C016
:104F1000E5FF02C0E5FF03C0E5FF04C0E5FF020EA8
:104F2000DBCF00F00038E8441F0B016E026AFE0E72
:104F30000126040E022201C0E9FF02C0EAFFEFCF02
:104F400003F0070E0016010E046E005005E0E86C39
:104F5000D8900436010FFDE3041C031601C0E9FFDD
:104F600002C0EAFF03C0EFFFE4CF04F0E4CF03F098
:104F7000E4CF02F0E4CF01F0E4CF00F0E4CFD9FFBA
:104F80001200D9CFE5FFE1CFD9FF00C0E5FF01C096
:104F9000E5FF02C0E5FF020ED924006E000EDA2004
:104FA000016E800E026E030E0026000E0122022208
:104FB0000250E56E0150E56E0050E56E040EDBCF49
:104FC000E5FF030EDBCFE5FF020EDBCFE5FF0401BB
:104FD0007F51E56E7E51E56E7D51E56E17EC09F06F
:104FE000006EF3CF01F0090EE12601C0F3FF00507F
:104FF000E4CF02F0E4CF01F0E4CF00F0E4CFD9FF3A
:105000001200D9CFE5FFE1CFD9FF00C0E5FF01C015
:10501000E5FF02C0E5FF03C0E5FF020EDBCF00F0B5
:10502000030EDBCF01F0040EDBCF02F00A01BF510B
:105030000DE1D1EC2CF0036E03C0E5FF00C0E9FFE9
:1050400001C0F3FF025013EC2EF00FD00A01BF5144
:10505000010A0BE100C0E9FF01C0F3FF02508AEC36
:105060002DF0E56E55EC2BF0E652E4CF03F0E4CFE3
:1050700002F0E4CF01F0E4CF00F0E4CFD9FF12005A
:10508000D9CFE5FFE1CFD9FF00C0E5FF01C0E5FFC3
:1050900002C0E5FF03C0E5FF020EDBCF00F0030E08
:1050A000DBCF01F036C402F037C403F00401363F11
:1050B00001D0372B0150E56E0250E56EA0EC2BF0CD
:1050C000E652E65236C402F037C403F00401363F1C
:1050D00001D0372B0050E56E0250E56EA0EC2BF0AE
:1050E000E652E652E4CF03F0E4CF02F0E4CF01F061
:1050F000E4CF00F0E4CFD9FF1200D9CFE5FFE1CF34
:10510000D9FF00C0E5FF01C0E5FF02C0E5FF03C015
:10511000E5FF04C0E5FF020EDBCF00F00AC401F09A
:10512000026A014A022A0BC403F0046A0150031800
:1051300003E10250041801E001D00ED0000E04017A
:105140000A25016E026A070E022201C0E9FF02C0B1
:10515000EAFF00C0EFFF0A2BE4CF04F0E4CF03F036
:10516000E4CF02F0E4CF01F0E4CF00F0E4CFD9FFC8
:105170001200D9CFE5FFE1CFD9FF00C0E5FF01C0A4
:10518000E5FF02C0E5FF03C0E5FF020EDBCF00F044
:10519000016AD0CA02F0036A0250002603500122BD
:1051A000E56A800EE56E0150E56E0050E56EE6ECB6
:1051B00021F0006EF3CF01F0040EE126600E002610
:1051C000000E012200C0E9FF01C0EAFFEFCF00F0AE
:1051D0000050E4CF03F0E4CF02F0E4CF01F0E4CFDD
:1051E00000F0E4CFD9FF120000C0E5FF01C0E5FFE9
:1051F00002C0E5FF010E006E8DEC2AF0016E01C0C9
:1052000002F0015023E00050E56EBBEC2DF0016E82
:10521000E652015010E10A0E005C0BE20A0E006E2D
:10522000E56EBBEC2DF0016EE652015004E1E8683A
:105230000ED0E8680CD00150021802E0E86807D0F0
:10524000002A1B0E005CD8E3E86801D0E86AE4CFCE
:1052500002F0E4CF01F0E4CF00F01200F3CFE5FF5D
:10526000F4CFE5FFE9CFE5FFEACFE5FFFACFE5FFB1
:10527000FBCFE5FF040108510401836F04010951CC
:105280000401846FD650816FD750826FF2A411D081
:105290000401083F01D0092BF294040108510401D4
:1052A000836F040109510401846FD650816FD75078
:1052B000826FE4CFFBFFE4CFFAFFE4CFEAFFE4CF55
:1052C000E9FFE4CFF4FFE4CFF3FF1100D9CFE5FF0E
:1052D000E1CFD9FF00C0E5FF01C0E5FF02C0E5FF57
:1052E00003C0E5FF04C0E5FF020EDBCF00F0030EB4
:1052F000DBCF01F0040EDBCF02F0050EDBCF03F0B5
:10530000060EDBCF04F003C0E5FF04C0F4FF00C0CD
:10531000E9FF01C0F3FF0250E5EC2DF0E4CF04F00B
:10532000E4CF03F0E4CF02F0E4CF01F0E4CF00F0EB
:10533000E4CFD9FF120000C0E5FF01C0E5FF02C0C5
:10534000E5FF03C0E5FF36C400F037C401F00401F7
:10535000363F01D0372B0050E56EBBEC2DF0E65206
:10536000036E026A36C400F037C401F00401363F10
:1053700001D0372B0050E56EBBEC2DF0E652016AF0
:1053800002120150031203C0F3FF0250E4CF03F0F6
:10539000E4CF02F0E4CF01F0E4CF00F01200800E81
:1053A000E56E0F0EE56E230EE56E0DEC25F0030E97
:1053B000E126800EE56E040EE56E390EE56E0DEC0D
:1053C00025F0030EE126800EE56E040EE56E490E13
:1053D000E56E0DEC25F0030EE126800EE56E040E61
:1053E000E56E590EE56E0DEC25F0030EE126800EFC
:1053F000E56E040EE56E690EE56E0DEC25F0030E0C
:10540000E126120000C0E5FF01C0E5FF02C0E5FF94
:10541000006E930E04010F25016E026A040E022233
:1054200001C0E9FF02C0EAFF00C0EFFF220E0F5DDE
:1054300001E20F2B00500A0A0FE104010F51E56E43
:10544000800EE56E040EE56E930EE56E81EC20F0A5
:10545000040EE12604010F6BE4CF02F0E4CF01F06B
:10546000E4CF00F0120004010A6B04010B6B04018D
:105470000C698B809490B06A3F0EAF6EB886AC8A90
:10548000AC84AC8CAC90AB8CAB8E0A01C76B0A01C0
:10549000C16B0A01C46B0A01C56B0A01C66B000E21
:1054A000E56ABBEC2DF004010E6FE6529F989F9ABF
:1054B000010E04010D6F04017D6B7E6B2F0E7F6F5B
:1054C000C9EC2DF01200040108510401876F04019A
:1054D00009510401886FD650856FD750866F875168
:1054E0000401081905E104018851040109190CE0BF
:1054F000040108510401876F040109510401886FF8
:10550000D650856FD750866F88C4E9FF87C4F4FFF3
:1055100086C4F3FF04018551120000C0E5FF01C0FD
:10552000E5FF0A01C5510A01CE1905E00A01C5517E
:105530000A01C41902E1E86A15D0C5CA00F00A01DF
:10554000C52B016A600E0026000E012200C0E9FF93
:1055500001C0EAFFEFCF00F0C551800A02E10A0165
:10556000C56B0050E4CF01F0E4CF00F0120000C0A2
:10557000E5FF01C0E5FF02C0E5FF03C0E5FF800EC7
:10558000E56E040EE56E250EE56E73EC21F0006EFF
:10559000F3CF01F0F4CF02F0E9CF03F0030EE126E0
:1055A00003C0E9FF02C0F4FF01C0F3FF0050E4CFE5
:1055B00003F0E4CF02F0E4CF01F0E4CF00F01200FA
:1055C00000C0E5FF54EC2EF00401896B806B8983E9
:1055D000006A89B3002A0050010BE844F46E805140
:1055E000FD0BF410806FD58ED59CD59AD588D596B5
:1055F000D594D582D580F28AF184D08EF28EF28C49
:10560000BA80FF0EBB68BA84E4CF00F01200D9CF95
:10561000E5FFE1CFD9FF00C0E5FF01C0E5FF020EC5
:10562000DBCF00F00050020DF450016EF3CF00F01C
:10563000400E00260A0E012200C0E9FF01C0EAFF69
:10564000EECF00F0EFCF01F001C0F3FF0050E4CF48
:1056500001F0E4CF00F0E4CFD9FF1200D9CFE5FF8D
:10566000E1CFD9FF00C0E5FF01C0E5FF020EDBCFAF
:1056700000F00050020DF450016EF3CF00F0E00E88
:105680000026000E012200C0E9FF01C0EAFFEECFB4
:1056900000F0EFCF01F001C0F3FF0050E4CF01F0C4
:1056A000E4CF00F0E4CFD9FF1200D9CFE5FFE1CF7E
:1056B000D9FF00C0E5FF01C0E5FF02C0E5FF020E13
:1056C000DBCF00F036C401F037C402F00401363FEE
:1056D00001D0372B0050E56E0150E56EA0EC2BF0A9
:1056E000E652E652E4CF02F0E4CF01F0E4CF00F05E
:1056F000E4CFD9FF1200D8CFE5FFE0CFE5FFE56E9C
:10570000F3CFE5FFF4CFE5FFE9CFE5FFEACFE5FF13
:10571000FACFE5FFFBCFE5FF99EC17F0E4CFFBFFF5
:10572000E4CFFAFFE4CFEAFFE4CFE9FFE4CFF4FFF0
:10573000E4CFF3FFE450E4CFE0FFE4CFD8FF100064
:10574000D9CFE5FFE1CFD9FF00C0E5FF020EDBCFE7
:1057500000F0030EDBCFA8FF00C0A9FFA69EA69C09
:10576000A684F29EF29C550EA76EAA0EA76EA68284
:10577000A6A202D00000FCD7A694F28EF28CE4CF51
:1057800000F0E4CFD9FF1200E8AE0AD0F3CFEAFF71
:10579000EE50EECFF3FFEECFF4FFEECFE9FF1200B5
:1057A000E8BC6DEF2EF0E9CFF6FFF3CFF7FFF86E10
:1057B0000900F5500900F5CFF3FF0900F5CFF4FF1C
:1057C0000900F5CFE9FF120000C0E5FF01C0E5FFC9
:1057D00004010A5104010B1902E1E86A0FD0000E1E
:1057E00004010B25006E016A070E012200C0E9FFCB
:1057F00001C0EAFFEFCF00F00B2B0050E4CF01F027
:10580000E4CF00F01200F2CFEAFFF29EA69EA69C23
:10581000A684E9CFA9FFF3CFAAFFE4CFA8FF3BEC12
:105820002EF0F4CFA8FF3BEC2EF0F6CFA8FF3BEC18
:105830002EF0F7CFA8FF3BEC2EF0A694EABEF28E36
:105840001200F2CFF6FFF29EA69EA69CE9CFA9FF1A
:10585000F3CFAAFFA680A850A94AAA2AA680A8CF5B
:10586000F3FFA94AAA2AA680A8CFF4FFA94AAA2A28
:10587000A680A8CFEAFFF6BEF28E1200E8AE08D0EE
:10588000F3CFEAFFEE50EECFF3FFEECFF4FF1200BE
:10589000E8BC6FEF2EF0E9CFF6FFF3CFF7FFF86E1D
:1058A0000900F5500900F5CFF3FF0900F5CFF4FF2B
:1058B0001200F2CFEAFFF29EA69EA69CA684E9CF34
:1058C000A9FFF3CFAAFFE4CFA8FF3BEC2EF0F4CF63
:1058D000A8FF3BEC2EF0F6CFA8FF3BEC2EF0A694F1
:1058E000EABEF28E1200D9CFE5FFE1CFD9FF00C0AA
:1058F000E5FF020EDBCF00F000C00EF40050E56EB5
:10590000000EE56AA0EC2BF0E652E652E4CF00F080
:10591000E4CFD9FF1200F2CFF6FFF29EA69EA69C1E
:10592000E9CFA9FFF3CFAAFFA680A850A94AAA2AC7
:10593000A680A8CFF3FFA94AAA2AA680A8CFF4FF81
:10594000F6BEF28E120000C0E5FF01C0E5FF600E5A
:105950000A01C525006E016A000E012200C0E9FFA0
:1059600001C0EAFFEFCF00F00050E4CF01F0E4CF38
:1059700000F01200D9CFE5FFE1CFD9FF00C0E5FF6D
:10598000020EDBCF00F0610E005C05E37B0E005CD5
:1059900002E2010E01D0E86AE4CF00F0E4CFD9FFC3
:1059A000120000C0E5FF01C0E5FF36C400F037C4B7
:1059B00001F00401363F01D0372B0050E56EBBECFF
:1059C0002DF0E652E4CF01F0E4CF00F01200D9CF81
:1059D000E5FFE1CFD9FF00C0E5FF020EDBCF00F00D
:1059E00000C00DF4005004E1C9EC2DF09D9A9D9883
:1059F000E4CF00F0E4CFD9FF1200E8AE06D0F3CF39
:105A0000EAFFEE50EECFF3FF1200E8BC6BEF2EF092
:105A1000E9CFF6FFF3CFF7FFF86E0900F550090064
:105A2000F5CFF3FF1200F2CFEAFFF29EA69EA69CEE
:105A3000A684E9CFA9FFF3CFAAFFE4CFA8FF3BECF0
:105A40002EF0F4CFA8FF3BEC2EF0A694EABEF28E27
:105A50001200F30110270000000400000000FF0006
:105A600000000007000200000042000000000000EB
:105A700000000000000000010000000018EEFFF030
:105A800028EEFFF0F86AA68EA69CE9680E0EEA6E74
:105A90000068000EED6A0050FDE1A8EC26F006EC6F
:105AA00000F0FFD7D9CFE5FFE1CFD9FF020EDBCF62
:105AB00025F4030EDBCF26F4040EDBCF27F4050E0E
:105AC000DBCF28F4E4CFD9FF1200F2CFF6FFF29E2D
:105AD000A69EA69CE9CFA9FFF3CFAAFFA680A85057
